:020000040001F9
:10C20000001A022025340200B7D80300A933020027
:10C21000A9330200A9330200A9330200A9330200A6
:10C220000000000000000000000000006D2E020071
:10C23000A933020000000000D52D0200A93302003E
:10C24000112F0200112F0200112F0200112F0200E6
:10C25000112F0200112F0200112F0200112F0200D6
:10C26000112F0200112F0200112F0200112F0200C6
:10C27000112F0200112F0200112F0200112F0200B6
:10C28000112F0200112F0200112F0200112F0200A6
:10C29000112F0200112F0200112F0200112F020096
:10C2A000112F0200112F0200112F0200112F020086
:10C2B000E9EE0300112F0200112F0200112F0200DE
:10C2C000112F0200112F0200112F0200112F020066
:10C2D000112F0200112F0200112F0200112F020056
:10C2E000112F0200112F0200112F0200112F020046
:10C2F000112F0200112F0200112F0200112F020036
:10C30000112F0200112F0200112F0200112F020025
:10C31000112F0200112F0200112F0200112F020015
:10C32000112F0200112F0200112F0200112F020005
:10C33000112F0200112F0200112F0200112F0200F5
:10C34000112F0200000000000000000000000000AB
:10C3500000000000000000000000000000000000DD
:10C3600000000000000000000000000000000000CD
:10C3700000000000000000000000000000000000BD
:10C3800000000000000000000000000000000000AD
:10C39000000000000000000000000000000000009D
:10C3A000000000000000000000000000000000008D
:10C3B000000000000000000000000000000000007D
:10C3C000000000000000000000000000000000006D
:10C3D000000000000000000000000000000000005D
:10C3E000000000000000000000000000000000004D
:10C3F000000000000000000000000000000000003D
:10C40000DEE61E284CBBCE8F025B00003C00000025
:10C41000980C03000100000000C2010000C20100EE
:10C42000FFFF02910000000000000000000000007B
:10C43000000000000000000000000000FFFFFFFF00
:10C4400081F0004102E000BF83F0004330B54FEAC5
:10C4500041044FEA430594EA050F08BF90EA020F32
:10C460001FBF54EA000C55EA020C7FEA645C7FEAC5
:10C47000655C00F0E2804FEA5454D4EB5555B8BFE8
:10C480006D420CDD2C4480EA020281EA030382EA59
:10C49000000083EA010180EA020281EA0303362DEB
:10C4A00088BF30BD11F0004F4FEA01314FF4801CBE
:10C4B0004CEA113102D0404261EB410113F0004FD0
:10C4C0004FEA03334CEA133302D0524263EB430387
:10C4D00094EA050F00F0A780A4F10104D5F1200E25
:10C4E0000DDB02FA0EFC22FA05F2801841F1000180
:10C4F00003FA0EF2801843FA05F359410EE0A5F154
:10C5000020050EF1200E012A03FA0EFC28BF4CF084
:10C51000020C43FA05F3C01851EBE37101F000453A
:10C5200007D54FF0000EDCF1000C7EEB00006EEB47
:10C530000101B1F5801F1BD3B1F5001F0CD34908D1
:10C540005FEA30004FEA3C0C04F101044FEA445228
:10C5500012F5800F80F09A80BCF1004F08BF5FEAAF
:10C56000500C50F1000041EB045141EA050130BD8F
:10C570005FEA4C0C404141EB0101013C28BFB1F5A1
:10C58000801FE9D291F0000F04BF01460020B1FAEC
:10C5900081F308BF2033A3F10B03B3F120020CDABF
:10C5A0000C3208DD02F1140CC2F10C0201FA0CF09D
:10C5B00021FA02F10CE002F11402D8BFC2F1200C02
:10C5C00001FA02F120FA0CFCDCBF41EA0C019040B8
:10C5D000E41AA2BF01EB0451294330BD6FEA040401
:10C5E0001F3C1CDA0C340EDC04F11404C4F12002EC
:10C5F00020FA04F001FA02F340EA030021FA04F3FE
:10C6000045EA030130BDC4F10C04C4F1200220FA54
:10C6100002F001FA04F340EA0300294630BD21FA92
:10C6200004F0294630BD94F0000F83F4801306BF58
:10C6300081F480110134013D4EE77FEA645C18BF4C
:10C640007FEA655C29D094EA050F08BF90EA020FE3
:10C6500005D054EA000C04BF1946104630BD91EADB
:10C66000030F1EBF0021002030BD5FEA545C05D1DE
:10C670004000494128BF41F0004130BD14F580041D
:10C680003CBF01F5801130BD01F0004545F0FE4191
:10C6900041F470014FF0000030BD7FEA645C1ABFC6
:10C6A000194610467FEA655C1CBF0B46024650EAFD
:10C6B000013406BF52EA033591EA030F41F4002129
:10C6C00030BD00BF90F0000F04BF0021704730B5AF
:10C6D0004FF4806404F132044FF000054FF0000184
:10C6E00050E700BF90F0000F04BF0021704730B545
:10C6F0004FF4806404F1320410F0004548BF40421A
:10C700004FF000013EE700BF42004FEAE2014FEA6E
:10C7100031014FEA02701FBF12F07F4393F07F4F49
:10C7200081F06051704732F07F4208BF704793F04C
:10C730007F4F04BF41F40021704730B54FF460745F
:10C7400001F0004521F000411CE700BF50EA010262
:10C7500008BF704730B54FF000050AE050EA01020B
:10C7600008BF704730B511F0004502D5404261EB7B
:10C7700041014FF4806404F132045FEA915C3FF4BC
:10C78000D8AE4FF003025FEADC0C18BF03325FEA59
:10C79000DC0C18BF033202EBDC02C2F1200300FA0A
:10C7A00003FC20FA02F001FA03FE40EA0E0021FA2F
:10C7B00002F11444BDE600BF70B54FF0FF0C4CF41D
:10C7C000E06C1CEA11541DBF1CEA135594EA0C0FCF
:10C7D00095EA0C0F00F0DEF82C4481EA030621EA0A
:10C7E0004C5123EA4C5350EA013518BF52EA033545
:10C7F00041F4801143F4801338D0A0FB02CE4FF0F7
:10C800000005E1FB02E506F00042E0FB03E54FF026
:10C810000006E1FB03569CF0000F18BF4EF0010E1E
:10C82000A4F1FF04B6F5007F64F5407404D25FEA1A
:10C830004E0E6D4146EB060642EAC62141EA5551CD
:10C840004FEAC52040EA5E504FEACE2EB4F1FD0C0F
:10C8500088BFBCF5E06F1ED8BEF1004F08BF5FEA8D
:10C86000500E50F1000041EB045170BD06F000463F
:10C8700046EA010140EA020081EA0301B4EB5C04EC
:10C88000C2BFD4EB0C0541EA045170BD41F48011E4
:10C890004FF0000E013C00F3AB8014F1360FDEBF09
:10C8A000002001F0004170BDC4F10004203C35DAE5
:10C8B0000C341BDC04F11404C4F1200500FA05F368
:10C8C00020FA04F001FA05F240EA020001F0004209
:10C8D00021F0004110EBD37021FA04F642EB06017F
:10C8E0005EEA430E08BF20EAD37070BDC4F10C04A9
:10C8F000C4F1200500FA04F320FA05F001FA04F26D
:10C9000040EA020001F0004110EBD37041F1000158
:10C910005EEA430E08BF20EAD37070BDC4F1200563
:10C9200000FA05F24EEA020E20FA04F301FA05F2CB
:10C9300043EA020321FA04F001F0004121FA04F273
:10C9400020EA020000EBD3705EEA430E08BF20EA43
:10C95000D37070BD94F0000F0FD101F0004640007D
:10C9600041EB010111F4801F08BF013CF7D041EAFF
:10C97000060195F0000F18BF704703F00046520003
:10C9800043EB030313F4801F08BF013DF7D043EAD4
:10C990000603704794EA0C0F0CEA135518BF95EA8A
:10C9A0000C0F0CD050EA410618BF52EA4306D1D111
:10C9B00081EA030101F000414FF0000070BD50EA30
:10C9C000410606BF1046194652EA430619D094EABA
:10C9D0000C0F02D150EA013613D195EA0C0F05D1A4
:10C9E00052EA03361CBF104619460AD181EA0301F8
:10C9F00001F0004141F0FE4141F470014FF00000B0
:10CA000070BD41F0FE4141F4780170BD70B54FF04A
:10CA1000FF0C4CF4E06C1CEA11541DBF1CEA1355CA
:10CA200094EA0C0F95EA0C0F00F0A7F8A4EB0504AC
:10CA300081EA030E52EA03354FEA013100F08880A3
:10CA40004FEA03334FF0805545EA131343EA12636C
:10CA50004FEA022245EA111545EA10654FEA002621
:10CA60000EF000419D4208BF964244F1FD0404F5DA
:10CA7000407402D25B084FEA3202B61A65EB030536
:10CA80005B084FEA32024FF480104FF4002CB6EBF3
:10CA9000020E75EB030E22BFB61A754640EA0C0073
:10CAA0005B084FEA3202B6EB020E75EB030E22BFB3
:10CAB000B61A754640EA5C005B084FEA3202B6EBF4
:10CAC000020E75EB030E22BFB61A754640EA9C00B3
:10CAD0005B084FEA3202B6EB020E75EB030E22BF83
:10CAE000B61A754640EADC0055EA060E18D04FEA41
:10CAF000051545EA16754FEA06164FEAC30343EAE1
:10CB000052734FEAC2025FEA1C1CC0D111F4801FAD
:10CB10000BD141EA00014FF000004FF0004CB6E7A6
:10CB200011F4801F04BF01430020B4F1FD0C88BF45
:10CB3000BCF5E06F3FF6AFAEB5EB030C04BFB6EB50
:10CB4000020C5FEA500C50F1000041EB045170BD43
:10CB50000EF0004E4EEA113114EB5C04C2BFD4EB70
:10CB60000C0541EA045170BD41F480114FF0000EF4
:10CB7000013C90E645EA060E8DE60CEA135594EA70
:10CB80000C0F08BF95EA0C0F3FF43BAF94EA0C0F73
:10CB90000AD150EA01347FF434AF95EA0C0F7FF4E8
:10CBA00025AF104619462CE795EA0C0F06D152EA3C
:10CBB00003353FF4FDAE1046194622E750EA410620
:10CBC00018BF52EA43067FF4C5AE50EA41047FF431
:10CBD0000DAF52EA43057FF4EBAE12E74FF0FF3C96
:10CBE00006E000BF4FF0010C02E000BF4FF0010C67
:10CBF0004DF804CD4FEA410C7FEA6C5C4FEA430CE0
:10CC000018BF7FEA6C5C1BD001B050EA410C0CBF2E
:10CC100052EA430C91EA030F02BF90EA020F002090
:10CC2000704710F1000F91EA030F58BF994208BFF7
:10CC300090422CBFD8176FEAE37040F001007047B4
:10CC40004FEA410C7FEA6C5C02D150EA013C07D10B
:10CC50004FEA430C7FEA6C5CD6D152EA033CD3D056
:10CC60005DF8040B704700BF8446104662468C4650
:10CC70001946634600E000BF01B5FFF7B7FF002883
:10CC800048BF10F1000F01BD4DF808EDFFF7F4FFAC
:10CC90000CBF012000205DF808FB00BF4DF808ED37
:10CCA000FFF7EAFF34BF012000205DF808FB00BF5A
:10CCB0004DF808EDFFF7E0FF94BF012000205DF87C
:10CCC00008FB00BF4DF808EDFFF7CEFF94BF012031
:10CCD00000205DF808FB00BF4DF808EDFFF7C4FF2A
:10CCE00034BF012000205DF808FB00BF4FEA410C73
:10CCF0007FEA6C5C02D150EA013C0AD14FEA430C56
:10CD00007FEA6C5C02D152EA033C02D14FF0000092
:10CD100070474FF0010070474FEA410212F50012D0
:10CD200015D211D56FF47873B3EB625212D94FEA72
:10CD3000C12343F0004343EA505311F0004F23FA5C
:10CD400002F018BF404270474FF00000704750EAB1
:10CD5000013005D111F0004008BF6FF0004070476E
:10CD60004FF00000704700BF4A0011D212F50012C8
:10CD700011D20DD56FF47873B3EB62520ED44FEA33
:10CD8000C12343F0004343EA505323FA02F07047B3
:10CD90004FF00000704750EA013002D14FF0FF30F1
:10CDA00070474FF0000070474FEA4102B2F1E04394
:10CDB00024BFB3F5001CDCF1FE5C0DD901F0004C82
:10CDC0004FEAC0024CEA5070B2F1004F40EB8300D2
:10CDD00008BF20F00100704711F0804F21D113F1FE
:10CDE0003872BCBF01F00040704741F480114FEA37
:10CDF0005252C2F11802C2F1200C10FA0CF320FAC0
:10CE000002F018BF40F001004FEAC1234FEAD323DC
:10CE100003FA0CFC40EA0C0023FA02F34FEA430346
:10CE2000CCE77FEA625307D150EA01331EBF4FF0CF
:10CE3000FE4040F44000704701F0004040F0FE40EA
:10CE400040F40000704700BF7BB972B90029BEBF33
:10CE500000204FF0004106E008BF00281CBF6FF023
:10CE600000414FF0FF3000F075B8ADF1080C6DE9EE
:10CE700004CE002909DB002B1ADB00F084F8DDF872
:10CE800004E0DDE9022304B07047404261EB410158
:10CE9000002B1BDB00F077F8DDF804E0DDE902236E
:10CEA00004B0404261EB4101524263EB43037047DF
:10CEB000524263EB430300F066F8DDF804E0DDE97D
:10CEC000022304B0404261EB41017047524263EBE0
:10CED000430300F058F8DDF804E0DDE9022304B074
:10CEE000524263EB4303704753B94AB9002908BF64
:10CEF00000281CBF4FF0FF314FF0FF3000F02AB880
:10CF0000ADF1080C6DE904CE00F03DF8DDF804E069
:10CF1000DDE9022304B07047D0B500220B4B064672
:10CF20000F46FFF749FCFFF71FFF0446FFF7CAFB58
:10CF30000022074BFFF740FC02460B4630463946BD
:10CF4000FFF782FAFFF710FF2146D0BD0000F03D49
:10CF50000000F041704700BF38B5002200230446AE
:10CF60000D46FFF79BFE28B920462946BDE838400C
:10CF7000FFF7D2BF204605F10041FFF7CDFF404249
:10CF800061EB410138BD2DE9F04F099E88468E4680
:10CF9000154604461946002B40F0C6804245B2FAB9
:10CFA00082F746D94FB1C7F1200C08FA07F3BD400C
:10CFB000BC4020FA0CFC4CEA030E4FEA15481FFA5D
:10CFC00085FC220CBEFBF8F908FB19E309FB0CFAFF
:10CFD00042EA03439A4528D9EB1809F1FF3004D2FD
:10CFE0009A4502D9A9F102002B44A3EB0A03A4B28B
:10CFF000B3FBF8F208FB123302FB0CFC44EA0344D7
:10D00000A44514D92C1902F1FF3303D2A44501D948
:10D01000931E2C44A4EB0C0443EA00401EB1FC40D8
:10D02000002334607360BDE8F08F4846DDE71346A7
:10D03000F0E702B9FFDE8FBBA8EB020301214FEA44
:10D04000154EAAB2200CB3FBFEFC0EFB1C330CFBEE
:10D0500002F840EA0343984562D9EB180CF1FF301F
:10D0600004D2984502D9ACF102002B44A3EB08038B
:10D07000A4B2B3FBFEFC0EFB1C330CFB02F244EA31
:10D080000344A2424ED92C190CF1FF3304D2A24220
:10D0900002D9ACF102032C44A41ABDE7C7F1200C5D
:10D0A000BD4008FA07F3BC4028FA0CF94FEA154EC8
:10D0B00020FA0CFC4CEA0302ABB2B9FBFEFC110CEB
:10D0C0000EFB1C900CFB03F841EA0040804523D97D
:10D0D00028180CF1FF3104D2804502D9ACF10201CD
:10D0E0002844A0EB080092B2B0FBFEFC0EFB1C0033
:10D0F0000CFB03F842EA004398450FD9EB180CF1FA
:10D10000FF3204D2984502D9ACF102022B44A3EBC2
:10D11000080342EA014192E76146E2E76246F6E728
:10D120006046A3E76346B7E7434505D90EB1C6E9B4
:10D1300000080021084676E7B3FA83FCBCF1000F33
:10D1400010D1434501D382420AD8841A68EB030305
:10D1500001209E46002E68D0C6E9004E002162E7FD
:10D160006046F7E7CCF1200E03FA0CF302FA0CF557
:10D1700000FA0CF722FA0EF428FA0EFB20FA0EF150
:10D180001C4308FA0CF34FEA14491943A3B20A0CE2
:10D19000BBFBF9F809FB18BB08FB03FA42EA0B4298
:10D1A00092453ED9A21808F1FF3004D2924502D927
:10D1B000A8F102002244A2EB0A0289B2B2FBF9F8FC
:10D1C00009FB182208FB03F341EA024293422AD9E1
:10D1D000A21808F1FF3104D2934202D9A8F102014A
:10D1E000224441EA0040D21AA0FB059842454B4632
:10D1F000414602D306D14F4504D20138B9EB0503AD
:10D2000068EB04018EB1FC1A62EB010707FA0EFE0F
:10D2100024FA0CF327FA0CF74EEA0303C6E90037A9
:10D220009CE74046C7E74146DBE73146FBE610F89E
:10D23000012B11F8013B012A28BF9A42F7D0D01ADE
:10D240007047034613F8012B002AFBD1181A013846
:10D2500070470000000000002DE9F04F2DED028B1B
:10D260008046894617461C4600269FEDA78B9DB039
:10D27000387810B9304600F0AABE7B1C25280393ED
:10D2800006D04946C0470028C0F2A186013625E2F3
:10D29000182200210EA824F0B4F97B78252B59D050
:10D2A0007A1C154612F8013B2B2B00F08B8079D8A5
:10D2B000202B00F08C80232B00F08E809DF84030D6
:10D2C00003F04402442A03D16FF386138DF84030F3
:10D2D0009DF840300A9543F080038DF840302B785C
:10D2E0002A2B7ED19DF8413043F001038DF8413067
:10D2F0006B1C0A931A782E2A0CBF012100219DF87D
:10D30000412061F341028DF841200BD15A1C0A9251
:10D310005A782A2A7BD19DF84120023342F0040238
:10D320008DF84120194611F8010B6C2800F0CC80D3
:10D330007DD8682800F084806A2800F0CF804C28CF
:10D3400000F0D3809DF8412019466FF3C6028DF896
:10D35000412080E0BA1C03928DF843309DF84130A3
:10D36000DD0740F1728154F8042B002A029208DA9A
:10D370009DF8402042F004028DF84020029A52426B
:10D380000292580740F1698154F8045B002D80F245
:10D3900068819DF841306FF341038DF841304FF0C3
:10D3A000FF355EE12D2B06D0302B87D19DF8403024
:10D3B00043F0400303E09DF8403043F004038DF850
:10D3C00040306EE79DF8403043F00803F7E79DF8E2
:10D3D000403043F01003F2E79DF8403043F0200363
:10D3E000EDE70AA804F0C8F80A9BAB4281D09DF88B
:10D3F00040501190C5F3400141EAD072520062F0F2
:10D400007F0205F07D010A438DF8402071E70AA8EC
:10D4100004F0B2F89DF840301290C3F3400242EAA3
:10D42000D07060F341038DF840300A9B7AE774288E
:10D430009DF8412056D07A2884D1134606223EE03A
:10D440005A78682A9DF8412037D1012161F3C6023C
:10D450008DF84120991C0B4613F8012B782A039371
:10D460008DF8432000F2C980572A51D8412A04D0B0
:10D47000A2F14503022B00F2C08004219DF8423046
:10D4800061F302038DF8423002F0DF03A3F1410A99
:10D490009DF84120DAF1000343EB0A0363F3C7125E
:10D4A0008DF84120D3B202F07802182A40F0A28011
:10D4B0006FF3C6038DF8413089E01346022262F310
:10D4C000C6038DF84130C6E75A786C2A9DF8412092
:10D4D00001D10421BAE713460322F0E705229DF8A3
:10D4E0004130ECE713460722E9E7BDF8403023F46A
:10D4F000F04323F0020343F4804343F00203ADF80A
:10D500004030A8E7AFF300800000000000000008F2
:10D51000A2F15803202B70D801A151F823F000BFCD
:10D52000D3D50100FBD50100FBD50100FBD50100DF
:10D53000FBD50100FBD50100FBD50100FBD50100A7
:10D54000FBD501007BD40100FBD50100D3D5010040
:10D55000A5D501007BD401007BD401007BD4010060
:10D56000FBD50100A5D50100FBD50100FBD50100CD
:10D57000FBD50100FBD5010009D60100D3D5010080
:10D580002DD60100FBD50100FBD501002DD60100F1
:10D59000FBD50100D3D50100FBD50100FBD501006F
:10D5A000D3D5010001219DF8423061F302038DF8CB
:10D5B00042309DF8413003F07803402B02BF9DF8C4
:10D5C000401041F001018DF84010632A05D000237E
:10D5D00006E002219DF84230E7E7003B18BF012337
:10D5E0009DF84020C2F340010B4363F341028DF8E4
:10D5F0004020B3E613F0380FE9D09DF8403043F0F7
:10D6000001038DF84030E2E703229DF8423062F3D7
:10D6100002038DF842309DF8413003F07803A3F106
:10D62000400CDCF1000343EB0C03D9E703229DF827
:10D63000423062F302038DF842309DF8413013F01E
:10D64000780F14BF01230023CAE79DF94020002A68
:10D65000ACBF4FF0FF32119A92E699077FF59FAE6B
:10D66000129D0023CDE911339DF842309DF8411001
:10D6700003F00702042A07D18A0705D49DF9412047
:10D68000002AB4BF0D25062503F00703012BC1F3C3
:10D69000C30138D1CB1E042B22D8DFE803F00309E5
:10D6A0000921210054F8043BDA17CDE90E3206E0D7
:10D6B000073424F00704F4E80223CDE90E239DF893
:10D6C00040A01AF0030F56D03A4649464046039B05
:10D6D0001FF0A3FA0028C0F27A840644039FC7E52E
:10D6E00054F8043B01294FEAE372CDE90E3205D12B
:10D6F0009DF838300E9300230F93E0E70229DED126
:10D70000BDF93830D0E7022B23D1CB1E042B13D820
:10D71000DFE803F0030A0A12120000222068231D2A
:10D720000E900F921C46CAE7E31D23F00703F3E8AF
:10D7300002ABCDE90EABF5E754F8043B01290E939B
:10D740004FF000030F93D3D00229B8D1BDF8383081
:10D75000D0E7042B09D1E31D23F0070303F10804EC
:10D76000D3E90023CDE90E23A9E7032B04BF54F826
:10D77000043B0E93A3E79DF84320782AAED8572A9E
:10D7800000F29080252A00F0D780242AA6D9412AC9
:10D7900003D0A2F14503022BA0D8DDE90E13002B24
:10D7A000C0F2BB811AF0080F40F0B9811AF01007DF
:10D7B00018BF2027C3F30A50C3F31303CDE908139E
:10D7C000002840F0AE8151EA030C14BF4FF0010E67
:10D7D0004FF0000E9DF941C0462A08BF6622BCF1F9
:10D7E000000F80F25A824FF0300C4FF0780B8DF81A
:10D7F00054C08DF855B0BEF1000F40F0CB814FF012
:10D80000310CA0F2FF3004909DF841008DF856C015
:10D810005FEAD01B00F0E98180070CD50D2D40F3A5
:10D82000BD814FF0000B9DF842300D3D43F04003A9
:10D8300012958DF842300D25DDE9080150EA01030B
:10D8400040F0D6811AF0200A40F0D281002D00F07D
:10D85000D2812E238DF8573016AB4FF0000C0132D9
:10D86000CDE90ACCCDF830C0DFF8ACC5D2B212F8A1
:10D870000C2002F00302012A0CBF582278228DF8F6
:10D880002B2050EA01020DF16D0200F0F8810092A8
:10D890000AAA059303F086FE059B4FF0300C0DF1AC
:10D8A0006D02AEE1A2F15803202B3FF617AF01A0A5
:10D8B00050F823F0BDDA0100DDD60100DDD601000D
:10D8C000DDD60100DDD60100DDD60100DDD6010088
:10D8D000DDD60100DDD601009BD70100DDD60100B9
:10D8E00065D901005DDA01009BD701009BD70100DB
:10D8F0009BD70100DDD601005DDA0100DDD6010015
:10D90000DDD60100DDD60100DDD60100F3DA01002D
:10D91000BDDA0100C1DA0100DDD60100DDD601006B
:10D920003FD90100DDD60100BDDA0100DDD60100DE
:10D93000DDD60100BDDA010049461046A2E4002D03
:10D94000DDF838B00ADB2946584624F054F80027A1
:10D950000BEB000ABBF1000F0CD1BFE65846FFF7F6
:10D9600070FCF4E700270E9B0DF1550A8DF854303A
:10D970000DF1540BAAEB0B0307B101339DF84210D4
:10D98000CA0640F11A830233119A4806134444BF71
:10D99000129A9B18029A002A23DDD31A9DF8402080
:10D9A0005107C2F3800500F11B83500640F1148338
:10D9B000002F00F01383494638460293C0470028E1
:10D9C000C0F205832F463025029B013602931E4488
:10D9D000029BF01A002B03F1FF33029300F3F18254
:10D9E000064637B149463846C0470028C0F2EF82A4
:10D9F00001369DF84230590640F148839DF9413087
:10DA0000A6EB0B06002B80F2F7825F4606EB0B03BA
:10DA10001BF8010B702840F0E5821E46129D1D4444
:10DA2000AB1B002B00F32B8353463A464946404636
:10DA30001FF0F3F80028C0F2CA82029B304403446E
:10DA400006461D46AB1B002B7FF748AE49462020FB
:10DA5000C0470028C0F2BB820136F3E71AF0080F76
:10DA60002AD11AF0100718BF2027DDE90E23002B5A
:10DA700005DA2D27524263EB4303CDE90E23DDE99E
:10DA80000E010DF16D03009310AA15AB03F08AFD92
:10DA90008346002D0DF16D0AFFF65CAF9DF8403016
:10DAA000AAEB0B026FF3861395428DF840307FF698
:10DAB00051AFAA1A11924DE72B27D6E70027DEE7D0
:10DAC0000E98002800F073820DF16D030093002181
:10DAD00015AB10AA03F066FDBDF84230834603F093
:10DAE000EF0343F4F04343F010030027ADF8423056
:10DAF000CFE70E9B07293FF6F1ADDFE801F00C04FC
:10DB0000060C08080C0C1E70E8E51E80E6E5F2170E
:10DB1000C3E90062E2E51E60E0E52D274AE62B2717
:10DB200048E640F2FF7C604531D1BB480132D2B2B9
:10DB3000125C0B4302F003021BD1012A11D14923CD
:10DB40008DF854304E238DF8553046238DF85630DD
:10DB50009DF840300DF1570A6FF386138DF8403071
:10DB600006E769238DF854306E238DF8553066230F
:10DB7000ECE7012A07BF4E2341226E2361220CBF2E
:10DB80008DF854308DF854308DF85520DEE74FF085
:10DB9000000E1FE6A0F2FE30049035E651EA0300C5
:10DBA00020D00D2D1ED00120C5F10D0C4FEA8C0C9C
:10DBB0000CF1FF3BACF1210ECCF1210C00FA0EFE72
:10DBC00020FA0CFC4EEA0C0C00FA0BF001EA000BF8
:10DBD00003EA0C0E5BEA0E0E04D0091843EB0C03AB
:10DBE000CDE908134FF0000B26E64FF0010B22E6BB
:10DBF0004FF0010A2DE6AA460DF157032DE600F875
:10DC000001CD111A0C29FADD0DF16D0C00EB050E9A
:10DC100060451D4603D2AEEB0001002931DCBBF1AB
:10DC2000000F0AD015F8011C6B1E30292ED02E29AA
:10DC300003D1BAF1000F08BF1D46AA4670230AF8A7
:10DC4000023B049B002BBBBF5B4204932B232D2381
:10DC500005F8013F692304988DF82B300092534654
:10DC60000AAAC11703F09EFC03460DF16D02934210
:10DC70000ED3131A904288BF00239A4478E61046C8
:10DC80000BE610F8011B03F8011BC1E71D46C9E7AD
:10DC900013F8011B05F8011FE9E7DB0243EA5153C2
:10DCA000C90240EA010A43EAE07C5AEA0C0CCDE9D9
:10DCB000081300F08280BEF1000F49D1DDE908139E
:10DCC000A0F2FE3A00204FF0050C834643F00043DB
:10DCD00009931AF1020F42DB08B1CDE90813DDE91F
:10DCE0000813BAF1000F4FDC0999089BCAF1040C24
:10DCF0000AF11C0001FA00F0ACF1200E23FA0CF33B
:10DD000021FA0EFE034343EA0E0321FA0CF1CDE99A
:10DD1000083102F0DF03472B57D11BF1030F01DB62
:10DD20005D454EDA023A002DD2B200DD013D9DF88C
:10DD30004030990649D4002DD4BF00230123662A20
:10DD4000049344D115EB0B0342D5002343E0013883
:10DD500049185B41002BFADACDE90813AEE7490810
:10DD600041EAC3715B08B3F1333F50460AF1010A3F
:10DD7000F5D20CFB03FEA1FB0C1300F1020A734465
:10DD800001200BF1FF3BA4E7023143F1000308A897
:10DD9000CDE9081304921EF011FFDDE90831049A61
:10DDA0000AF1FF3A0BF1010BDB18494100290AF196
:10DDB000FF3AF9DACDE9083191E74FF0000BDA4686
:10DDC00092E76622A5EB0B05B1E70023B7E76B1CD2
:10DDD000102BA8BF102310218DED0A8B9A460791B6
:10DDE000DDE90A13BAF1000F18D10898091809984B
:10DDF00043EB0003B3F1805F1ED2CDE90813662A1E
:10DE000040F0A380BBF1000F24DC30230DF1550A54
:10DE10008DF8543032E000BF0DBF0400490841EADC
:10DE2000C3710AA85B080592CDE90A130AF1FF3A0B
:10DE30001EF0C4FE059AD3E7490841EAC37108A859
:10DE40005B080592CDE908130BF1010B1EF0B6FE3D
:10DE5000059AD4E70DF1540A079B002B0ADD07A9A8
:10DE600008A805921EF0C2FEBBF1010B059A0AF844
:10DE7000010BF1D1CDF844B04FF0000B9DF84030CC
:10DE8000980601D4002D1EDD2E230AF8013BBBF1BC
:10DE9000000F13D0002D16DDCBF10001A942A8BF61
:10DEA000294600291191A5EB0105D4BF00210121CC
:10DEB0009DF8423061F345138DF84230002D02DDAC
:10DEC000079B002B59DC049B002B63D1129502F0B9
:10DED000DF03452B27D15346BBF1000F03F8022B7C
:10DEE000B6BF2D222B22CBF1000BBBF1630F8AF8BA
:10DEF00001200ADD6421BBFBF1F201FB12BB02F140
:10DF000030000AF103038AF802000A21BBFBF1F298
:10DF10009A4601FB12BB02F130000BF1300B0AF8FC
:10DF2000020B83F801B0119B002B3EDC129B002BEF
:10DF3000D4BF002301239DF8422063F386120023FF
:10DF40008DF842208AF8003012E507A908A805924A
:10DF50001EF04CFE9DF84030302818BF0BF1FF3BFF
:10DF60009906059A8DF8540001D4002D0FDD2E235B
:10DF70000DF1560A8DF85530A0E707A908A80592BB
:10DF80001EF034FE013D059A0AF8010B96E70DF1EB
:10DF9000550A98E70023129351461AF8013D302B99
:10DFA000FAD02E2B18BF8A4691E70123C3E7DFF88A
:10DFB0002CA10746AAF1050BDCE40D0748BF01338D
:10DFC000E2E449462846C0470028BFF601AD1DB02F
:10DFD000BDEC028BBDE8F08F2025F7E43025F5E499
:10DFE0000293FEE44946C0470028BFF60EADEEE7B7
:10DFF0004946C0470028EADB5D469BF80000364BE7
:10E000007719C35C0BF1010B5A07F1D49DF842302C
:10E01000DDF844B09B0608D40BEB07065B46002BEB
:10E02000A6EB0B070BF1FF3B0FDC28782E2809D15C
:10E030004946C0470028CADBBBF1000F07F10107C2
:10E0400009DC0135A7EB050B0FE049463020C0473E
:10E050000028E3DABBE749463020C0470BF1FF3B1D
:10E06000E8E74946C0470028B1DB2F461A4A0BEBC8
:10E07000050315F8010B125C5607F2D4CDE44946AE
:10E080003020C0470028A2DB0136C9E4D90601D4FC
:10E090001A0705D549463020C047002897DB0136CE
:10E0A0009DF84230DB0606D549469DF84300C0473F
:10E0B00000288CDB0136119D3544AB1B002B02DCA4
:10E0C00053465A46B2E449463020C0470028FFF67E
:10E0D0007EAF0136F1E700BF0EBF0400F04204003E
:10E0E0000128F8B50E4606D01FF030FC1623036059
:10E0F0004FF0FF30F8BD23F0F4F8334A336874680A
:10E10000A3FB0235B66802FB04559C194FEAD033D5
:10E1100043EA414345EBE675A3FB0236C90BC0F366
:10E120000E0002FB0161A0FB0202E41A4FEAD033A9
:10E1300043EA424365EB0105E41A65F10005204618
:10E140001FA3D3E900232946FEF77EFE1CA3D3E9D3
:10E15000002307460E4620462946FEF775FE144664
:10E160004FF02003EFF3118583F31288BFF36F8F15
:10E17000164818F0C1FA40B9154916488E221EF00B
:10E180006CFD8E2112481EF061FD104818F0D2FA85
:10E19000114B0E48C3E900769C6018F0BBFA40B9F9
:10E1A0000B490C48B9221EF058FDB92108481EF051
:10E1B0004DFD85F31188BFF36F8F00209AE700BFF4
:10E1C00000CA9A3B0000000000CA9A3BE49101207B
:10E1D0009D42040063420400C0530120000000007F
:10E1E00070B52DED028B002386B0CDE904330423F6
:10E1F0000D4606460193002800F0A480002900F097
:10E20000A180062104A821F0A3F8044648B10246E3
:10E21000452151481EF05BFD204606B0BDEC028B47
:10E2200070BD014604AA304621F08FF8044640B183
:10E230004521024649481EF04AFD04A821F09BF8FA
:10E24000EAE7032101AB02AA04A821F08DF90446F4
:10E2500018B1024645214248EDE7019B06AA134446
:10E26000014603F8100C022202A81CF0B1FC6A4619
:10E270000121C6B204A821F042F9044618B10246B1
:10E2800045213848D7E7009B042B16D0052B07D033
:10E290002870572134481EF01AFD6FF07F04CCE738
:10E2A00009230F2E2B702AD96FF0150245212F4814
:10E2B0001EF00DFD6FF01504BFE707230F2E2B7026
:10E2C000F2D89FED2B8A2B4B33F81600E8B1FEF7FE
:10E2D00009FA1FA3D3E90023FEF76EFAFEF764FDE7
:10E2E000042168600DEB010302AA04A8019121F04A
:10E2F0003BF9044658B1024645211F489BE71F4B96
:10E300009FED1F8A33F81600E0E71E48E8E7019BFF
:10E3100006AA13440146022203F8100C02A81CF0BE
:10E3200057FCC2B20F2A02D945211748C0E7013273
:10E33000D2B207EE902AF8EEE77A67EE887AC5ED5A
:10E34000027A7AE76FF0150466E700BFAFF300804A
:10E350007B14AE47E17A24401D5D04004B5D040050
:10E360007C5D0400AD5D0400D45D0400015E04002A
:10E370000AD7A33F743604002A5E040094360400D2
:10E380000AD723400AD7A3405A5E040000000000C9
:10E390002DE9F04306460C4693B009B9002024E06D
:10E3A00008680028FAD08B686268191D91420BD862
:10E3B00004229549184423F0F7FA28B90423F3609E
:10E3C000A3680433A36087E0A3686268591D914283
:10E3D0000ED8206805228D49184423F0E5FA38B993
:10E3E0000120A268F0600532A26013B0BDE8F0839E
:10E3F000A3686268191D91420DD8206804228449DF
:10E40000184423F0D1FA30B902230120A268F36046
:10E4100070610432E8E7D4E901038342BED2216887
:10E42000CA5CCF18222A06D12146304613B0BDE877
:10E43000F04313F085B92D2A03D0A2F13005092D40
:10E440005FD8002201920029A8D002A90D464FF002
:10E450002E0EC31A17F8010B392810D82A281BD9F9
:10E46000A0F12B0CBCF10E0F16D8DFE80CF00D1547
:10E470000D37150D0D0D0D0D0D0D0D0D0D0000F0D1
:10E48000DF0CBCF1450F07D1087001323F2A01F1C2
:10E49000010101D09A42DDD112AB1A440023284673
:10E4A00002F8403C01A91CF0E9F9019F8046AF4207
:10E4B00089463FF473AF52A3D3E90023C6E9068926
:10E4C000FEF700FC68B16FF00043736108237D1B09
:10E4D000A768F3603D44A560012086E781F800E06D
:10E4E000D3E70022404649464A4BFEF7E1FB10B114
:10E4F0004FF00043E9E740464946FEF70DFC7061E6
:10E50000E4E75B2A53D1E268B2F57A7FBFF446AF05
:10E510000132E260CA5C5B2A7FF440AF0133A36042
:10E52000204621F051FBD4E90123934263D22268B3
:10E53000D25C5D2A0CD100252F46E368013BE360E5
:10E5400007B17D602023C6E90273A368013339E770
:10E5500000252F46013BA360206921F0B7FBA846A8
:10E560000546002800F09D80FFB1C8F80000C0F803
:10E570000480A36820460133A36021F025FB2146D7
:10E580002846FFF705FF002800F08E80204621F086
:10E590001BFBD4E90123934280F086802268D35C80
:10E5A0002C2BD9D05D2B7FD1C7E70746E1E77B2A2B
:10E5B0007FF4F4AEE268B2F57A7FBFF4EFAE0132D9
:10E5C000E260CA5C7B2A7FF4E9AE0133A360204697
:10E5D00021F0FAFAD4E9012393420CD22268D25CEA
:10E5E0007D2A19D100252F46E368013BE36007B17E
:10E5F0007D604023A7E7013BA360CFE6AFF3008037
:10E600000000C0FFFFFFDF41C1B90400D8B904001A
:10E61000DEB904000000E0C100252F46A846013BFA
:10E62000A360206921F052FBA9460546002838D096
:10E63000AFB3C9F80000C0F80490A36820460133C6
:10E64000A36021F0C1FA2146284613F079F858B3A7
:10E65000204621F0B9FA2B69C5F810802B62D4E965
:10E660000123934220D22268D25C3A2A1CD1013382
:10E670002046A36021F0A8FA21462846FFF788FE2D
:10E6800090B1204621F0A0FAD4E9012393420BD2A5
:10E690002268D35C2C2BC4D07D2B05D1A4E7074680
:10E6A000CBE7002F3FF47AAE384613F0E3FC75E673
:10E6B000174BD0B5064618680F4621F007FB0446F5
:10E6C00070B10823C0E90667C36039460EA3D3E9D9
:10E6D00000233046FEF7F6FA20B16FF00043636185
:10E6E0002046D0BD0022304639460A4BFEF7E0FAFC
:10E6F00010B14FF00043F2E730463946FEF70CFB0D
:10E700006061EDE7AFF300800000C0FFFFFFDF4175
:10E71000F04601200000E0C12DE9F041C1F30A57A5
:10E7200002460B460C46A7F2FF3605468046132EDE
:10E7300034DC002E14DA34A3D3E90023FDF786FE7F
:10E7400000220023FEF7C8FA38B1002C58DA24F072
:10E7500000431D4301D000252D4C23462A4626E0C8
:10E760002C4F374101EA070C5CEA000C1FD026A3AE
:10E77000D3E90023FDF76AFE00220023FEF7ACFA7E
:10E780000028EAD0002C4FF00005BEBF4FF48013E4
:10E7900043FA06F6A41924EA0704DEE7332E0ADD5D
:10E7A000B6F5806F03D1FDF751FE02460B461046C9
:10E7B0001946BDE8F081A7F213474FF0FF3C2CFA51
:10E7C00007F70742F3D010A3D3E90023FDF73EFE7D
:10E7D00000220023FEF780FA0028BED0002C02DAC7
:10E7E000142E03D1013425EA0705B6E70123C6F14B
:10E7F000340603FA06F63544454538BFE418F2E717
:10E8000000252C46A9E700BF9C7500883CE4377EB4
:10E810000000F0BFFFFF0F002DE9F04F1F4600235F
:10E82000044688464FF0000A4FF0000B2DED048B94
:10E830009DB018939E4B13921B6818460593FEF7E4
:10E8400000FD0546CDF85C80179B1A782B2A4CD02A
:10E8500039D80D2A32D8082A32D8002A3CD00023D1
:10E860000A93179E3378302B40F0AE80737803F014
:10E87000DF03582B66D10A9B17A902972046019304
:10E8800018AB8C4A009319AB1CF06AFC10F0070718
:10E89000054605D0062F2AD10136002317960A9384
:10E8A000139B002B40F084850A9BDBB150460BF193
:10E8B00000411DB0BDEC048BBDE8F08F202ACED105
:10E8C00001331793C0E72D2AC9D101220A925A1C9D
:10E8D00017925B78002BC4D1139BCDF85C80002B82
:10E8E00040F0648550465946E3E70022EEE7189A67
:10E8F0003AB135211AA823F0E1FB189920461CF003
:10E9000017FF013F042F06D8DFE807F00A031417AA
:10E910000A00DDE91AAB2807C2D54BF0004BBFE770
:10E92000DDE91AA3199A23F4801302F2334243EA71
:10E93000025BF0E7DFF880B1EDE76FF0004B4FF0DE
:10E94000FF3AE8E7179B5A1C17925B78302BF9D0F7
:10E95000002BA5D001234FF0000904930A22179B36
:10E960004F46CDF81C90089317980678A6F130030F
:10E97000D9B209292AD92A46059923F015F8A0B356
:10E98000002032463D4603460590652A01D0452ABF
:10E9900018D11DB9049A02439ED00025DDF85C8091
:10E9A00008F10102179298F801202B2A75D02D2A20
:10E9B0007BD04FF0000CA2F13001092940F2828097
:10E9C000CDF85C8000269DE00023C4E7082F00F10D
:10E9D000010007F10107D4BF079902FB093917901D
:10E9E000DCBF02FB01330793BEE7179B5A1917924E
:10E9F0005A5D002F36D03D460590A2F13003092B19
:10EA000012D90123C1E7179B01305A1C17925A787B
:10EA1000302AF8D0A2F13103082B00F2CE84059001
:10EA20000020179B05460893303A00F1010313D0EC
:10EA3000059900EB050E19442B4605910A217345F3
:10EA400012D12B180135082B05441CDC07990A2329
:10EA500003FB012307930023179A1846511C1791B3
:10EA60005278CAE73846D3E7082B04DC079E4E43AA
:10EA700007960133E3E703F1010CBCF1100FD8BF97
:10EA800001FB09F9F5E7102DDCBF0A2303FB092977
:10EA9000E1E70023059301237CE74FF0000C08F128
:10EAA0000202179298F8022085E74FF0010CF6E772
:10EAB0005C360400D43504000000F07F179A511C26
:10EAC00017915278302AF9D0A2F1310108293FF686
:10EAD00079AFA2F1300E179A0692179A511C17912E
:10EAE0005278A2F13006092E37D9069E891B44F6CA
:10EAF0001F66082902DC7645A8BF7646BCF1000FE8
:10EB000000D07642002D4DD1049901437FF4C8AE68
:10EB1000002B7FF4E1AE692A27D024DC492A24D0D7
:10EB20004E2A7FF4D9AE9F4917A823F02DF900286B
:10EB30003FF4D2AE179B1B78282B2DD11AAA9A49E5
:10EB400017A823F035F9052826D11B9BDDF868A00E
:10EB500043F0FF4B4BF4E00BA2E60A2101FB0E2E23
:10EB6000AEF1300EB9E76E2ADBE7904917A823F023
:10EB70000BF900283FF4B0AE179B17A88C49013B56
:10EB8000179323F001F910B9179B01331793DFF89E
:10EB900030B24FF0000A83E686481DF045FD8246FC
:10EBA0008B467DE6059B002F08BF2F46102D07984A
:10EBB000A6EB0303A846A8BF4FF010080693FDF785
:10EBC00081FD092D82468B4613DD7B4B03EBC80389
:10EBD00053E91223FDF7F0FD82468B464846FDF7C8
:10EBE00071FD02460B4650465946FDF72FFC824602
:10EBF0008B460F2D36DC069B002B3FF451AE22DDF9
:10EC0000162B09DC6C49524601EBC3015B46D1E986
:10EC10000001FDF7D1FDC2E7C5F12503069A934235
:10EC200020DBC5F10F05644C52465B4604EBC50181
:10EC3000D1E90001FDF7C0FD069B5D1B04EBC50497
:10EC4000D4E90023E5E7069B16330BDB059B504612
:10EC500059469E1B584B03EBC606D6E90023FDF729
:10EC6000D5FE9CE7A5EB0803069A03EB0208B8F172
:10EC7000000F74DD18F00F030AD04F49524601EB24
:10EC8000C3015B46D1E90001FDF796FD82468B4644
:10EC900038F00F084FD0B8F59A7F22DD0025A9463D
:10ECA000079505952223DFF818B14FF0000A23607D
:10ECB000079B002B3FF4F4AD189920461CF038FD5B
:10ECC000059920461CF034FD494620461CF030FDD5
:10ECD000079920461CF02CFD294620461CF028FDF3
:10ECE000DEE5364B4FEA2818504659460493002378
:10ECF0009946B8F1010F21DC0BB182468B462F4BB0
:10ED0000ABF1547B524603EBC9095B46D9E90001DC
:10ED1000FDF752FD2A4B0A4682460B4029498B4299
:10ED2000BCD8A1F580118B4286BFDFF89CB04FF0B4
:10ED3000FF3A02F1547B0023049384E018F0010FA2
:10ED400005D0049BD3E90023FDF736FD0123049A87
:10ED500009F101094FEA680808320492C9E7EAD0CC
:10ED6000C8F1000818F00F020AD0134B504659465C
:10ED700003EBC203D3E90023FDF748FE82468B462E
:10ED80005FEA2818D7D0B8F11F0F1FDD0025A9466C
:10ED90000795059522234FF0000A4FF0000B2360E2
:10EDA00086E700BF2CC00400E835040024C004003E
:10EDB00054C00400F3530400982A0400702A04008D
:10EDC0000000F07F0000A07CFFFFEF7F18F0100331
:10EDD00050465946DFF8A89318BF6A2304930023CE
:10EDE00018F0010F04D0D9E90023FDF7E5FC012359
:10EDF0005FEA680809F10809F2D10BB182468B4637
:10EE0000049BC3B1CBF30A525946C2F16B03002BEA
:10EE100011DD1F2B40F32081342B4FF0000ADBBFA4
:10EE2000C2F14B024FF0FF334FF05C7B03FA02F26A
:10EE3000D8BF02EA010B0022002350465946FDF7D5
:10EE400023FF0028A2D1079B3A4608992046009349
:10EE50002B461CF0D7FC079000283FF41FAF059B02
:10EE600000259E1B069BA946002BB4BF33460023FA
:10EE70000C93069B23EAE3731293079B2046596881
:10EE80001CF016FC059000283FF40CAF079B0C30DB
:10EE90001A6903F10C010232920022F092FB1AABC4
:10EEA00052462046019319AB00935B461CF082FF4B
:10EEB00018904BEC18AB00283FF4F4AE012120462B
:10EEC0001CF0EAFC814600283FF4ECAE199E1A9A29
:10EED000002EA9BF0C9B129B06EB0308129FB8BF24
:10EEE0009F1B049BB8BFDDF83080F61A9F4B164479
:10EEF000C2F13602013E9E4280F2C1809B1B01217D
:10EF00001F2BA2EB030200F3AE8001FA03F30D9373
:10EF10000023089308EB0206049B1744B0451F44E6
:10EF20004346A8BF3346BB42A8BF3B46002BC2BFE7
:10EF3000F61AFF1AA8EB03080C9B002B17DD4946B5
:10EF40001A4620461CF066FD814600283FF4AAAE12
:10EF50000146189A20461CF0B5FC0B9000283FF49F
:10EF6000A1AE189920461CF0E3FB0B9B1893002ED2
:10EF700000F38A80069B002B08DD129A2046059933
:10EF80001CF048FD059000283FF48CAE002F08DDF2
:10EF90003A46059920461CF097FD059000283FF45D
:10EFA00081AEB8F1000F08DD4946424620461CF00C
:10EFB0008BFD814600283FF475AE059A20461899CE
:10EFC0001CF0F2FD054600283FF46CAEC3684946CC
:10EFD0000B930023C36023F027F800285EDA0B9B15
:10EFE00053EA0A0340F08280CBF31303002B7DD158
:10EFF0002BF000431B0D1B05B3F1D66F76D96B695F
:10F0000013B92B69012B71DD2946012220461CF022
:10F010005BFD4946054623F007F8002866DD0499A4
:10F020005B46534A002900F0828002EA0B01B1F1ED
:10F03000D66F7CDCB1F15C7F7FF7ACAE4D4B5046B8
:10F0400059460022FDF7B8FB0B4682468B46034328
:10F0500004BF222323602FE64FF0FF3202FA03F3AE
:10F0600003EA0A0AE7E6C6F17F460D9106F57F0638
:10F0700006F57B46E23601FA06F308934AE70023D9
:10F08000089301230D9345E73246189920461CF05A
:10F090001BFD189000287FF46DAF03E6D84671D1B0
:10F0A0000B9ACBF3130352B3334A93422AD1049BF6
:10F0B0005146FBB12E4B4FF0FF320BEA0303B3F185
:10F0C000D46F1AD81B0DC3F16B0302FA03F39942F4
:10F0D00018D12A4B984502D101313FF4E3AD244BBE
:10F0E0004FF0000A08EA030303F5801B049B002B82
:10F0F000A4D1E1E54FF0FF33E9E71346E7E753EA30
:10F100000A038CD0089BE3B113EA080FEED00B9BE7
:10F110005046049A5946C3B122F0A3FC02460B465E
:10F1200051EC180BFDF792F982468B46DEE713404F
:10F130004FF0FF3AA3F580136FEA135B6FEA0B5BA6
:10F14000D4E70D9B13EA0A0FE0E722F08AFC02469F
:10F150000B4651EC180BFDF777F90022002382468D
:10F160008B46FDF791FD0028C0D013E602FCFFFF9F
:10F170000000F07F00005039FFFF0F00FFFFEF7F1E
:10F18000482A04004946284622F06AFF00224FF030
:10F19000804306460F46FDF78BFD002879D00B9B78
:10F1A000002B4BD00022924B0026914FCDE9082333
:10F1B000904B08EA03030D930D9A8F4B9A4240F04F
:10F1C000B080A8F1547B50469DED087B5946B0EEC7
:10F1D000479AF0EE679A1CF077FD02460B4651EC19
:10F1E000190BFDF7E9FA52465B46FDF72FF90B467E
:10F1F00080498246814A194091425ED918EE903A80
:10F2000002F15472934204D118EE103A01333FF4E4
:10F2100049ADDFF8F4B14FF0FF3A189920461CF0E1
:10F2200087FA059920461CF083FA494620461CF0CF
:10F230007FFA294620461CF07BFA1EE6BAF1000F41
:10F240001AD1CBF31303F3B90022694B3046394688
:10F25000FDF724FDD0B9304639460022684BFDF752
:10F26000ABFA06460F4607F1004314961593DDE905
:10F270001423CDE908239BE7BAF1010F03D1BBF1B9
:10F28000000F3FF487AD00225E4B8DE700265C4FF8
:10F29000E9E75B4B304639460022FDF78DFA0B9BC0
:10F2A00006460F4633B901F100430E900F93DDE996
:10F2B0000E23DEE7CDE90E67F9E703F1547B049BEB
:10F2C000002BAAD12BF000430D9A1B0D1B059A426F
:10F2D000A3D130463946FDF73FFEFDF73FFA02461F
:10F2E0000B4630463946FDF7AFF8CBF313030B9AC4
:10F2F000064643EA0A030F46134351D034A3D3E929
:10F300000023FDF7CBFC00287FF4D6AC304639460D
:10F3100031A3D3E90023FDF7DFFC00283FF47DAFE4
:10F32000CAE4049B33B30D9BB3F1D46F22D83046AB
:10F3300039462BA3D3E90023FDF7BAFCA0B1394627
:10F340003046FDF711FD012838BF0120FDF7BAF95D
:10F350000B9B06460F4603BB01F10043109011932F
:10F36000DDE91023CDE90823099B0D9A03F1D6634B
:10F370009B1A0993DDE908AB51EC180B1CF0A4FCB7
:10F3800002460B4650465946FDF716FA53EC182B29
:10F39000FDF75CF882468B4691E7CDE91067DFE721
:10F3A00011A3D3E90023FDF779FCB6E700230A9304
:10F3B000179B139A1360FFF777BA652A3FF469AB7E
:10F3C000452A3FF466AB0123FFF79EBBAFF30080F5
:10F3D0009535A094FFFFDF3F35E5AF350000E03FF6
:10F3E0000000C0FFFFFFDF419535A094FFFFCF3F36
:10F3F0000000F03F0000F07F0000E07FFFFF9F7CF7
:10F400000000E03F0000F0BFFFFFEF7F00000000C2
:10F410002DE9F04F456A044616461F4692469B4624
:10F420002DED048B93B0DDF88C8075B910201AF0A7
:10F4300051FC0246606220B9A74BEA21A7481AF0A6
:10F440006DFBC0E901550560C560636A196851B17B
:10F450005A680123204693404A608B601CF068F98B
:10F46000636A00221A603B1EADBF0023012223F015
:10F47000004BC8F800309A4BB8BFC8F8002033EAF8
:10F480000B031BD142F20F73229A1360CBF31303C9
:10F49000334300F08F85249B63B9924B22E0924B5B
:10F4A00004930833249A1360049813B0BDEC048BC2
:10F4B000BDE8F08F8B4B04930333F3E70022002366
:10F4C00050465946FDF7E0FB80464BEC19AB58B16E
:10F4D0000123229A1360249B002B00F06885834847
:10F4E0001860431E0493DFE710ABCBF30A55524676
:10F4F0002046019311AB00935B461CF05BFC08EEC9
:10F50000100A002D00F0828019EE903A5646A5F2BE
:10F51000FF35CDF83880C3F3130343F07F5747F42A
:10F5200040170022724B30463946FCF78DFF64A32A
:10F53000D3E90023FDF740F963A3D3E90023FCF7E7
:10F5400085FF06460F462846FDF7CCF860A3D3E9B1
:10F550000023FDF731F902460B4630463946FCF7E9
:10F5600075FF06460F46FDF7D7FB002203900023E8
:10F5700030463946FDF792FB50B10398FDF7B2F8DB
:10F5800032463B46FDF780FB10B9039B013B0393DA
:10F59000039B162B59D8039A564B03EBC20351EC2D
:10F5A000190BD3E90023FDF779FB00284FD0039B0B
:10F5B000013B039300230C93109B5D1B6B1E089370
:10F5C00049BFC5F1010300230793002354BF0793EC
:10F5D0000893039B002B3CDB089B039A13440B927C
:10F5E000089300230993209B092B00F28780052BA9
:10F5F000C5BF043B002501252093209B023B032B24
:10F6000000F28780DFE803F02E3B395ADDE9105322
:10F610001D4405F23243202BC6BFC3F1400305F25F
:10F620001240C3F1200305F1FF35C5BF0BFA03F308
:10F6300026FA00F006FA03F01843FDF743F8012319
:10F640000646A1F1F8770E936BE70123B3E70C9020
:10F65000B2E7079B039A9B1A07935342099300232F
:10F660000B93C0E700230A93219B002B54DC01235A
:10F670001A46CDE9053321920CE00123F3E700237C
:10F68000219A0A93039B134405930133012B06939C
:10F69000B8BF01230022606A4260042202F114060E
:10F6A00041689E423CD920461CF002F80490002894
:10F6B0003AD1114B02464FF4D571BFE60123DFE783
:10F6C00061436F63A787D23FB3C8608B288AC63F68
:10F6D000FB799F501344D33F5EC0040075C0040003
:10F6E0000000F07F5AC0040051C00400BD5C04005B
:10F6F0000000F83F982A0400E9C004000125002317
:10F700000A9520934FF0FF330022CDE905331223F1
:10F71000B1E701230A93F5E7219BCDE90533B9E76A
:10F72000013152004160B9E7636A049A1A60069B8E
:10F730000E2B00F29D80002D00F09A80039B002B81
:10F7400032DD03F00F03B64A02EBC303D3E90089AD
:10F75000039BD8054FEA231716D5B24B07F00F07C6
:10F760000325D3E9082351EC190BFDF74FF9824625
:10F770008B46AC4E57B942464B4650465946FDF76C
:10F7800045F982468B4628E00225F2E7F90708D5BD
:10F79000404649460135D6E90023FDF70DF880467D
:10F7A00089467F100836E5E700F09B80039B022521
:10F7B0009C4F5E429A4B06F00F02361103EBC203D8
:10F7C00051EC190BD3E90023FCF7F6FF0023824626
:10F7D0008B46002E7AD1002BD3D10C9B002B00F04E
:10F7E00082800022904B50465946FDF757FA002878
:10F7F00079D0069B002B76D0059B002B36DD039B32
:10F800005046594600225F1E884BFCF7D5FF013554
:10F8100082468B46059E2846D046FCF763FF52463B
:10F820005B46D946FCF7C8FF0022814BFCF70EFE71
:10F830008246A1F1507B002E58D100227D4B4046DC
:10F840004946FCF701FE52465B4680468946FDF775
:10F8500043FA002840F0938252460BF100434046A1
:10F860004946FDF71BFA002840F087825BEC19AB94
:10F87000119B002BC0F24881039A0E2A00F34481A9
:10F88000674B03EBC203D3E90089219B002B80F275
:10F89000D580069B002B00F3D18040F06D820022C2
:10F8A000644B40464946FCF787FF52465B46FDF7EE
:10F8B00009FA069E3746002840F043823123049D12
:10F8C00005F8013B039B013303933EE2F20705D5A4
:10F8D0000135D7E90023FCF76FFF012376100837C5
:10F8E00077E7022579E7039F069E94E704994C4B3E
:10F8F000314403EBC6030D910A9953E90223002911
:10F9000043D000204C49FDF781F852465B46FCF796
:10F910009BFD049D82468B4649464046FDF7FCF917
:10F920000646FCF7DFFE024630360B4640464946A7
:10F93000FCF78AFD52465B4605F8016B8046894616
:10F94000FDF7ACF9002863D142464B46002036490A
:10F95000FCF77AFD52465B46FDF7A0F9002840F01F
:10F96000B5800D9B9D4281D00022304B50465946B8
:10F97000FCF722FF002282468B46404649462B4B2D
:10F98000FCF71AFF80468946C6E750465946FCF701
:10F9900013FF0D9B82468B46049D0F9349464046BC
:10F9A000FDF7BAF90646FCF79DFE02460B464046B7
:10F9B00049463036FCF748FD0D9B05F8016B804643
:10F9C0009D4289464FF0000224D11B4B50465946B8
:10F9D000FCF73CFD02460B4640464946FDF77CF9E4
:10F9E000002873D152465B4600201349FCF72CFDDA
:10F9F00002460B4640464946FDF750F900283FF4C1
:10FA000035AF0F9D6B1E0F9315F8013C302BF8D0CE
:10FA1000039749E0054BFCF7CFFE80468946BDE7DA
:10FA2000982A0400702A04000000F03F00002440DF
:10FA300000001C40000014400000E03F56465F46B6
:10FA4000049D42464B4630463946FCF7DFFFFDF742
:10FA500063F98246FCF746FE42464B46FCF7ACFE95
:10FA6000024630460AF130060B463946FCF7ECFCFC
:10FA700005F8016B049E0246069F0B46AE1BB7427B
:10FA800035D1FCF7E3FC42464B4606460F46FDF7F0
:10FA900023F9D0B942464B4630463946FDF7F4F8D3
:10FAA00010B11AF0010F10D1204618EE101A1BF0F9
:10FAB0003FFE002303982B700130229B1860249B8B
:10FAC000002B3FF4F1AC1D60EEE4039F2B461D4676
:10FAD00013F8012D392A06D1049A9A42F7D130221F
:10FAE000049901370A701A7801321A7090E70022DF
:10FAF000A44BFCF761FE0022002306460F46FDF7EB
:10FB0000C3F800289DD0CFE70A9A002A00F0D580DC
:10FB1000209A012A00F3B9800E9A002A00F0B180E1
:10FB200003F23343099E079D079A012120461A4498
:10FB30000792089A1A4408921BF0AEFE0746002D61
:10FB40000CDD089B002B09DDAB42079AA8BF2B46B2
:10FB5000D21AED1A0792089AD31A0893099B1BB37D
:10FB60000A9B002B00F0AD80002E13DD3946324693
:10FB700020461BF04FFF18EE102A0146074620468C
:10FB80001BF0A0FE804618EE101A204608EE108AE0
:10FB90001BF0CEFD099B9A1B06D018EE101A2046CA
:10FBA0001BF038FF08EE100A012120461BF074FEFE
:10FBB0000B9B0646002B40F386801A4601462046E2
:10FBC0001BF028FF209B0646012B7FDD4FF000082D
:10FBD000336906EB8303186922F0D7F9C0F12000DE
:10FBE000089B184410F01F0000F09180C0F1200322
:10FBF000042B40F38980C0F11C00079B054403449B
:10FC00000793089B03440893079B002B07DD18EE1E
:10FC1000101A1A4620461BF057FF08EE100A089BE0
:10FC2000002B05DD31461A4620461BF04DFF0646E7
:10FC30000C9B002B6DD0314618EE100A22F0F4F91F
:10FC4000002866DA039B18EE101A0A222046013BB0
:10FC5000039300231BF08EFD0A9B08EE100A002B75
:10FC600000F0AF81002339460A2220461BF082FDB6
:10FC7000059B0746002B00F38D80209B022B50DC58
:10FC800088E0109BC3F136034CE7069B5E1E099B80
:10FC9000B342B7BF099B9E1B0996F21ABFBF0B9BCD
:10FCA00000269B180B93069B002BB7BFDDE90623AC
:10FCB000DDE906359D1A002336E7099E079D0A9F58
:10FCC0003DE7099A69E7209B012B18DCBAF1000F88
:10FCD00015D1CBF3130393B92BF000431B0D1B0578
:10FCE00083B1079B4FF0010801330793089B013351
:10FCF00008930B9B002B7FF46BAF012070E74FF054
:10FD00000008F6E79846F4E73FF47EAF18461C304B
:10FD100073E7069B002B37DC209B022B34DD069B10
:10FD20000593059B6BB93146052220461BF022FD49
:10FD30000146064618EE100A22F076F900283FF731
:10FD4000BDAD219B049DDB4303934FF0000831467A
:10FD500020461BF0EDFC002F3FF4A6AEB8F1000FDB
:10FD600005D0B84503D0414620461BF0E1FC39469A
:10FD700020461BF0DDFC97E600263746E1E70397B7
:10FD800037469BE5000024400A9B002B00F0CA8008
:10FD9000069B0593002D05DD39462A4620461BF0BB
:10FDA00093FE0746B8F1000F5BD0796820461BF040
:10FDB0007FFC054628B9874B024640F2EA21FFF74F
:10FDC0003DBB3A6907F10C010C300232920021F080
:10FDD000F8FB0122294620461BF076FE049BB8461C
:10FDE000074603F10109DDE90423134408930AF0EF
:10FDF00001030793314618EE100A21F089FE4146AF
:10FE0000059000F1300A18EE100A09F1FF3B22F0CC
:10FE10000BF93A460690314620461BF0C5FEC268F3
:10FE2000054602BB014618EE100A22F0FDF8024614
:10FE30002946204609921BF07BFC209B4D46099ADF
:10FE400043EA0201079B0B430FD1BAF1390F2AD0C5
:10FE5000069B002B02DD059B03F1310A8BF800A005
:10FE600075E73846BAE70122E2E7069B002B04DB80
:10FE700020990B4307990B4322D1002AEEDD18EE9F
:10FE8000101A012220461BF01FFE314608EE100A10
:10FE900022F0CAF8002803DCE0D11AF0010FDDD00F
:10FEA000BAF1390FD7D139238BF800302B461D46D4
:10FEB000013B15F8012C392A70D001321A7046E73F
:10FEC000002A07DDBAF1390FEDD00AF101038BF8F2
:10FED00000303CE7089B09F801AC994546D018EE84
:10FEE000101A00230A2220461BF044FCB84508EEF5
:10FEF000100A4FF000034FF00A024146204606D197
:10FF00001BF038FC8046074609F1010972E71BF037
:10FF100031FC3946804600230A2220461BF02AFC89
:10FF20000746F1E7069B0593049D314618EE100A3B
:10FF300021F0EEFD049B00F1300A05F801ABEA1A4E
:10FF4000059B934209DD18EE101A00230A22204671
:10FF50001BF010FC08EE100AE7E7059B4FF00008C5
:10FF6000002BCCBF1D460125049B1D4418EE101A22
:10FF7000012220461BF0A8FD314608EE100A22F0AF
:10FF800053F8002892DC02D11AF0010F8ED12B46D3
:10FF90001D4613F8012D302AFAD0D8E6049A9A4269
:10FFA00085D1039B0133039331231370CFE60A4BB2
:10FFB000FFF798BA249B002B7FF471AA074BFFF739
:10FFC00091BA059B002BAFDC209B022B3FF7A9AE1B
:10FFD000AAE700BFE9C00400BC5C040051C00400F3
:10FFE000492101481CF073BEC436040037B50546EC
:10FFF000684608F043FE30B12A46452118481CF0F7
:020000040002F8
:1000000066FE002408E012F0F7F82A46044630B9EC
:10001000452114481CF05BFE204603B030BD124958
:100020001FF01DFF40B92A46452110481CF04FFE25
:10003000204612F01FF8E4E720460D4A0D491FF054
:100040000EFF0028EFD0DDE90001FCF787FB024638
:100050000B46204608491FF0D6FE0028DCD1E2E717
:100060002137040060370400B2370400B8370400B9
:10007000FE370400033804000F38040084B02DE973
:10008000F04F2DED028B99B024AC84E80F00DDE930
:1000900028459DF890802A98FCF736FBDDE9266715
:1000A000B8F1010F00F0AB80B8F1020F00F0A980A9
:1000B000594B5A4AB8F1030F18BF1346CDE9020154
:1000C000049332463B464921CDE9004554481CF093
:1000D000FEFDB8F1020F40F08B80492151481CF021
:1000E000F6FD3046394621F043FAFEF715FBFCF7E2
:1000F00013FE29468246204621F03AFAFEF70CFB11
:10010000FCF70AFE39468346304621F031FA804634
:1001100050468946FCF7E6FA02460B4640464946F9
:10012000FCF792F90022404BFCF746FB41EC180B20
:100130002046294621F01CFA804658468946FCF79D
:10014000D1FA02460B4640464946FCF77DF90022AB
:10015000354BFCF731FB00228046894630460023B0
:100160003946FCF7B9FD0023002829464FF000026C
:10017000204614BF4E265326FCF7AEFD002814BFC0
:1001800045235723294A322106938DED008B534690
:10019000CDE90489CDE9026B0BA81AF00FFB0BA87F
:1001A000FDF74FF80BABC0F132011D180DF12D001A
:1001B0000991FDF746F80022134609990BAC9042CD
:1001C00004F101041FDC1A4A28461AF0F7FA19480C
:1001D000FFF70CFF044658B117490BAA1FF03FFE6A
:1001E000A8B9452115481CF072FD204611F042FFC8
:1001F00019B0BDEC028BBDE8F04F04B07047104B56
:100200005CE7104B5AE7267801327340D7E7204667
:1002100000F040FAE9E700BF203804002538040068
:100220002D3804007338040000004E40A638040046
:10023000D3380400F88B0400DA380400DF380400F7
:10024000123804001B38040037B50546CDE90023F9
:10025000FFF7CCFE0446A0B1DDE900230A491FF0F8
:10026000D2FD50B92A46452108481CF030FD2046F1
:1002700003B0BDE8304011F0FDBE204600F00AFAA0
:10028000F5E703B030BD00BFDA38040016390400CA
:100290002DE9F0418CB02C4815F0A4FE492104460C
:1002A0002A481CF014FD4FF41600002100F0AEF8AF
:1002B000002845D1572126481CF009FD3C2125483E
:1002C00000F046FB4FF0FF364FF0FF37224DDFF8CE
:1002D000A0804FF4403228460023CDE9006718F093
:1002E000DBFE204606A91CF0F2F968B9BDF8201023
:1002F00040461AF033FABDF82000FCF7E3F9024655
:100300000B461648FFF7A0FF204602A900F062FB4B
:1003100090B9DDE904231248CDE90023DDE9022389
:100320001AF01CFADDE902230E48FFF78DFFDDE924
:1003300004230D48FFF788FF284618F0FFFEC8E7A2
:1003400049210A48B8E700BFF353040051390400BB
:100350008B3904007D000200304E0120FA39040080
:10036000003A0400103A0400153A0400C8390400A9
:10037000EE390400492108B510481CF0A8FC002102
:100380004FF4202018F0D0F90BF0F2F910F1100F13
:10039000024604D145210A481CF099FC04E048B10A
:1003A000452108481CF093FCBDE8084000210648A0
:1003B00021F067B849210548EEE700BF2A3A04005A
:1003C0004D3A0400AC3A0400F0500120FD3A04001C
:1003D00008B51FF0CDF928B1BDE808400221024858
:1003E00021F04CB808BD00BFF050012007B5002235
:1003F000CDE900010221044821F04CF8003818BF73
:10040000012003B05DF804FB0051012007B5002274
:10041000CDE900010221044821F036F8003818BF68
:10042000012003B05DF804FBF050012037B505460C
:100430000C46FFF7DBFF48B100220421CDE9005450
:10044000034821F021F8031F5842584103B030BD42
:10045000F050012007B5002200230221CDE900233E
:10046000044821F011F8003818BF012003B05DF8EE
:1004700004FB00BFF05001201021014820F0FEBF16
:10048000F050012007B50378013B0A2B34D8DFE890
:1004900003F006330D132527333320332E000221BA
:1004A000174803B05DF804EB20F0E8BF4921154878
:1004B0001CF00DFC0821F3E7002200230821CDE900
:1004C00000230F4820F0E0FFB0B149210E481CF096
:1004D000FEFB03B05DF804EBFFF7CEBF0421DFE7BE
:1004E000D0E9021003B05DF804EB00F00DBA03B0E0
:1004F0005DF804EB00F0BCB903B05DF804FB00BF8D
:10050000F0500120253B0400703B040007B5002299
:10051000CDE900011021044820F0B6FF003818BFD3
:10052000012003B05DF804FBF050012007B5002264
:1005300000231021CDE90023044820F0A5FF003856
:1005400018BF012003B05DF804FB00BFF05001208C
:1005500008B50178D9B9037A03F0FB03012B10D059
:100560000B4820F08EFFFFF775FF80B1FFF7DEFF2D
:1005700068B9492107481CF0AAFBBDE80840FFF70D
:100580007BBF0221BDE80840014820F077BF08BDCD
:1005900000510120A03B04001FB50190FCF751FE63
:1005A000013020F084FF0199039040B945210D48A6
:1005B0001CF08DFB6FF00B0005B05DF804FB21F023
:1005C000EBF900220023084803A916F0E9F80028F7
:1005D000F2D0452105481CF07AFB039820F060FF1B
:1005E000E8E700BFDE3B0400CC4F0120113C0400D3
:1005F00030B587B04FF0FF324FF0FF33214801A9EB
:1006000016F05EF9044640B1024645211E481CF032
:100610005EFB6442204607B030BD4FF0FF314FF023
:10062000FF30FFF703FF2146102202A820F0E9FF68
:100630000198FCF706FE019B029003934FF481732F
:1006400002A8ADF810300BF0BDF9104D0446B8B15A
:10065000024645210E481CF03AFB0198FFF79CFF2B
:100660002B680133052B2B6006DDFFF705FF4FF4E8
:10067000A020002118F058F8019820F011FFC9E7D8
:100680002860F9E7CC4F01204E3C040098900120EF
:10069000923C040038B538B945210C481CF017FBD2
:1006A0006FF01504204638BD1FF032FB054630B907
:1006B000452107481CF00BFB6FF00B04F2E7FFF736
:1006C0006BFF0446284620F0EBFEEBE71D3D0400DF
:1006D000493D0400F0B5492189B050481CF0F7FAB3
:1006E00049214F481CF0F3FA4E481FF043F807F039
:1006F0002FF9024650B145214B481CF0E8FA45213C
:100700004A481CF0E4FA4A4D4A4C40E049214A4824
:100710001CF0DDFA49481EF065FF02460028F2D0C1
:1007200045214748E9E7452146481CF0D0FA4921D0
:10073000454823E045481CF0CAFA06238DF80830E6
:1007400003238DF80C30002302AA049203AACDE9FA
:1007500005238DF80D3006A804AB07930BF0ACF918
:10076000024618B145213A481CF0B1FA4FF0FF316A
:100770004FF0FF30FFF7CAFE492136481CF0A7FAB8
:10078000FFF7F8FD4FF42030002117F0CDFF49218D
:1007900028461CF09CFA4FF0FF314FF0FF30FFF776
:1007A00025FE492120461CF092FA49212A481CF0D6
:1007B0008EFA00230793294B06A806930AF0A6FF9A
:1007C00002460028AFD1264E264F1E224921304630
:1007D0001CF07DFA00200BF021F8024618B14521EB
:1007E00038461CF074FA4FF470200021FFF70EFE1B
:1007F0000028EAD04FF0967200231421CDE900239F
:100800001948002220F040FE04284FF0490191D001
:1008100016481CF05CFAFFF7ADFD88E7863D040042
:10082000C73D0400D1030200DB3D04001640040074
:10083000663E0400943E04000D3E04005105020093
:10084000383E0400CF3E0400F23F0400863F04001F
:10085000A23F0400D13F0400B23E04008504020020
:10086000023F04002B3F0400F0500120493F0400E8
:100870000348572108B51CF02AFA012000F0DEFEDB
:100880006F400400F0B503780446012B87B00FD108
:10089000084B1F6867B16D4600F118060FCE0FC5F3
:1008A00096E8030085E8030004F108000FC8B84784
:1008B00007B0F0BD9C90012008B5C8B90D48FCF701
:1008C000C0FC38B10B490C4814F03AFC10B10B488D
:1008D0001BF0E0FF0A48FCF7B4FC48B108490648A1
:1008E00014F02EFC20B1BDE8084006481BF0D2BF32
:1008F00008BD00BF8E400400DBA404009E7C040001
:10090000AD400400C67C040038B504460D460CF02A
:10091000BBF90246B0B110F14D0F03D057210A4880
:100920001CF0D5F9294620460DF02AFE024648B1B2
:1009300020F002034F3305D0BDE83840572103486B
:100940001CF0C5B938BD00BFC5400400F24004002A
:1009500030B58BB004460D461EF00AFF18B957217A
:1009600016481CF0B4F9164B16481C6008F062FDDE
:10097000044638B14521024613481CF0A8F9204628
:100980000BB030BD114B02211B8801AA02A8ADF8A3
:10099000043008F05FFD2823ADF80C30012302A8D5
:1009A000ADF822508DF80E3008F088FD044600287E
:1009B000E5D0024645210648DFE700BF1F4104009D
:1009C0009C9001208508020060410400302A040048
:1009D00099410400F0B52DED028B002387B00193FF
:1009E000ADF80830FD2301258DF8003002230446C0
:1009F0000E46CDF80CD004958DF81430836803A909
:100A00009F682A464423B847014638B12B4819F05D
:100A1000A5FE284607B0BDEC028BF0BD00214FF4C7
:100A2000A47017F081FE01AB039306230493032304
:100A30008DF81430A36820469F682A46442303A9F2
:100A4000B847044610B101461D48E0E79DF807206D
:100A50009DF808309FED1B7A03EB022307EE903AD6
:100A60009DF804209DF80530B8EEE78A03EB0223D9
:100A700007EE903AF8EEE77ADFED138A67EE877AB1
:100A800087EEA87ADFED117A77EE677A17EE900A93
:100A9000FBF73AFEDFED0E7A68EE277A87EEA87A4A
:100AA000F1EE087A77EE677AC6E9000117EE900A50
:100AB000FBF72AFEC6E902012046ABE7D741040056
:100AC0000442040000002F4300FF7F47000034422F
:100AD0000000FA4230B50A4C0A44914200D130BDC0
:100AE00011F8013B58400309E35C83EA0013DDB2CF
:100AF000C3F30313E05C80EA0510C0B2EDE700BF6A
:100B000030420400032808B506D91CF01FFF092352
:100B100003604FF0FF3008BD044B03EB401008307A
:100B2000D0E8AF3F002BF0D00020F4E7A0900120E8
:100B300070B504460D461646FFF7E4FF002809DBB2
:100B4000064B600145B11A185268AA4204D01CF045
:100B5000FDFE0660002000E0185870BDA090012046
:100B600070B504460E461546FFF7CCFF00280CDB97
:100B7000074B610103EB4414626832601DB101F15F
:100B80000C021A442A60585870BD0020FCE700BFD0
:100B9000A090012010B500244FF0FF324FF0FF333A
:100BA000144815F023FF144A6301D2E8AF1F79B14E
:100BB0000134042C02F12002F6D11CF0C7FE1723E9
:100BC0004FF0FF3403600B4815F0E2FF204610BDE4
:100BD000D2E8EF0F0130C2E8EC0FBCF1000FF7D103
:100BE0000648C218C15051600C33184420F0BFFAB7
:100BF000E9E700BF184F0120A8900120A090012034
:100C000010B4044610460A4B620103EB4414995099
:100C1000606048B1C4683CB10C3213445DF8044BC9
:100C200040F205121BF0AEBD5DF8044B704700BFEB
:100C3000A090012030B50D49400100F108030B449C
:100C4000D3E8AF2F82B1541ED3E8EF5F954204D1B1
:100C5000C3E8EC4FBCF1000FF6D1F1D1012A01BF7E
:100C600000230A180B50536030BD00BFA090012034
:100C7000436870B503F00303022B04460E468160FF
:100C800010D0032B04D0012B0FD10025284601E002
:100C9000056800200023636010B1314618F018FD8C
:100CA000284670BD00250068F4E745220449054840
:100CB0001BF0D3FF452102481BF0C8FF0025E8E7E1
:100CC00040420400634204000B6801330B60014B97
:100CD0001B681847C8450120014B1860704700BFCA
:100CE000C845012007B50B46002102460191034883
:100CF00001A9FCF7B1FA03B05DF804FBC90C0200CE
:100D000030B5002585B0CDE90101044601A90548AB
:100D10000395FCF7A1FADDE902309842B8BF2554EB
:100D200005B030BD6FC803002DE9F04F2DED028BEB
:100D3000B0F81C9083B019F0080F044601921FD040
:100D400001290CBF49F0100949F02009A0F81C90B6
:100D500004F1140015F0DEFC40B99B499B48B92210
:100D60001BF07BFFB92198481BF070FF019B83F3B8
:100D70001188BFF36F8F03B0BDEC028BBDE8F08F1D
:100D8000934FDFF84882DFF840A209F007090229F3
:100D900006D120461BF098FD0028D9D0012867D144
:100DA000D4F818B0A38BBBF1000F1CDA002625681D
:100DB00023F00703C4E9006643F00103A383009610
:100DC000A38B03F007024A4508EE102A03D0A2685D
:100DD000002A40F0FF801DB9009A002A00F03F81F0
:100DE0004FF00009F8E003F00702511F012921D854
:100DF000002123F00703062A25689BB2C4E90011ED
:100E00000AD13DB12946E28B0968013292B200292C
:100E1000FAD1E28343F002032046A3831BF054FD82
:100E2000002800F0CC80A38B43F02003A383002391
:100E30000093C5E7042A0FD123F007039AB2204696
:100E4000A2831BF041FD002800F0BB8042F020028D
:100E5000A28300250095B3E73946404640F21B12B5
:100E60001BF0FBFE40F21B1138461BF0EFFEF0E7D3
:100E7000032832D1B9F1000F0AD0394640464FF469
:100E8000AB721BF0EAFE4FF4AB7138461BF0DEFE8E
:100E9000236853B93946404640F257121BF0DDFE35
:100EA00040F2571138461BF0D1FE23691B680093AE
:100EB00053B9394640464FF4AD721BF0CEFE4FF4A5
:100EC000AD7138461BF0C2FEA38B23F0070343F03D
:100ED00006030025A383AB4672E704282FD1B9F19E
:100EE000020F0AD03946404640F25D121BF0B5FEB3
:100EF00040F25D1138461BF0A9FEE38B53B1394631
:100F000040464FF4AF721BF0A8FE4FF4AF71384665
:100F10001BF09CFE23695B68009353B93946404639
:100F200040F261121BF099FE40F2611138461BF04D
:100F30008DFEA38B23F0070343F00403C9E70528C4
:100F40002FD1B9F1010F0AD0394640464FF4B272A1
:100F50001BF083FE4FF4B27138461BF077FE236816
:100F600053B93946404640F265121BF076FE40F216
:100F7000651138461BF06AFE23699B68009353B9DC
:100F8000394640464FF4B4721BF067FE4FF4B4711B
:100F900038461BF05BFEA38B23F0070343F00503E9
:100FA00097E7002540F26B12394640461BF055FE8C
:100FB00040F26B1138461BF049FE00958BE700901C
:100FC000FEE6054646E700BF9D420400634204007A
:100FD0007B4204004FF0010943F00803A38304F1AE
:100FE0001403184608EE903A15F094FB40B95146A8
:100FF0004046B9221BF031FEB92150461BF026FEB7
:10100000019B83F31188BFF36F8FB9F1000F35D1C6
:10101000002D46D1009B13B120462A4998474FF036
:101020002003EFF3118B83F31288BFF36F8F18EE59
:10103000900ACDF804B015F05FFB40B95146404628
:101040008E221BF00AFE8E2150461BF0FFFD18EE8B
:10105000900A15F06FFBA38B23F00803A383A38BE7
:10106000DA0627D5012123F01003A383B4F81C90DE
:1010700009F0070900297FF48AAE69E6A168002912
:10108000C6D0D1F800904B6818EE102A1E462046B4
:101090005B46B047B9F1000FBAD04946D9F8009085
:1010A000F1E729465B4618EE102A20462D681BF012
:1010B00027FCADE713F020011EBF23F0200302211F
:1010C000A383D3E7C9100200F8B504460D4600F12A
:1010D00014064FF02003EFF3118783F31288BFF358
:1010E0006F8F304615F008FB40B90A490A488E2236
:1010F0001BF0B3FD8E2107481BF0A8FD304615F00C
:1011000019FB3A462046A5610121BDE8F840FFF7EA
:101110000BBE00BF9D420400634204002DE9F0476E
:1011200004460F461BF002FC051E54DB04F11409B3
:101130004FF02003EFF3118A83F31288BFF36F8F10
:10114000484615F0D9FA40B9334934488E221BF08D
:1011500084FD8E2130481BF079FD484615F0EAFAEF
:101160004FF6FF71E38BA28B8B4202F007064AD049
:10117000022E1FD135464FF001080133E383484664
:1011800015F0C8FA40B924492448B9221BF065FD7E
:10119000B92121481BF05AFD8AF31188BFF36F8FE4
:1011A000B8F1000F17D000233246394620461BF015
:1011B000A7FB10E0930701D0062E0FD100233B6060
:1011C0006368EBB9C4E900773546F6B952460221A7
:1011D0002046FFF7A9FD2846BDE8F087052E17D069
:1011E000012E0AD00E490D4840F2C9121BF035FD00
:1011F00040F2C9110A481BF029FD6FF0040504E014
:101200001F606760E0E76FF00A054FF00008B6E77F
:101210006FF08505F9E700BF9D42040063420400BA
:101220007B4204002DE9F843C36844695F1E40F225
:101230006C730569E1170135E41841F10001022DD5
:101240008CBF00230123E41A61F1000100298046CC
:1012500055DA6FF4C7704FF4C8720023201861F19B
:101260000001FBF7F1FD284B024603FB0044D8E9DF
:1012700000903C23D8F80880C617C8FB0306B44684
:10128000A0FB0306022D8CBF6FF0020E4FF0090E7B
:1012900003FB0C6610EB090C40F26D104FEA94034F
:1012A00000FB04334FF06400B4FBF0F405EB0E00D8
:1012B0004FF0990505FB00F04FF0050500F1020025
:1012C000B0FBF5F03B44A3EB0403104C0344A2FB3A
:1012D000040204FB012146EBE9761B180C480D4A79
:1012E00041F100011B18A3FB020361F1000102FBA5
:1012F000013110EB0C0041EB0601BDE8F8834FF41F
:10130000C87200232046ACE770FEFFFFB13A02002E
:101310009405F5FF8051010070B579B305680C1F85
:10132000641BE60824F007042C446388DB0708D418
:1013300013491448AC221BF090FCAC2110481BF060
:1013400085FC314628461BF01DFB304435F8303013
:10135000C01A864208D00A490A48B4221BF07DFC14
:10136000B42107481BF072FC6388314623F0010367
:1013700028466380BDE870401BF0C3BB70BD00BF52
:10138000CA420400634204004B422DE9F04703EADD
:10139000010731EA0303144606681BD0042F3D46BB
:1013A00028BF0425B946CF1B07F1FF3A1AEA070FF9
:1013B0000AD0324932484FF4A0721BF04EFC4FF471
:1013C000A0712E481BF042FC7CB94FF00009484642
:1013D000BDE8F087042904D8BDE8F04711461BF0AA
:1013E000C2BB4FF000090425DEE7B368B3EBD40FAE
:1013F000EBD904F10B013944491B3046C9081BF0F5
:1014000019FB80460028E0D009F1040505EBC00572
:10141000354455447F422F40A7EB09094C44A9F1BC
:10142000040307349B1B24F00704A41BB0EBD30F69
:101430004FEAD3074FEAE40408D201463A46304661
:101440001BF045FB414630461BF0A1FA39463046B9
:101450001BF098FA3844844208D239463046224676
:101460001BF035FB214630461BF091FA06EBC70610
:10147000738843F001037380A9E700BFCA420400E8
:1014800063420400B2F5802F2DE9F04180460C46FE
:1014900016465FD3364940F2E31236481BF0DDFBB7
:1014A00040F2E31132481BF0D1FB043EE51D264417
:1014B00025F0070526F00706761B172E4FEAD607FC
:1014C0000AD82B492B4840F2F3121BF0C6FB40F21E
:1014D000F31127481BF0BAFBB7FA87F40023C8F8CA
:1014E0000050C4F12008C4F12404A4000734E40827
:1014F000EB60631CBB42AF600AD91D491D484FF425
:1015000001721BF0AAFB4FF4017119481BF09EFBFE
:10151000002205F1100303EB8808984525D16300EC
:1015200043F001036B803B1B05EBC40158002A808C
:101530004880A91925F834404A80AB5305EBC7030E
:101540005A88214642F001022846BDE8F0415A80FF
:101550001BF01DBA042AA8D805494FF4F5720548B6
:101560001BF07BFB4FF4F5719CE743F8042BD4E7A9
:10157000CA42040063420400F0B5024601680A272B
:101580000020074E0C46237801319D5D6D0701D484
:101590001460F0BD07FB0033A3F13000F2E700BF99
:1015A0000EBF04002DE9F84F15469A46D378224A1B
:1015B0006F2B13F802B080460F460BF0030B29D0B7
:1015C00024D8582B14BF0A261026DDF8289032465E
:1015D000002340463946FBF787FC092AD4B21ED8BF
:1015E0003034B045E4B277F1000309F8014D01D37E
:1015F000D14511D82B789B0605D5082E15D1AB788F
:1016000043F00803AB704846BDE8F88F03F0F703DA
:10161000702BD7E70826D8E780460F46D7E7BBF1FF
:10162000010F0CBF37345734DBE7102EEBD1AB780A
:1016300043F01003E6E700BF0EBF040008B54FF00B
:101640002002EFF3118382F31288BFF36F8F01F052
:1016500019FF03481BF01EF901F08AFAFCE700BFEE
:10166000F14204004FF02002EFF3118382F312885D
:10167000BFF36F8F0121044AC2F8401583F311882C
:10168000BFF36F8F002070470090034020B1034BE1
:10169000800143F001031847704700BF402A04004F
:1016A0002DE9F84F074688461646144608EB06050E
:1016B0002D1B0CB9BDE8F88F7B1E032B96BF214A6A
:1016C0003F21D15C20481BF0E5F84FF00009DFF81E
:1016D00088A0DFF888B04C452BD9584615F809107A
:1016E0001BF0D8F809F10109B9F1080FF3D1174837
:1016F0001BF0D0F84FF00009DFF864A0DFF864B009
:101700004C451AD915F80910114B5846CA5C12F00D
:10171000970F08BF2E211BF0BDF809F10109B9F19F
:10172000080FEDD10B481BF0B5F8072CC2D9083CC7
:10173000BCE750461BF0AEF8D4E750461BF0AAF8C1
:10174000EBE700BF2F4304001E4304002D430400B9
:101750000EBF0400F2530400294304002343040095
:101760002B4304006F5904002DE9F04F85B00E465D
:1017700091460A4602A904461BF056FB051E73DB80
:1017800094F83620A9B210461BF0AEFA314607464F
:1017900010461BF0A9FA0121064610461BF0A4FAD8
:1017A000082F304486B208D9374938484B221BF0FD
:1017B00054FA4B2134481BF049FA04F10C0A4FF05B
:1017C000FF324FF0FF33504615F010F90546002860
:1017D00056D1D4E909134A683B44334493422BD988
:1017E000804694F806B020461BF0D1FC236AB8F17D
:1017F000000F08BF8046984201463BD0AB4505F13B
:10180000010335DCB8F1000F34D0D8F8042007F11B
:10181000080333449A422DD3A28E4146013220461A
:1018200092B21BF043FB0546D8B90823A362A38EEE
:10183000C4F824800133A3862046D4E90912009716
:1018400002AB1BF0BFFA0546B8B9636AC9F80030AD
:10185000A36AC9F80430A06A0744C9F8087037447D
:10186000A762504615F094F9284605B0BDE8F08F00
:101870001D46B8E76FF01B05F3E76FF00405F0E7CE
:101880006FF01505F0E700BF334304006342040026
:10189000F0B505469BB00F4614460021302202A841
:1018A0001FF0AFFE002D00F08580002C00F082803C
:1018B0001B238DF808301FF014FD4FF47A720026B8
:1018C000A0FB020302FB0131C00B4FF47A7200232C
:1018D00040EA41403146FBF707FB384A0244130A0D
:1018E000110201F47F0103F47F430B4343EA0263D7
:1018F00043F08303E8682A610C9330223346CDE934
:10190000006602A91BF077FD00280FDB314630226C
:101910000EA81FF076FEA9683A4628461BF0F2FD95
:10192000B04205DA1CF012F8006840421BB0F0BD6E
:1019300037D0E86830223346CDE900660EA91BF0A7
:10194000B1FD0028EEDB30282ED1149B2A691BBA8A
:101950009A4202D06FF01500E8E79DF8383003F0A6
:101960000703042BF6D19DF8393003B3189B199A5D
:101970001BBA12BA53EA0201ECD0002BA2600ADAB9
:101980000F4A9342E6D900200E4A9B1840F1FF32DD
:10199000C4E90032CAE700200A4A1A44C4E9002018
:1019A000C4E76FF07300C1E76FF07900BEE76FF036
:1019B0000F00BBE76FF00D00B8E700BF807EAA8381
:1019C0007F7EAA838081557C2DE9F04705460E462F
:1019D00017461C4CDFF87490DFF874804C4508D92A
:1019E00041461948D6221BF038F9D62140461BF053
:1019F0002DF94C4507D31BF0A9FF6A2303604FF074
:101A0000FF30BDE8F0872368AB4200D0BBB9636804
:101A100043B941460C48DC221BF01FF9DC2140464B
:101A20001BF014F93A46314628466368984730B1AE
:101A30003A4631462846A368BDE8F04718470C34BB
:101A4000CCE700BFC427040063420400D027040091
:101A5000954304002DE9F04F06464FF000089BB077
:101A60000491104619461D4614461FF040FCB1462D
:101A7000C24647460BAB0893CDE90501049B03938F
:101A8000039B03BB002F60D0B5F1FF3F08BFB4F14B
:101A9000FF3F16BF4FF47A704FF0FF34A4FB0040B5
:101AA000049B1CBFE40B44EA404400934FF4827251
:101AB00033464146504601941BF03FFC07463846EA
:101AC0001BB0BDE8F08FD9F80000002837DB0AAA68
:101AD00009A9FFF745F8079088B34FF0FF324FF0A0
:101AE000FF330A981BF038FC1AAB019308AB009344
:101AF0004FF481724B46079909981BF01EFC10F1B8
:101B0000780F83460DD010F1120F07990CD1BAF15E
:101B1000000F02D18846DDF824A04FF0000B01270A
:101B200002E000242546A3460A981BF017FCBBF1EF
:101B3000000F04DA1BF00AFFCBF1000336E0039B31
:101B400009F10809013B03939AE754EA050310D011
:101B5000B5F1FF3F08BFB4F1FF3F0AD017F0C8F955
:101B6000059B1C1A069B63EB0105002DBCBF3C4680
:101B7000254608990BAF3F4BC91B891059432B468B
:101B80002246384617F0CEFC00F10B030B2B8146A2
:101B900008D840F6810828FA03F86FEA080818F018
:101BA000010807D01BF0D2FEC9F100034FF0FF3748
:101BB000036084E70897B1464746DDF810A0BAF104
:101BC000000F1CD1B8F1000F3FF479AF002F7FF464
:101BD00076AF54EA05033FF472AFB5F1FF3F08BF9B
:101BE000B4F1FF3FC5D017F083F9059B1C1A069B83
:101BF00063EB0105012C75F10003BADA5FE74FF0E2
:101C00000003D9F80000A9F80630002829DB0AAA49
:101C100009A9FEF7A5FF834620B92023A9F80630BD
:101C200001371EE04FF0FF324FF0FF330A981BF0F0
:101C300093FB08AB594640F20312009309984B46B8
:101C40001BF07BFB83460A981BF088FB1BF10B0FF4
:101C50000CD0BBF1000F7FF46DAFB9F90630002B4B
:101C6000DED109F108090AF1FF3AA8E74FF00108AF
:101C7000F7E700BFCDCCCCCC38B5044640B90B4912
:101C80000B4813221AF0E9FF132108481AF0DEFF6F
:101C9000084D2B6843B10549054814221AF0DDFFB1
:101CA000142102481AF0D2FF2C6038BDC943040049
:101CB00063420400209101202DE9F041DFF85C80AF
:101CC0001F46D8F8003004460D46164643B9114960
