:020000021000EC
:10C20000001A0220313202000DD60300B5310200BF
:10C21000B5310200B5310200B5310200B53102007E
:10C22000000000000000000000000000792C020067
:10C23000B531020000000000E12B0200B531020020
:10C240001D2D02001D2D02001D2D02001D2D0200BE
:10C250001D2D02001D2D02001D2D02001D2D0200AE
:10C260001D2D02001D2D02001D2D02001D2D02009E
:10C270001D2D02001D2D02001D2D02001D2D02008E
:10C280001D2D02001D2D02001D2D02001D2D02007E
:10C290001D2D02001D2D02001D2D02001D2D02006E
:10C2A0001D2D02001D2D02001D2D02001D2D02005E
:10C2B0003FEC03001D2D02001D2D02001D2D02006C
:10C2C0001D2D02001D2D02001D2D02001D2D02003E
:10C2D0001D2D02001D2D02001D2D02001D2D02002E
:10C2E0001D2D02001D2D02001D2D02001D2D02001E
:10C2F0001D2D02001D2D02001D2D02001D2D02000E
:10C300001D2D02001D2D02001D2D02001D2D0200FD
:10C310001D2D02001D2D02001D2D02001D2D0200ED
:10C320001D2D02001D2D02001D2D02001D2D0200DD
:10C330001D2D02001D2D02001D2D02001D2D0200CD
:10C340001D2D0200000000000000000000000000A1
:10C3500000000000000000000000000000000000DD
:10C3600000000000000000000000000000000000CD
:10C3700000000000000000000000000000000000BD
:10C3800000000000000000000000000000000000AD
:10C39000000000000000000000000000000000009D
:10C3A000000000000000000000000000000000008D
:10C3B000000000000000000000000000000000007D
:10C3C000000000000000000000000000000000006D
:10C3D000000000000000000000000000000000005D
:10C3E000000000000000000000000000000000004D
:10C3F000000000000000000000000000000000003D
:10C40000DEE61E284CBBCE8F025B00003C00000025
:10C41000E80903000100000000C2010000C20100A1
:10C42000FFFF02910000000000000000000000007B
:0CC4300000000000000000000000000000
:04C43C00FFFFFFFF00
:10C4400081F0004102E000BF83F0004330B54FEAC5
:10C4500041044FEA430594EA050F08BF90EA020F32
:10C460001FBF54EA000C55EA020C7FEA645C7FEAC5
:10C47000655C00F0E2804FEA5454D4EB5555B8BFE8
:10C480006D420CDD2C4480EA020281EA030382EA59
:10C49000000083EA010180EA020281EA0303362DEB
:10C4A00088BF30BD11F0004F4FEA01314FF4801CBE
:10C4B0004CEA113102D0404261EB410113F0004FD0
:10C4C0004FEA03334CEA133302D0524263EB430387
:10C4D00094EA050F00F0A780A4F10104D5F1200E25
:10C4E0000DDB02FA0EFC22FA05F2801841F1000180
:10C4F00003FA0EF2801843FA05F359410EE0A5F154
:10C5000020050EF1200E012A03FA0EFC28BF4CF084
:10C51000020C43FA05F3C01851EBE37101F000453A
:10C5200007D54FF0000EDCF1000C7EEB00006EEB47
:10C530000101B1F5801F1BD3B1F5001F0CD34908D1
:10C540005FEA30004FEA3C0C04F101044FEA445228
:10C5500012F5800F80F09A80BCF1004F08BF5FEAAF
:10C56000500C50F1000041EB045141EA050130BD8F
:10C570005FEA4C0C404141EB0101013C28BFB1F5A1
:10C58000801FE9D291F0000F04BF01460020B1FAEC
:10C5900081F308BF2033A3F10B03B3F120020CDABF
:10C5A0000C3208DD02F1140CC2F10C0201FA0CF09D
:10C5B00021FA02F10CE002F11402D8BFC2F1200C02
:10C5C00001FA02F120FA0CFCDCBF41EA0C019040B8
:10C5D000E41AA2BF01EB0451294330BD6FEA040401
:10C5E0001F3C1CDA0C340EDC04F11404C4F12002EC
:10C5F00020FA04F001FA02F340EA030021FA04F3FE
:10C6000045EA030130BDC4F10C04C4F1200220FA54
:10C6100002F001FA04F340EA0300294630BD21FA92
:10C6200004F0294630BD94F0000F83F4801306BF58
:10C6300081F480110134013D4EE77FEA645C18BF4C
:10C640007FEA655C29D094EA050F08BF90EA020FE3
:10C6500005D054EA000C04BF1946104630BD91EADB
:10C66000030F1EBF0021002030BD5FEA545C05D1DE
:10C670004000494128BF41F0004130BD14F580041D
:10C680003CBF01F5801130BD01F0004545F0FE4191
:10C6900041F470014FF0000030BD7FEA645C1ABFC6
:10C6A000194610467FEA655C1CBF0B46024650EAFD
:10C6B000013406BF52EA033591EA030F41F4002129
:10C6C00030BD00BF90F0000F04BF0021704730B5AF
:10C6D0004FF4806404F132044FF000054FF0000184
:10C6E00050E700BF90F0000F04BF0021704730B545
:10C6F0004FF4806404F1320410F0004548BF40421A
:10C700004FF000013EE700BF42004FEAE2014FEA6E
:10C7100031014FEA02701FBF12F07F4393F07F4F49
:10C7200081F06051704732F07F4208BF704793F04C
:10C730007F4F04BF41F40021704730B54FF460745F
:10C7400001F0004521F000411CE700BF50EA010262
:10C7500008BF704730B54FF000050AE050EA01020B
:10C7600008BF704730B511F0004502D5404261EB7B
:10C7700041014FF4806404F132045FEA915C3FF4BC
:10C78000D8AE4FF003025FEADC0C18BF03325FEA59
:10C79000DC0C18BF033202EBDC02C2F1200300FA0A
:10C7A00003FC20FA02F001FA03FE40EA0E0021FA2F
:10C7B00002F11444BDE600BF70B54FF0FF0C4CF41D
:10C7C000E06C1CEA11541DBF1CEA135594EA0C0FCF
:10C7D00095EA0C0F00F0DEF82C4481EA030621EA0A
:10C7E0004C5123EA4C5350EA013518BF52EA033545
:10C7F00041F4801143F4801338D0A0FB02CE4FF0F7
:10C800000005E1FB02E506F00042E0FB03E54FF026
:10C810000006E1FB03569CF0000F18BF4EF0010E1E
:10C82000A4F1FF04B6F5007F64F5407404D25FEA1A
:10C830004E0E6D4146EB060642EAC62141EA5551CD
:10C840004FEAC52040EA5E504FEACE2EB4F1FD0C0F
:10C8500088BFBCF5E06F1ED8BEF1004F08BF5FEA8D
:10C86000500E50F1000041EB045170BD06F000463F
:10C8700046EA010140EA020081EA0301B4EB5C04EC
:10C88000C2BFD4EB0C0541EA045170BD41F48011E4
:10C890004FF0000E013C00F3AB8014F1360FDEBF09
:10C8A000002001F0004170BDC4F10004203C35DAE5
:10C8B0000C341BDC04F11404C4F1200500FA05F368
:10C8C00020FA04F001FA05F240EA020001F0004209
:10C8D00021F0004110EBD37021FA04F642EB06017F
:10C8E0005EEA430E08BF20EAD37070BDC4F10C04A9
:10C8F000C4F1200500FA04F320FA05F001FA04F26D
:10C9000040EA020001F0004110EBD37041F1000158
:10C910005EEA430E08BF20EAD37070BDC4F1200563
:10C9200000FA05F24EEA020E20FA04F301FA05F2CB
:10C9300043EA020321FA04F001F0004121FA04F273
:10C9400020EA020000EBD3705EEA430E08BF20EA43
:10C95000D37070BD94F0000F0FD101F0004640007D
:10C9600041EB010111F4801F08BF013CF7D041EAFF
:10C97000060195F0000F18BF704703F00046520003
:10C9800043EB030313F4801F08BF013DF7D043EAD4
:10C990000603704794EA0C0F0CEA135518BF95EA8A
:10C9A0000C0F0CD050EA410618BF52EA4306D1D111
:10C9B00081EA030101F000414FF0000070BD50EA30
:10C9C000410606BF1046194652EA430619D094EABA
:10C9D0000C0F02D150EA013613D195EA0C0F05D1A4
:10C9E00052EA03361CBF104619460AD181EA0301F8
:10C9F00001F0004141F0FE4141F470014FF00000B0
:10CA000070BD41F0FE4141F4780170BD70B54FF04A
:10CA1000FF0C4CF4E06C1CEA11541DBF1CEA1355CA
:10CA200094EA0C0F95EA0C0F00F0A7F8A4EB0504AC
:10CA300081EA030E52EA03354FEA013100F08880A3
:10CA40004FEA03334FF0805545EA131343EA12636C
:10CA50004FEA022245EA111545EA10654FEA002621
:10CA60000EF000419D4208BF964244F1FD0404F5DA
:10CA7000407402D25B084FEA3202B61A65EB030536
:10CA80005B084FEA32024FF480104FF4002CB6EBF3
:10CA9000020E75EB030E22BFB61A754640EA0C0073
:10CAA0005B084FEA3202B6EB020E75EB030E22BFB3
:10CAB000B61A754640EA5C005B084FEA3202B6EBF4
:10CAC000020E75EB030E22BFB61A754640EA9C00B3
:10CAD0005B084FEA3202B6EB020E75EB030E22BF83
:10CAE000B61A754640EADC0055EA060E18D04FEA41
:10CAF000051545EA16754FEA06164FEAC30343EAE1
:10CB000052734FEAC2025FEA1C1CC0D111F4801FAD
:10CB10000BD141EA00014FF000004FF0004CB6E7A6
:10CB200011F4801F04BF01430020B4F1FD0C88BF45
:10CB3000BCF5E06F3FF6AFAEB5EB030C04BFB6EB50
:10CB4000020C5FEA500C50F1000041EB045170BD43
:10CB50000EF0004E4EEA113114EB5C04C2BFD4EB70
:10CB60000C0541EA045170BD41F480114FF0000EF4
:10CB7000013C90E645EA060E8DE60CEA135594EA70
:10CB80000C0F08BF95EA0C0F3FF43BAF94EA0C0F73
:10CB90000AD150EA01347FF434AF95EA0C0F7FF4E8
:10CBA00025AF104619462CE795EA0C0F06D152EA3C
:10CBB00003353FF4FDAE1046194622E750EA410620
:10CBC00018BF52EA43067FF4C5AE50EA41047FF431
:10CBD0000DAF52EA43057FF4EBAE12E74FF0FF3C96
:10CBE00006E000BF4FF0010C02E000BF4FF0010C67
:10CBF0004DF804CD4FEA410C7FEA6C5C4FEA430CE0
:10CC000018BF7FEA6C5C1BD001B050EA410C0CBF2E
:10CC100052EA430C91EA030F02BF90EA020F002090
:10CC2000704710F1000F91EA030F58BF994208BFF7
:10CC300090422CBFD8176FEAE37040F001007047B4
:10CC40004FEA410C7FEA6C5C02D150EA013C07D10B
:10CC50004FEA430C7FEA6C5CD6D152EA033CD3D056
:10CC60005DF8040B704700BF8446104662468C4650
:10CC70001946634600E000BF01B5FFF7B7FF002883
:10CC800048BF10F1000F01BD4DF808EDFFF7F4FFAC
:10CC90000CBF012000205DF808FB00BF4DF808ED37
:10CCA000FFF7EAFF34BF012000205DF808FB00BF5A
:10CCB0004DF808EDFFF7E0FF94BF012000205DF87C
:10CCC00008FB00BF4DF808EDFFF7CEFF94BF012031
:10CCD00000205DF808FB00BF4DF808EDFFF7C4FF2A
:10CCE00034BF012000205DF808FB00BF4FEA410C73
:10CCF0007FEA6C5C02D150EA013C0AD14FEA430C56
:10CD00007FEA6C5C02D152EA033C02D14FF0000092
:10CD100070474FF0010070474FEA410212F50012D0
:10CD200015D211D56FF47873B3EB625212D94FEA72
:10CD3000C12343F0004343EA505311F0004F23FA5C
:10CD400002F018BF404270474FF00000704750EAB1
:10CD5000013005D111F0004008BF6FF0004070476E
:10CD60004FF00000704700BF4A0011D212F50012C8
:10CD700011D20DD56FF47873B3EB62520ED44FEA33
:10CD8000C12343F0004343EA505323FA02F07047B3
:10CD90004FF00000704750EA013002D14FF0FF30F1
:10CDA00070474FF0000070474FEA4102B2F1E04394
:10CDB00024BFB3F5001CDCF1FE5C0DD901F0004C82
:10CDC0004FEAC0024CEA5070B2F1004F40EB8300D2
:10CDD00008BF20F00100704711F0804F21D113F1FE
:10CDE0003872BCBF01F00040704741F480114FEA37
:10CDF0005252C2F11802C2F1200C10FA0CF320FAC0
:10CE000002F018BF40F001004FEAC1234FEAD323DC
:10CE100003FA0CFC40EA0C0023FA02F34FEA430346
:10CE2000CCE77FEA625307D150EA01331EBF4FF0CF
:10CE3000FE4040F44000704701F0004040F0FE40EA
:10CE400040F40000704700BF7BB972B90029BEBF33
:10CE500000204FF0004106E008BF00281CBF6FF023
:10CE600000414FF0FF3000F075B8ADF1080C6DE9EE
:10CE700004CE002909DB002B1ADB00F084F8DDF872
:10CE800004E0DDE9022304B07047404261EB410158
:10CE9000002B1BDB00F077F8DDF804E0DDE902236E
:10CEA00004B0404261EB4101524263EB43037047DF
:10CEB000524263EB430300F066F8DDF804E0DDE97D
:10CEC000022304B0404261EB41017047524263EBE0
:10CED000430300F058F8DDF804E0DDE9022304B074
:10CEE000524263EB4303704753B94AB9002908BF64
:10CEF00000281CBF4FF0FF314FF0FF3000F02AB880
:10CF0000ADF1080C6DE904CE00F03DF8DDF804E069
:10CF1000DDE9022304B07047D0B500220B4B064672
:10CF20000F46FFF749FCFFF71FFF0446FFF7CAFB58
:10CF30000022074BFFF740FC02460B4630463946BD
:10CF4000FFF782FAFFF710FF2146D0BD0000F03D49
:10CF50000000F041704700BF38B5002200230446AE
:10CF60000D46FFF79BFE28B920462946BDE838400C
:10CF7000FFF7D2BF204605F10041FFF7CDFF404249
:10CF800061EB410138BD2DE9F04F099E88468E4680
:10CF9000154604461946002B40F0C6804245B2FAB9
:10CFA00082F746D94FB1C7F1200C08FA07F3BD400C
:10CFB000BC4020FA0CFC4CEA030E4FEA15481FFA5D
:10CFC00085FC220CBEFBF8F908FB19E309FB0CFAFF
:10CFD00042EA03439A4528D9EB1809F1FF3004D2FD
:10CFE0009A4502D9A9F102002B44A3EB0A03A4B28B
:10CFF000B3FBF8F208FB123302FB0CFC44EA0344D7
:10D00000A44514D92C1902F1FF3303D2A44501D948
:10D01000931E2C44A4EB0C0443EA00401EB1FC40D8
:10D02000002334607360BDE8F08F4846DDE71346A7
:10D03000F0E702B9FFDE8FBBA8EB020301214FEA44
:10D04000154EAAB2200CB3FBFEFC0EFB1C330CFBEE
:10D0500002F840EA0343984562D9EB180CF1FF301F
:10D0600004D2984502D9ACF102002B44A3EB08038B
:10D07000A4B2B3FBFEFC0EFB1C330CFB02F244EA31
:10D080000344A2424ED92C190CF1FF3304D2A24220
:10D0900002D9ACF102032C44A41ABDE7C7F1200C5D
:10D0A000BD4008FA07F3BC4028FA0CF94FEA154EC8
:10D0B00020FA0CFC4CEA0302ABB2B9FBFEFC110CEB
:10D0C0000EFB1C900CFB03F841EA0040804523D97D
:10D0D00028180CF1FF3104D2804502D9ACF10201CD
:10D0E0002844A0EB080092B2B0FBFEFC0EFB1C0033
:10D0F0000CFB03F842EA004398450FD9EB180CF1FA
:10D10000FF3204D2984502D9ACF102022B44A3EBC2
:10D11000080342EA014192E76146E2E76246F6E728
:10D120006046A3E76346B7E7434505D90EB1C6E9B4
:10D1300000080021084676E7B3FA83FCBCF1000F33
:10D1400010D1434501D382420AD8841A68EB030305
:10D1500001209E46002E68D0C6E9004E002162E7FD
:10D160006046F7E7CCF1200E03FA0CF302FA0CF557
:10D1700000FA0CF722FA0EF428FA0EFB20FA0EF150
:10D180001C4308FA0CF34FEA14491943A3B20A0CE2
:10D19000BBFBF9F809FB18BB08FB03FA42EA0B4298
:10D1A00092453ED9A21808F1FF3004D2924502D927
:10D1B000A8F102002244A2EB0A0289B2B2FBF9F8FC
:10D1C00009FB182208FB03F341EA024293422AD9E1
:10D1D000A21808F1FF3104D2934202D9A8F102014A
:10D1E000224441EA0040D21AA0FB059842454B4632
:10D1F000414602D306D14F4504D20138B9EB0503AD
:10D2000068EB04018EB1FC1A62EB010707FA0EFE0F
:10D2100024FA0CF327FA0CF74EEA0303C6E90037A9
:10D220009CE74046C7E74146DBE73146FBE610F89E
:10D23000012B11F8013B012A28BF9A42F7D0D01ADE
:10D240007047034613F8012B002AFBD1181A013846
:10D2500070470000000000002DE9F04F2DED028B1B
:10D2600081468A4615461C4600269FEDA98B9BB039
:10D27000287810B9304600F0C9BD6B1C25280293F0
:10D2800006D05146C8470028C0F2C08501362EE2BC
:10D29000182200210CA824F05FF86B78252B59D0B8
:10D2A0006A1C174612F8013B2B2B00F08B8079D8B3
:10D2B000202B00F08C80232B00F08E809DF83830DE
:10D2C00003F04402442A03D16FF386138DF83830FB
:10D2D0009DF838300A9743F080038DF838303B785A
:10D2E0002A2B7ED19DF8393043F001038DF8393077
:10D2F0007B1C0A931A782E2A0CBF012100219DF86D
:10D30000392061F341028DF839200BD15A1C0A9261
:10D310005A782A2A7BD19DF83920023342F0040240
:10D320008DF83920194611F8010B6C2800F0CF80D8
:10D330007DD8682800F084806A2800F0D2804C28CC
:10D3400000F0D6809DF8392019466FF3C6028DF89B
:10D35000392080E0AA1C02928DF83B309DF83930CC
:10D36000DF0740F1788154F804BBBBF1000F07DA06
:10D370009DF83820CBF1000B42F004028DF83820E4
:10D38000580740F1718154F8048BB8F1000F80F216
:10D3900070819DF839306FF341038DF839304FF0CB
:10D3A000FF3866E12D2B06D0302B87D19DF8383021
:10D3B00043F0400303E09DF8383043F004038DF858
:10D3C00038306EE79DF8383043F00803F7E79DF8F2
:10D3D000383043F01003F2E79DF8383043F0200373
:10D3E000EDE70AA803F0CEFF0A9BBB4281D09DF86F
:10D3F00038700F90C7F3400141EAD072520062F0DA
:10D400007F0207F07D010A438DF8382071E70AA8F2
:10D4100003F0B8FF9DF838301090C3F3400242EAA1
:10D42000D07060F341038DF838300A9B7AE7742896
:10D430009DF8392059D07A2884D11346062241E03C
:10D440005A78682A9DF839203AD1012161F3C60241
:10D450008DF83920991C0B4613F8012B782A02937A
:10D460008DF83B2000F2CD80572A55D8412A04D0B0
:10D47000A2F14503022B00F2C48004219DF83A304A
:10D4800061F302038DF83A3002F0DF03A3F14108A3
:10D490009DF83920D8F1000343EB080363F3C7126A
:10D4A0008DF83920D3B2120600F1D38003F0780250
:10D4B000182A40F0A3806FF3C6038DF839308AE054
:10D4C0001346022262F3C6038DF83930C3E75A7857
:10D4D0006C2A9DF8392001D10421B7E713460322B5
:10D4E000F0E705229DF83930ECE713460722E9E71B
:10D4F000BDF8383023F4F04323F0020343F48043B3
:10D5000043F00203ADF83830A5E700BFAFF3008069
:10D510000000000000000008A2F15803202B70D882
:10D5200001A151F823F000BFDBD5010003D60100B3
:10D5300003D6010003D6010003D6010003D6010083
:10D5400003D6010003D6010003D601007BD40100FD
:10D5500003D60100DBD50100ADD501007BD401006D
:10D560007BD401007BD4010003D60100ADD50100BE
:10D5700003D6010003D6010003D6010003D6010043
:10D5800011D60100DBD5010035D6010003D601001C
:10D5900003D6010035D6010003D60100DBD501001A
:10D5A00003D6010003D60100DBD5010001219DF85F
:10D5B0003A3061F302038DF83A309DF8393003F0C8
:10D5C0007803402B02BF9DF8381041F001018DF81F
:10D5D0003810632A05D0002306E002219DF83A3076
:10D5E000E7E7003B18BF01239DF83820C2F3400154
:10D5F0000B4363F341028DF83820AFE613F0380F88
:10D60000E9D09DF8383043F001038DF83830E2E777
:10D6100003229DF83A3062F302038DF83A309DF808
:10D62000393003F07803A3F1400CDCF1000343EB45
:10D630000C03D9E703229DF83A3062F302038DF818
:10D640003A309DF8393013F0780F14BF01230023CE
:10D65000CAE70123C8E79DF93820002AACBF4FF084
:10D66000FF3BDDF83CB08BE699077FF598AEDDF81F
:10D6700040800023CDE90F339DF83A309DF83910F2
:10D6800003F00702042A09D18A0707D49DF939203B
:10D69000002AB4BF4FF00D084FF0060803F007034F
:10D6A000012BC1F3C30137D1CB1E042B21D8DFE8F6
:10D6B00003F003090920200054F8043BDA17CDE9F0
:10D6C0000C3206E0073424F00704F4E80223CDE925
:10D6D0000C239DF83870BB0756D02A465146484661
:10D6E000029B1FF045F90028C0F290830644029D7A
:10D6F000BEE554F8043B01294FEAE372CDE90C3250
:10D7000005D19DF830300C9300230D93E1E70229F9
:10D71000DFD1BDF93030D1E7022B23D1CB1E042B52
:10D7200013D8DFE803F0030A0A121200002220686F
:10D73000231D0C900D921C46CBE7E31D23F007033D
:10D74000B3EC027B8DED0C7BF5E754F8043B01292B
:10D750000C934FF000030D93D3D00229B9D1BDF83B
:10D760003030D0E7042B09D1E31D23F0070303F188
:10D770000804D3E90023CDE90C23AAE7032B04BF57
:10D7800054F8043B0C93A4E79DF83B20782AAED8CC
:10D79000572A00F28C80252A00F0D480242AA6D9AA
:10D7A000412A03D0A2F14503022BA0D8DDE90C13D6
:10D7B000002BC0F2B681380700F1B58117F01007D1
:10D7C00018BF2027C3F30A55C3F31303CDE9081389
:10D7D000002D40F0AA8151EA030014BF012000206F
:10D7E000DB0243EA5153C902462A45EA010E43EAE5
:10D7F000E57C08BF66225EEA0C0CCDE9081300F058
:10D800000282002840F0CA81DDE908014FF0000CD7
:10D810004FF0050E634641F00041A5F2FE35099137
:10D8200015F1020FC0F2C181BCF1000F01D0CDE9AA
:10D830000801DDE90801002D00F3CC810998089961
:10D84000C5F1040C1C3500FA05F5ACF1200E21FAE7
:10D850000CF120FA0EFE294341EA0E0120FA0CF0E9
:10D86000CDE9081002F0DF01472940F0D381DD1C2B
:10D8700002DB984580F2CA81023AB8F1000FD2B2B9
:10D8800001DD08F1FF389DF83810880600F1C281EB
:10D89000B8F1000FD4BF00210121662A039140F0A6
:10D8A000BB8113EB080140F1B9810021B9E1A2F17C
:10D8B0005803202B3FF61BAF01A050F823F000BF08
:10D8C000C5DA0100EFD60100EFD60100EFD6010066
:10D8D000EFD60100EFD60100EFD60100EFD6010030
:10D8E000EFD60100ADD70100EFD6010071D90100DC
:10D8F00065DA0100ADD70100ADD70100ADD7010059
:10D90000EFD6010065DA0100EFD60100EFD6010085
:10D91000EFD60100EFD60100FBDA0100C5DA010005
:10D92000C9DA0100EFD60100EFD601004BD90100A2
:10D93000EFD60100C5DA0100EFD60100EFD60100F5
:10D94000C5DA0100514610469CE4B8F1000F0C9A6C
:10D9500009DB41461046039223F0F8FE0027039AA4
:10D96000151862B9C3E610460392FFF76AFCF5E7A3
:10D9700000270C9B0DF14D058DF84C3013AAAB1A06
:10D9800007B101339DF83A00C10640F133820233FA
:10D990000F9940060B4444BF10995B18BBF1000F70
:10D9A00023DDABEB030B9DF838305907C3F3800838
:10D9B0001BD4580640F13482002F00F034825146C7
:10D9C00038460392C8470028C0F2208247464FF0ED
:10D9D0003008039A01365E445B46002BA6EB0B0031
:10D9E0000BF1FF3B00F30A82064647B15146384629
:10D9F0000392C8470028C0F20982039A01369DF8B5
:10DA00003A30590640F163829DF93930B61A002B3D
:10DA100080F218821746B846F31917F8010B7028E0
:10DA200040F004821E46109F1F44BB1B002B00F3D6
:10DA300047822B464246514648461EF099FF002831
:10DA4000C0F2E481304406468344ABEB0603002B6E
:10DA50007FF74DAE51462020C8470028C0F2D6813E
:10DA60000136F2E73D072BD417F0100718BF202727
:10DA7000DDE90C23002B05DA2D27524263EB43032B
:10DA8000CDE90C23DDE90C010DF1650300930EAA2D
:10DA900013AB03F08DFC0246B8F1000F0DF16505E4
:10DAA000FFF65FAF9DF83810AB1A6FF386119845FB
:10DAB0008DF838107FF655AFA8EB03030F9350E7AE
:10DAC0002B27D5E70027DDE70C98002800F08E8192
:10DAD0000DF1650300930EAA13AB002103F068FC5F
:10DAE000BDF83A30024603F0EF0343F4F04343F04D
:10DAF00010030027ADF83A30CEE70C9B07293FF61C
:10DB0000F6ADDFE801F00C04060C08080C0C1E70E2
:10DB1000EDE51E80EBE5F217C3E90062E7E51E6064
:10DB2000E5E52D274EE62B274CE640F2FF708542B7
:10DB300031D1B9480132D2B2125C0B4302F0030278
:10DB40001BD1012A11D149238DF84C304E238DF879
:10DB50004D3046238DF84E309DF838300DF14F058D
:10DB60006FF386138DF8383008E769238DF84C3051
:10DB70006E238DF84D306623ECE7012A07BF4E2354
:10DB800041226E2361220CBF8DF84C308DF84C3051
:10DB90008DF84D20DEE7002022E6013D49185B416B
:10DBA000002BFADACDE908132EE6400840EAC170EE
:10DBB0004908B1F1333FAC4605F10105F5D20EFB42
:10DBC00001F5A0FB0E01013B29440CF102054FF0C9
:10DBD000010C25E6023041F10001CDE9080108A859
:10DBE000CDE903231EF095FEDDE90810049B039A9E
:10DBF000013D013349184041002805F1FF35F9DAAC
:10DC0000CDE9081015E600231D4617E66622A8EBAD
:10DC1000030838E6002140E608F101011029A8BFF9
:10DC2000102110208DED0A8B0D460790DDE90A01C9
:10DC3000A5B9089D4019099D41EB0501B1F1805F2F
:10DC40001BD2CDE90801662A40F09880002B23DC26
:10DC500030210DF14D058DF84C102FE0400840EAC1
:10DC6000C1704908CDE90A010AA8CDE90423013DA4
:10DC70001EF04FFEDDE90423D8E7400840EAC170FA
:10DC80004908CDE9080108A8CDE904231EF041FEAA
:10DC9000059B049A0133D6E713AD079900290BDDE4
:10DCA00007A908A8CDE904231EF04BFE059B049AA2
:10DCB000013B05F8010BF0D10F9300239DF83810BC
:10DCC000890602D4B8F1000F1DDD2E2105F8011BD5
:10DCD0009BB1B8F1000F16DD59424145A8BF41463E
:10DCE00000290F91A8EB0108D4BF002101219DF864
:10DCF0003A0061F345108DF83A00B8F1000F02DDEB
:10DD00000799002955DC0399002962D1CDF840809C
:10DD100002F0DF01452920D12946002B01F8022B12
:10DD2000B6BF2D222B225B42632B6A7009DD642073
:10DD3000B3FBF0F200FB123302F1300CE91C85F862
:10DD400002C00A20B3FBF0F20D4600FB123302F1D1
:10DD5000300C303305F802CB4B700F9B002B43DCAB
:10DD6000109B002BD4BF002301239DF83A2063F3BE
:10DD7000861200238DF83A202B70FFE507A908A82A
:10DD8000CDE904231EF0DDFDDDE904239DF8381004
:10DD900030288DF84C0018BF03F1FF33880602D4F9
:10DDA000B8F1000F12DD2E210DF14E058DF84D104A
:10DDB000A3E707A908A8CDE904231EF0C2FDDDE909
:10DDC000042305F8010B08F1FF3896E70DF14D0526
:10DDD00099E700211091284615F8011D3029FAD045
:10DDE0002E2918BF054693E70123BEE70B4D0746D2
:10DDF0006A1FC4E5010748BF0133C9E551464046E3
:10DE00000392C8470028039ABFF6E6AD1BB0BDECED
:10DE1000028BBDE8F08F00BF5CBC040045400400ED
:10DE20004FF02008D7E54FF03008D4E55146C847F9
:10DE30000028BFF6F0ADE9E751460392C847002835
:10DE4000039AE3DB1078374B1746C35C06EB0208F6
:10DE50005B0702F10102EFD49DF83A300F9E99065C
:10DE600007D4B044002EA8EB060206F1FF360FDC03
:10DE7000904638782E2808D15146C8470028C5DB7F
:10DE8000002E08F1010809DC0137A8EB07060EE0B7
:10DE900051463020C8470028E4DAB7E75146302021
:10DEA000C847013EEAE75146C8470028AEDBB846FE
:10DEB0001C4AF31917F8010B125C5207F3D4B1E5B1
:10DEC00051463020C8470028A0DB0136ADE5D80612
:10DED00001D4190707D5514630200392C8470028BE
:10DEE00094DB039A01369DF83A30DB0608D551469B
:10DEF0009DF83B000392C847002887DB039A013650
:10DF00000F9F3744BB1B002B01DC2B4693E551468A
:10DF100030200392C8470028FFF678AF039A0136F5
:10DF2000F0E700BF5DBC04000128F8B50E4606D03E
:10DF30001FF0B7FB162303604FF0FF30F8BD23F04E
:10DF40007BF8334A33687468A3FB0235B66802FB7A
:10DF500004559C194FEAD03343EA414345EBE6753B
:10DF6000A3FB0236C90BC0F30E0002FB0161A0FB4C
:10DF70000202E41A4FEAD03343EA424365EB01055B
:10DF8000E41A65F1000520461FA3D3E900232946C2
:10DF9000FEF75AFF1CA3D3E9002307460E4620468E
:10DFA0002946FEF751FF14464FF02003EFF3118589
:10DFB00083F31288BFF36F8F164818F0A3FA40B9A5
:10DFC000154916488E221EF0F3FC8E2112481EF0D1
:10DFD000E8FC104818F0B4FA114B0E48C3E900767B
:10DFE0009C6018F09DFA40B90B490C48B9221EF00C
:10DFF000DFFCB92108481EF0D4FC85F31188BFF37B
:10E000006F8F00209AE700BF00CA9A3B0000000013
:10E0100000CA9A3BE4910120F23F0400B83F04009B
:10E02000C05301200000000070B52DED028B0023CD
:10E0300086B0CDE9043304230D460646019300283B
:10E0400000F0A480002900F0A180062104A821F09E
:10E050002AF8044648B10246452151481EF0E2FC28
:10E06000204606B0BDEC028B70BD014604AA3046C6
:10E0700021F016F8044640B14521024649481EF0F9
:10E08000D1FC04A821F022F8EAE7032101AB02AA9F
:10E0900004A821F014F9044618B10246452142486B
:10E0A000EDE7019B06AA1344014603F8100C022277
:10E0B00002A81CF093FC6A460121C6B204A821F014
:10E0C000C9F8044618B1024645213848D7E7009BF5
:10E0D000042B16D0052B07D02870572134481EF08A
:10E0E000A1FC6FF07F04CCE709230F2E2B702AD9F7
:10E0F0006FF0150245212F481EF094FC6FF01504B7
:10E10000BFE707230F2E2B70F2D89FED2B8A2B4BE6
:10E1100033F81600E8B1FEF7E5FA1FA3D3E90023B0
:10E12000FEF74AFBFEF740FE042168600DEB010399
:10E1300002AA04A8019121F0C2F8044658B102468F
:10E1400045211F489BE71F4B9FED1F8A33F81600A0
:10E15000E0E71E48E8E7019B06AA134401460222B5
:10E1600003F8100C02A81CF039FCC2B20F2A02D925
:10E1700045211748C0E70132D2B207EE902AF8EEE7
:10E18000E77A67EE887AC5ED027A7AE76FF01504D0
:10E1900066E700BFAFF300807B14AE47E17A24400E
:10E1A0006C5A04009A5A0400CB5A0400FC5A04002A
:10E1B000235B0400505B04000AD7A33FC433040070
:10E1C000795B0400E43304000AD723400AD7A34054
:10E1D000A95B0400000000002DE9F04306460C4650
:10E1E00093B009B9002024E008680028FAD08B68B1
:10E1F0006268191D91420BD804229549184423F0F6
:10E200007EFA28B90423F360A3680433A36087E08F
:10E21000A3686268591D91420ED8206805228D4975
:10E22000184423F06CFA38B90120A268F060053276
:10E23000A26013B0BDE8F083A3686268191D914223
:10E240000DD8206804228449184423F058FA30B9C4
:10E2500002230120A268F36070610432E8E7D4E988
:10E2600001038342BED22168CA5CCF18222A06D19C
:10E270002146304613B0BDE8F04313F067B92D2AAC
:10E2800003D0A2F13005092D5FD8002201920029A8
:10E29000A8D002A90D464FF02E0EC31A17F8010B95
:10E2A000392810D82A281BD9A0F12B0CBCF10E0F4D
:10E2B00016D8DFE80CF00D150D37150D0D0D0D0DF1
:10E2C0000D0D0D0D0D0000F0DF0CBCF1450F07D159
:10E2D000087001323F2A01F1010101D09A42DDD1DB
:10E2E00012AB1A440023284602F8403C01A91CF056
:10E2F000CBF9019F8046AF4289463FF473AF52A3EA
:10E30000D3E90023C6E90689FEF7DCFC68B16FF0AB
:10E310000043736108237D1BA768F3603D44A5603B
:10E32000012086E781F800E0D3E700224046494615
:10E330004A4BFEF7BDFC10B14FF00043E9E7404601
:10E340004946FEF7E9FC7061E4E75B2A53D1E268D5
:10E35000B2F57A7FBFF446AF0132E260CA5C5B2A55
:10E360007FF440AF0133A360204621F0D8FAD4E90E
:10E370000123934263D22268D25C5D2A0CD100252E
:10E380002F46E368013BE36007B17D602023C6E9C7
:10E390000273A368013339E700252F46013BA360D0
:10E3A000206921F03EFBA8460546002800F09D802C
:10E3B000FFB1C8F80000C0F80480A368204601330C
:10E3C000A36021F0ACFA21462846FFF705FF00289C
:10E3D00000F08E80204621F0A2FAD4E90123934276
:10E3E00080F086802268D35C2C2BD9D05D2B7FD126
:10E3F000C7E70746E1E77B2A7FF4F4AEE268B2F5AF
:10E400007A7FBFF4EFAE0132E260CA5C7B2A7FF410
:10E41000E9AE0133A360204621F081FAD4E901235B
:10E4200093420CD22268D25C7D2A19D100252F4656
:10E43000E368013BE36007B17D604023A7E7013B50
:10E44000A360CFE6AFF300800000C0FFFFFFDF4115
:10E4500010B7040027B704002DB704000000E0C186
:10E4600000252F46A846013BA360206921F0D9FA78
:10E47000A9460546002838D0AFB3C9F80000C0F857
:10E480000490A36820460133A36021F048FA214696
:10E49000284613F05BF858B3204621F040FA2B6968
:10E4A000C5F810802B62D4E90123934220D2226860
:10E4B000D25C3A2A1CD101332046A36021F02FFA06
:10E4C00021462846FFF788FE90B1204621F027FA22
:10E4D000D4E9012393420BD22268D35C2C2BC4D005
:10E4E0007D2B05D1A4E70746CBE7002F3FF47AAE9A
:10E4F000384613F0C5FC75E6174BD0B506461868CC
:10E500000F4621F08EFA044670B10823C0E9066771
:10E51000C36039460EA3D3E900233046FEF7D2FB91
:10E5200020B16FF0004363612046D0BD0022304629
:10E5300039460A4BFEF7BCFB10B14FF00043F2E73F
:10E5400030463946FEF7E8FB6061EDE7AFF3008047
:10E550000000C0FFFFFFDF41F04601200000E0C1E6
:10E560002DE9F041C1F30A5702460B460C46A7F2CB
:10E57000FF3605468046132E34DC002E14DA34A311
:10E58000D3E90023FDF762FF00220023FEF7A4FB7E
:10E5900038B1002C58DA24F000431D4301D0002587
:10E5A0002D4C23462A4626E02C4F374101EA070C22
:10E5B0005CEA000C1FD026A3D3E90023FDF746FF39
:10E5C00000220023FEF788FB0028EAD0002C4FF041
:10E5D0000005BEBF4FF4801343FA06F6A41924EADF
:10E5E0000704DEE7332E0ADDB6F5806F03D1FDF7B1
:10E5F0002DFF02460B4610461946BDE8F081A7F2F2
:10E6000013474FF0FF3C2CFA07F70742F3D010A353
:10E61000D3E90023FDF71AFF00220023FEF75CFB7D
:10E620000028BED0002C02DA142E03D1013425EAD2
:10E630000705B6E70123C6F1340603FA06F63544AA
:10E64000454538BFE418F2E700252C46A9E700BF8E
:10E650009C7500883CE4377E0000F0BFFFFF0F0090
:10E660002DE9F04F1F460023044688464FF0000A6C
:10E670004FF0000B2DED048B9DB018939E4B139221
:10E680001B6818460593FEF7DCFD0546CDF85C8057
:10E69000179B1A782B2A4CD039D80D2A32D8082A41
:10E6A00032D8002A3CD000230A93179E3378302BAF
:10E6B00040F0AE80737803F0DF03582B66D10A9BDD
:10E6C00017A902972046019318AB8C4A009319AB07
:10E6D0001CF04CFC10F00707054605D0062F2AD188
:10E6E0000136002317960A93139B002B40F0848574
:10E6F0000A9BDBB150460BF100411DB0BDEC048B11
:10E70000BDE8F08F202ACED101331793C0E72D2A20
:10E71000C9D101220A925A1C17925B78002BC4D1EE
:10E72000139BCDF85C80002B40F064855046594621
:10E73000E3E70022EEE7189A3AB135211AA823F050
:10E7400068FB189920461CF0F9FE013F042F06D8FB
:10E75000DFE807F00A0314170A00DDE91AAB2807FF
:10E76000C2D54BF0004BBFE7DDE91AA3199A23F499
:10E77000801302F2334243EA025BF0E7DFF880B134
:10E78000EDE76FF0004B4FF0FF3AE8E7179B5A1C9C
:10E7900017925B78302BF9D0002BA5D001234FF0D6
:10E7A000000904930A22179B4F46CDF81C9008934A
:10E7B00017980678A6F13003D9B209292AD92A4632
:10E7C000059922F09CFFA0B3002032463D46034647
:10E7D0000590652A01D0452A18D11DB9049A024333
:10E7E0009ED00025DDF85C8008F10102179298F8B0
:10E7F00001202B2A75D02D2A7BD04FF0000CA2F1DE
:10E800003001092940F28280CDF85C8000269DE02D
:10E810000023C4E7082F00F1010007F10107D4BF6E
:10E82000079902FB09391790DCBF02FB01330793FC
:10E83000BEE7179B5A1917925A5D002F36D03D46F6
:10E840000590A2F13003092B12D90123C1E7179BD0
:10E8500001305A1C17925A78302AF8D0A2F13103AD
:10E86000082B00F2CE8405900020179B05460893E4
:10E87000303A00F1010313D0059900EB050E19445D
:10E880002B4605910A21734512D12B180135082B0F
:10E8900005441CDC07990A2303FB0123079300238B
:10E8A000179A1846511C17915278CAE73846D3E791
:10E8B000082B04DC079E4E4307960133E3E703F180
:10E8C000010CBCF1100FD8BF01FB09F9F5E7102DC1
:10E8D000DCBF0A2303FB0929E1E700230593012399
:10E8E0007CE74FF0000C08F10202179298F8022022
:10E8F00085E74FF0010CF6E7AC3304002433040045
:10E900000000F07F179A511C17915278302AF9D0E5
:10E91000A2F1310108293FF679AFA2F1300E179A22
:10E920000692179A511C17915278A2F13006092EBF
:10E9300037D9069E891B44F61F66082902DC7645F6
:10E94000A8BF7646BCF1000F00D07642002D4DD115
:10E95000049901437FF4C8AE002B7FF4E1AE692A2D
:10E9600027D024DC492A24D04E2A7FF4D9AE9F49EF
:10E9700017A823F0B4F800283FF4D2AE179B1B78F9
:10E98000282B2DD11AAA9A4917A823F0BCF80528DC
:10E9900026D11B9BDDF868A043F0FF4B4BF4E00B46
:10E9A000A2E60A2101FB0E2EAEF1300EB9E76E2A67
:10E9B000DBE7904917A823F092F800283FF4B0AEA7
:10E9C000179B17A88C49013B179323F088F810B9BF
:10E9D000179B01331793DFF830B24FF0000A83E63C
:10E9E00086481DF027FD82468B467DE6059B002F5D
:10E9F00008BF2F46102D0798A6EB0303A846A8BF13
:10EA00004FF010080693FDF75DFE092D82468B46F8
:10EA100013DD7B4B03EBC80353E91223FDF7CCFE58
:10EA200082468B464846FDF74DFE02460B46504651
:10EA30005946FDF70BFD82468B460F2D36DC069BB3
:10EA4000002B3FF451AE22DD162B09DC6C495246F7
:10EA500001EBC3015B46D1E90001FDF7ADFEC2E762
:10EA6000C5F12503069A934220DBC5F10F05644CDE
:10EA700052465B4604EBC501D1E90001FDF79CFE5F
:10EA8000069B5D1B04EBC504D4E90023E5E7069B68
:10EA900016330BDB059B504659469E1B584B03EB28
:10EAA000C606D6E90023FDF7B1FF9CE7A5EB0803F6
:10EAB000069A03EB0208B8F1000F74DD18F00F039B
:10EAC0000AD04F49524601EBC3015B46D1E9000130
:10EAD000FDF772FE82468B4638F00F084FD0B8F52E
:10EAE0009A7F22DD0025A946079505952223DFF8A8
:10EAF00018B14FF0000A2360079B002B3FF4F4ADE0
:10EB0000189920461CF01AFD059920461CF016FDA8
:10EB1000494620461CF012FD079920461CF00EFDC8
:10EB2000294620461CF00AFDDEE5364B4FEA281840
:10EB300050465946049300239946B8F1010F21DC51
:10EB40000BB182468B462F4BABF1547B524603EB05
:10EB5000C9095B46D9E90001FDF72EFE2A4B0A469A
:10EB600082460B4029498B42BCD8A1F580118B42CB
:10EB700086BFDFF89CB04FF0FF3A02F1547B0023D0
:10EB8000049384E018F0010F05D0049BD3E900231F
:10EB9000FDF712FE0123049A09F101094FEA680802
:10EBA00008320492C9E7EAD0C8F1000818F00F0251
:10EBB0000AD0134B5046594603EBC203D3E9002356
:10EBC000FDF724FF82468B465FEA2818D7D0B8F1BC
:10EBD0001F0F1FDD0025A9460795059522234FF03D
:10EBE000000A4FF0000B236086E700BF7BBD0400E6
:10EBF0003833040073BD0400A3BD04004251040077
:10EC0000E8270400C02704000000F07F0000A07C7B
:10EC1000FFFFEF7F18F0100350465946DFF8A89326
:10EC200018BF6A230493002318F0010F04D0D9E918
:10EC30000023FDF7C1FD01235FEA680809F1080917
:10EC4000F2D10BB182468B46049BC3B1CBF30A527F
:10EC50005946C2F16B03002B11DD1F2B40F32081BD
:10EC6000342B4FF0000ADBBFC2F14B024FF0FF33F1
:10EC70004FF05C7B03FA02F2D8BF02EA010B0022DC
:10EC8000002350465946FDF7FFFF0028A2D1079BFD
:10EC90003A460899204600932B461CF0B9FC079091
:10ECA00000283FF41FAF059B00259E1B069BA9462D
:10ECB000002BB4BF334600230C93069B23EAE37377
:10ECC0001293079B204659681CF0F8FB059000281A
:10ECD0003FF40CAF079B0C301A6903F10C010232B0
:10ECE000920022F019FB1AAB52462046019319AB51
:10ECF00000935B461CF064FF18904BEC18AB0028A7
:10ED00003FF4F4AE012120461CF0CCFC81460028E3
:10ED10003FF4ECAE199E1A9A002EA9BF0C9B129BD1
:10ED200006EB0308129FB8BF9F1B049BB8BFDDF81A
:10ED30003080F61A9F4B1644C2F13602013E9E42C5
:10ED400080F2C1809B1B01211F2BA2EB030200F369
:10ED5000AE8001FA03F30D930023089308EB02063B
:10ED6000049B1744B0451F444346A8BF3346BB42EB
:10ED7000A8BF3B46002BC2BFF61AFF1AA8EB030838
:10ED80000C9B002B17DD49461A4620461CF048FD17
:10ED9000814600283FF4AAAE0146189A20461CF08E
:10EDA00097FC0B9000283FF4A1AE189920461CF068
:10EDB000C5FB0B9B1893002E00F38A80069B002B4B
:10EDC00008DD129A204605991CF02AFD05900028BE
:10EDD0003FF48CAE002F08DD3A46059920461CF022
:10EDE00079FD059000283FF481AEB8F1000F08DDF1
:10EDF0004946424620461CF06DFD814600283FF4FE
:10EE000075AE059A204618991CF0D4FD05460028D9
:10EE10003FF46CAEC36849460B930023C36022F0F5
:10EE2000AEFF00285EDA0B9B53EA0A0340F08280B3
:10EE3000CBF31303002B7DD12BF000431B0D1B05DF
:10EE4000B3F1D66F76D96B6913B92B69012B71DDDC
:10EE50002946012220461CF03DFD4946054622F088
:10EE60008EFF002866DD04995B46534A002900F0B6
:10EE7000828002EA0B01B1F1D66F7CDCB1F15C7FDC
:10EE80007FF7ACAE4D4B504659460022FDF794FC3F
:10EE90000B4682468B46034304BF222323602FE6A2
:10EEA0004FF0FF3202FA03F303EA0A0AE7E6C6F17B
:10EEB0007F460D9106F57F0606F57B46E23601FAA0
:10EEC00006F308934AE70023089301230D9345E7CF
:10EED0003246189920461CF0FDFC189000287FF45B
:10EEE0006DAF03E6D84671D10B9ACBF3130352B33F
:10EEF000334A93422AD1049B5146FBB12E4B4FF02B
:10EF0000FF320BEA0303B3F1D46F1AD81B0DC3F120
:10EF10006B0302FA03F3994218D12A4B984502D1A8
:10EF200001313FF4E3AD244B4FF0000A08EA03033C
:10EF300003F5801B049B002BA4D1E1E54FF0FF33C8
:10EF4000E9E71346E7E753EA0A038CD0089BE3B1ED
:10EF500013EA080FEED00B9B5046049A5946C3B1F2
:10EF600022F02AFC02460B4651EC180BFDF76EFA14
:10EF700082468B46DEE713404FF0FF3AA3F580133D
:10EF80006FEA135B6FEA0B5BD4E70D9B13EA0A0F82
:10EF9000E0E722F011FC02460B4651EC180BFDF79E
:10EFA00053FA0022002382468B46FDF76DFE0028AF
:10EFB000C0D013E602FCFFFF0000F07F00005039D4
:10EFC000FFFF0F00FFFFEF7F982704004946284608
:10EFD00022F0F1FE00224FF0804306460F46FDF777
:10EFE00067FE002879D00B9B002B4BD00022924B60
:10EFF0000026914FCDE90823904B08EA03030D93B7
:10F000000D9A8F4B9A4240F0B080A8F1547B504645
:10F010009DED087B5946B0EE479AF0EE679A1CF0DA
:10F0200059FD02460B4651EC190BFDF7C5FB524644
:10F030005B46FDF70BFA0B4680498246814A194030
:10F0400091425ED918EE903A02F15472934204D183
:10F0500018EE103A01333FF449ADDFF8F4B14FF048
:10F06000FF3A189920461CF069FA059920461CF0D1
:10F0700065FA494620461CF061FA294620461CF0F4
:10F080005DFA1EE6BAF1000F1AD1CBF31303F3B900
:10F090000022694B30463946FDF700FED0B93046B4
:10F0A00039460022684BFDF787FB06460F4607F1FD
:10F0B000004314961593DDE91423CDE908239BE75B
:10F0C000BAF1010F03D1BBF1000F3FF487AD00226D
:10F0D0005E4B8DE700265C4FE9E75B4B30463946D7
:10F0E0000022FDF769FB0B9B06460F4633B901F181
:10F0F00000430E900F93DDE90E23DEE7CDE90E67A6
:10F10000F9E703F1547B049B002BAAD12BF00043B9
:10F110000D9A1B0D1B059A42A3D130463946FDF7C7
:10F120001BFFFDF71BFB02460B4630463946FDF739
:10F130008BF9CBF313030B9A064643EA0A030F46F7
:10F14000134351D034A3D3E90023FDF7A7FD0028D2
:10F150007FF4D6AC3046394631A3D3E90023FDF71E
:10F16000BBFD00283FF47DAFCAE4049B33B30D9B85
:10F17000B3F1D46F22D8304639462BA3D3E900230C
:10F18000FDF796FDA0B139463046FDF7EDFD0128AB
:10F1900038BF0120FDF796FA0B9B06460F4603BBCE
:10F1A00001F1004310901193DDE91023CDE908230C
:10F1B000099B0D9A03F1D6639B1A0993DDE908AB0D
:10F1C00051EC180B1CF086FC02460B465046594683
:10F1D000FDF7F2FA53EC182BFDF738F982468B460F
:10F1E00091E7CDE91067DFE711A3D3E90023FDF72D
:10F1F00055FDB6E700230A93179B139A1360FFF798
:10F2000077BA652A3FF469AB452A3FF466AB012320
:10F21000FFF79EBBAFF300809535A094FFFFDF3F63
:10F2200035E5AF350000E03F0000C0FFFFFFDF41E4
:10F230009535A094FFFFCF3F0000F03F0000F07F26
:10F240000000E07FFFFF9F7C0000E03F0000F0BF78
:10F25000FFFFEF7F000000002DE9F04F456A0446F4
:10F2600016461F4692469B462DED048B93B0DDF863
:10F270008C8075B910201AF033FC0246606220B908
:10F28000A74BEA21A7481AF04FFBC0E901550560DA
:10F29000C560636A196851B15A68012320469340DA
:10F2A0004A608B601CF04AF9636A00221A603B1EB8
:10F2B000ADBF0023012223F0004BC8F800309A4B69
:10F2C000B8BFC8F8002033EA0B031BD142F20F731A
:10F2D000229A1360CBF31303334300F08F85249BF2
:10F2E00063B9924B22E0924B04930833249A136043
:10F2F000049813B0BDEC048BBDE8F08F8B4B0493E6
:10F300000333F3E70022002350465946FDF7BCFCC7
:10F3100080464BEC19AB58B10123229A1360249B11
:10F32000002B00F0688583481860431E0493DFE7D4
:10F3300010ABCBF30A5552462046019311AB009314
:10F340005B461CF03DFC08EE100A002D00F08280A8
:10F3500019EE903A5646A5F2FF35CDF83880C3F342
:10F36000130343F07F5747F440170022724B304697
:10F370003946FDF769F864A3D3E90023FDF71CFAC9
:10F3800063A3D3E90023FDF761F806460F4628463C
:10F39000FDF7A8F960A3D3E90023FDF70DFA0246B3
:10F3A0000B4630463946FDF751F806460F46FDF745
:10F3B000B3FC00220390002330463946FDF76EFC73
:10F3C00050B10398FDF78EF932463B46FDF75CFCE1
:10F3D00010B9039B013B0393039B162B59D8039A47
:10F3E000564B03EBC20351EC190BD3E90023FDF795
:10F3F00055FC00284FD0039B013B039300230C9343
:10F40000109B5D1B6B1E089349BFC5F101030023D0
:10F410000793002354BF07930893039B002B3CDB07
:10F42000089B039A13440B92089300230993209B93
:10F43000092B00F28780052BC5BF043B0025012561
:10F440002093209B023B032B00F28780DFE803F030
:10F450002E3B395ADDE910531D4405F23243202B6F
:10F46000C6BFC3F1400305F21240C3F1200305F10A
:10F47000FF35C5BF0BFA03F326FA00F006FA03F0D6
:10F480001843FDF71FF901230646A1F1F8770E9303
:10F490006BE70123B3E70C90B2E7079B039A9B1A33
:10F4A00007935342099300230B93C0E700230A9369
:10F4B000219B002B54DC01231A46CDE90533219210
:10F4C0000CE00123F3E70023219A0A93039B1344E2
:10F4D00005930133012B0693B8BF01230022606A14
:10F4E0004260042202F1140641689E423CD9204643
:10F4F0001BF0E4FF049000283AD1114B02464FF470
:10F50000D571BFE60123DFE761436F63A787D23F71
:10F51000B3C8608B288AC63FFB799F501344D33F02
:10F52000ADBD0400C4BD04000000F07FA9BD04000F
:10F53000A0BD04000C5A04000000F83FE8270400B6
:10F5400038BE0400012500230A9520934FF0FF33B5
:10F550000022CDE905331223B1E701230A93F5E731
:10F56000219BCDE90533B9E7013152004160B9E78C
:10F57000636A049A1A60069B0E2B00F29D80002D90
:10F5800000F09A80039B002B32DD03F00F03B64A94
:10F5900002EBC303D3E90089039BD8054FEA231785
:10F5A00016D5B24B07F00F070325D3E9082351EC1A
:10F5B000190BFDF72BFA82468B46AC4E57B94246E3
:10F5C0004B4650465946FDF721FA82468B4628E0C5
:10F5D0000225F2E7F90708D5404649460135D6E944
:10F5E0000023FDF7E9F8804689467F100836E5E7F5
:10F5F00000F09B80039B02259C4F5E429A4B06F0D5
:10F600000F02361103EBC20351EC190BD3E90023AF
:10F61000FDF7D2F8002382468B46002E7AD1002BCC
:10F62000D3D10C9B002B00F082800022904B5046DF
:10F630005946FDF733FB002879D0069B002B76D086
:10F64000059B002B36DD039B5046594600225F1E6A
:10F65000884BFDF7B1F8013582468B46059E28465A
:10F66000D046FDF73FF852465B46D946FDF7A4F871
:10F670000022814BFCF7EAFE8246A1F1507B002E6E
:10F6800058D100227D4B40464946FCF7DDFE5246EC
:10F690005B4680468946FDF71FFB002840F09382B9
:10F6A00052460BF1004340464946FDF7F7FA002861
:10F6B00040F087825BEC19AB119B002BC0F24881B4
:10F6C000039A0E2A00F34481674B03EBC203D3E98C
:10F6D0000089219B002B80F2D580069B002B00F334
:10F6E000D18040F06D820022644B40464946FDF7D0
:10F6F00063F852465B46FDF7E5FA069E374600285A
:10F7000040F043823123049D05F8013B039B013304
:10F7100003933EE2F20705D50135D7E90023FDF753
:10F720004BF801237610083777E7022579E7039F26
:10F73000069E94E704994C4B314403EBC6030D91AC
:10F740000A9953E90223002943D000204C49FDF7D0
:10F750005DF952465B46FCF777FE049D82468B4678
:10F7600049464046FDF7D8FA0646FCF7BBFF02467D
:10F7700030360B4640464946FCF766FE52465B462D
:10F7800005F8016B80468946FDF788FA002863D1A9
:10F7900042464B4600203649FCF756FE52465B4631
:10F7A000FDF77CFA002840F0B5800D9B9D4281D08A
:10F7B0000022304B50465946FCF7FEFF002282469D
:10F7C0008B46404649462B4BFCF7F6FF8046894660
:10F7D000C6E750465946FCF7EFFF0D9B82468B4625
:10F7E000049D0F9349464046FDF796FA0646FCF7FE
:10F7F00079FF02460B46404649463036FCF724FE68
:10F800000D9B05F8016B80469D4289464FF0000232
:10F8100024D11B4B50465946FCF718FE02460B46B6
:10F8200040464946FDF758FA002873D152465B46D8
:10F8300000201349FCF708FE02460B4640464946A5
:10F84000FDF72CFA00283FF435AF0F9D6B1E0F9388
:10F8500015F8013C302BF8D0039749E0054BFCF735
:10F86000ABFF80468946BDE7E8270400C0270400B7
:10F870000000F03F0000244000001C400000144045
:10F880000000E03F56465F46049D42464B463046E8
:10F890003946FDF7BBF8FDF73FFA8246FCF722FF39
:10F8A00042464B46FCF788FF024630460AF13006D6
:10F8B0000B463946FCF7C8FD05F8016B049E02466D
:10F8C000069F0B46AE1BB74235D1FCF7BFFD424643
:10F8D0004B4606460F46FDF7FFF9D0B942464B4668
:10F8E00030463946FDF7D0F910B11AF0010F10D1AA
:10F8F000204618EE101A1BF021FE002303982B70EF
:10F900000130229B1860249B002B3FF4F1AC1D605A
:10F91000EEE4039F2B461D4613F8012D392A06D12C
:10F92000049A9A42F7D13022049901370A701A7862
:10F9300001321A7090E70022A44BFCF73DFF002231
:10F94000002306460F46FDF79FF900289DD0CFE71C
:10F950000A9A002A00F0D580209A012A00F3B98083
:10F960000E9A002A00F0B18003F23343099E079DEE
:10F97000079A012120461A440792089A1A440892CD
:10F980001BF090FE0746002D0CDD089B002B09DDC7
:10F99000AB42079AA8BF2B46D21AED1A0792089AD3
:10F9A000D31A0893099B1BB30A9B002B00F0AD8070
:10F9B000002E13DD3946324620461BF031FF18EE8B
:10F9C000102A0146074620461BF082FE804618EEAC
:10F9D000101A204608EE108A1BF0B0FD099B9A1BF6
:10F9E00006D018EE101A20461BF01AFF08EE100A77
:10F9F000012120461BF056FE0B9B0646002B40F3D0
:10FA000086801A46014620461BF00AFF209B0646C8
:10FA1000012B7FDD4FF00008336906EB8303186983
:10FA200022F05EF9C0F12000089B184410F01F007E
:10FA300000F09180C0F12003042B40F38980C0F1D5
:10FA40001C00079B054403440793089B0344089349
:10FA5000079B002B07DD18EE101A1A4620461BF0F4
:10FA600039FF08EE100A089B002B05DD31461A46C7
:10FA700020461BF02FFF06460C9B002B6DD0314615
:10FA800018EE100A22F07BF9002866DA039B18EEC4
:10FA9000101A0A222046013B039300231BF070FD3D
:10FAA0000A9B08EE100A002B00F0AF8100233946B4
:10FAB0000A2220461BF064FD059B0746002B00F33D
:10FAC0008D80209B022B50DC88E0109BC3F1360315
:10FAD0004CE7069B5E1E099BB342B7BF099B9E1B6A
:10FAE0000996F21ABFBF0B9B00269B180B93069B2F
:10FAF000002BB7BFDDE90623DDE906359D1A00239B
:10FB000036E7099E079D0A9F3DE7099A69E7209B12
:10FB1000012B18DCBAF1000F15D1CBF3130393B905
:10FB20002BF000431B0D1B0583B1079B4FF0010811
:10FB300001330793089B013308930B9B002B7FF441
:10FB40006BAF012070E74FF00008F6E79846F4E746
:10FB50003FF47EAF18461C3073E7069B002B37DC62
:10FB6000209B022B34DD069B0593059B6BB9314628
:10FB7000052220461BF004FD0146064618EE100A39
:10FB800022F0FDF800283FF7BDAD219B049DDB432B
:10FB900003934FF00008314620461BF0CFFC002FA6
:10FBA0003FF4A6AEB8F1000F05D0B84503D04146EA
:10FBB00020461BF0C3FC394620461BF0BFFC97E6ED
:10FBC00000263746E1E7039737469BE500002440CF
:10FBD0000A9B002B00F0CA80069B0593002D05DDD3
:10FBE00039462A4620461BF075FE0746B8F1000F3D
:10FBF0005BD0796820461BF061FC054628B9874B2D
:10FC0000024640F2EA21FFF73DBB3A6907F10C01D9
:10FC10000C300232920021F07FFB0122294620465F
:10FC20001BF058FE049BB846074603F10109DDE9C5
:10FC30000423134408930AF001030793314618EE96
:10FC4000100A21F010FE4146059000F1300A18EE2E
:10FC5000100A09F1FF3B22F092F83A46069031462D
:10FC600020461BF0A7FEC268054602BB014618EEFF
:10FC7000100A22F084F802462946204609921BF019
:10FC80005DFC209B4D46099A43EA0201079B0B430A
:10FC90000FD1BAF1390F2AD0069B002B02DD059B4C
:10FCA00003F1310A8BF800A075E73846BAE7012264
:10FCB000E2E7069B002B04DB20990B4307990B43DB
:10FCC00022D1002AEEDD18EE101A012220461BF088
:10FCD00001FE314608EE100A22F051F8002803DC3C
:10FCE000E0D11AF0010FDDD0BAF1390FD7D13923A5
:10FCF0008BF800302B461D46013B15F8012C392AA4
:10FD000070D001321A7046E7002A07DDBAF1390FC8
:10FD1000EDD00AF101038BF800303CE7089B09F8AD
:10FD200001AC994546D018EE101A00230A2220464D
:10FD30001BF026FCB84508EE100A4FF000034FF008
:10FD40000A024146204606D11BF01AFC80460746AF
:10FD500009F1010972E71BF013FC394680460023C4
:10FD60000A2220461BF00CFC0746F1E7069B059390
:10FD7000049D314618EE100A21F075FD049B00F138
:10FD8000300A05F801ABEA1A059B934209DD18EE2B
:10FD9000101A00230A2220461BF0F2FB08EE100A7C
:10FDA000E7E7059B4FF00008002BCCBF1D4601255F
:10FDB000049B1D4418EE101A012220461BF08AFDF8
:10FDC000314608EE100A21F0DAFF002892DC02D159
:10FDD0001AF0010F8ED12B461D4613F8012D302A43
:10FDE000FAD0D8E6049A9A4285D1039B0133039353
:10FDF00031231370CFE60A4BFFF798BA249B002BF0
:10FE00007FF471AA074BFFF791BA059B002BAFDC7B
:10FE1000209B022B3FF7A9AEAAE700BF38BE040023
:10FE20000B5A0400A0BD0400492101481CF0FABD92
:10FE30001434040037B50546684608F025FE30B195
:10FE40002A46452118481CF0EDFD002408E012F078
:10FE5000D9F82A46044630B9452114481CF0E2FD81
:10FE6000204603B030BD12491FF0A4FE40B92A4617
:10FE7000452110481CF0D6FD204612F001F8E4E7B9
:10FE800020460D4A0D491FF095FE0028EFD0DDE910
:10FE90000001FCF763FC02460B46204608491FF0B0
:10FEA0005DFE0028DCD1E2E771340400B0340400C8
:10FEB00002350400083504004E35040053350400B3
:10FEC0005F35040084B02DE9F04F2DED028B99B021
:10FED00024AC84E80F00DDE928459DF890802A983D
:10FEE000FCF712FCDDE92667B8F1010F00F0AB80EA
:10FEF000B8F1020F00F0A980594B5A4AB8F1030F2C
:10FF000018BF1346CDE90201049332463B4649210E
:10FF1000CDE9004554481CF085FDB8F1020F40F0D2
:10FF20008B80492151481CF07DFD3046394621F037
:10FF3000CAF9FEF715FBFCF7EFFE2946824620467C
:10FF400021F0C1F9FEF70CFBFCF7E6FE39468346CB
:10FF5000304621F0B8F9804650468946FCF7C2FB8E
:10FF600002460B4640464946FCF76EFA0022404BDB
:10FF7000FCF722FC41EC180B2046294621F0A3F99E
:10FF8000804658468946FCF7ADFB02460B46404684
:10FF90004946FCF759FA0022354BFCF70DFC0022CC
:10FFA00080468946304600233946FCF795FE0023FB
:10FFB000002829464FF00002204614BF4E26532643
:10FFC000FCF78AFE002814BF45235723294A322113
:10FFD00006938DED008B5346CDE90489CDE9026B84
:10FFE0000BA81AF0F1FA0BA8FDF72BF90BABC0F137
:10FFF00032011D180DF12D000991FDF722F90022A3
:020000022000DC
:10000000134609990BAC904204F101041FDC1A4A13
:1000100028461AF0D9FA1948FFF70CFF044658B1E0
:1000200017490BAA1FF0C6FDA8B9452115481CF0B9
:10003000F9FC204611F024FF19B0BDEC028BBDE89D
:10004000F04F04B07047104B5CE7104B5AE726782E
:1000500001327340D7E7204600F024FAE9E700BFF9
:1000600070350400753504007D350400C335040087
:1000700000004E40F6350400233604004789040092
:100080002A3604002F360400623504006B35040064
:1000900037B50546CDE90023FFF7CCFE0446A0B1F5
:1000A000DDE900230A491FF059FD50B92A464521D0
:1000B00008481CF0B7FC204603B0BDE8304011F002
:1000C000DFBE204600F0EEF9F5E703B030BD00BF1B
:1000D0002A36040066360400F0B54921214885B06F
:1000E0001CF0A0FC4FF41600002100F097F8A8BB0C
:1000F00057211D481CF096FC3C211C4800F030FBA9
:100100004FF0FF364FF0FF37194C1A4D4FF4403285
:1001100020460023CDE9006718F0C4FE03A800F0D4
:1001200061FBB8B9BDF80C20492128461CF07AFCC7
:10013000BDF80C00FCF7C6FA02460B460E48FFF766
:10014000A7FFBDF80E00FCF7BDFA02460B460B48B0
:10015000FFF79EFF204618F0F7FED7E74921084831
:10016000C8E700BFA1360400DB360400C5FE01006D
:10017000304E01203E3704005F370400643704002E
:1001800018370400492108B510481CF04BFC002129
:100190004FF4202018F0CEF90BF0F0F910F1100F09
:1001A000024604D145210A481CF03CFC04E048B159
:1001B000452108481CF036FCBDE8084000210648EF
:1001C00021F00AB849210548EEE700BF793704005D
:1001D0009C370400FB370400F05001204C38040029
:1001E00008B51FF070F928B1BDE8084002210248A7
:1001F00020F0EFBF08BD00BFF050012007B500227E
:10020000CDE900010221044820F0EFFF003818BFBB
:10021000012003B05DF804FB0051012007B5002266
:10022000CDE900010221044820F0D9FF003818BFB1
:10023000012003B05DF804FBF050012037B50546FE
:100240000C46FFF7DBFF48B100220421CDE9005442
:10025000034820F0C4FF031F5842584103B030BD8B
:10026000F050012007B5002200230221CDE9002330
:10027000044820F0B4FF003818BF012003B05DF837
:1002800004FB00BFF05001201021014820F0A1BF65
:10029000F050012007B50378013B0A2B34D8DFE882
:1002A00003F006330D132527333320332E000221AC
:1002B000174803B05DF804EB20F08BBF49211548C7
:1002C0001CF0B0FB0821F3E7002200230821CDE950
:1002D00000230F4820F083FFB0B149210E481CF0E5
:1002E000A1FB03B05DF804EBFFF7CEBF0421DFE70D
:1002F000D0E9021003B05DF804EB00F00DBA03B0D2
:100300005DF804EB00F0BCB903B05DF804FB00BF7E
:10031000F050012074380400BF38040007B50022F3
:10032000CDE900011021044820F059FF003818BF22
:10033000012003B05DF804FBF050012007B5002256
:1003400000231021CDE90023044820F048FF0038A5
:1003500018BF012003B05DF804FB00BFF05001207E
:1003600008B50178D9B9037A03F0FB03012B10D04B
:100370000B4820F031FFFFF775FF80B1FFF7DEFF7C
:1003800068B9492107481CF04DFBBDE80840FFF75C
:100390007BBF0221BDE80840014820F01ABF08BD1C
:1003A00000510120EF3804001FB50190FCF749FF10
:1003B000013020F027FF0199039040B945210D48F5
:1003C0001CF030FB6FF00B0005B05DF804FB21F072
:1003D0008EF900220023084803A916F0E7F8002848
:1003E000F2D0452105481CF01DFB039820F003FFC7
:1003F000E8E700BF2D390400CC4F0120603904002C
:1004000030B587B04FF0FF324FF0FF33214801A9DC
:1004100016F05CF9044640B1024645211E481CF026
:1004200001FB6442204607B030BD4FF0FF314FF072
:10043000FF30FFF703FF2146102202A820F08CFFB7
:100440000198FCF7FEFE019B029003934FF4817329
:1004500002A8ADF810300BF0BBF9104D0446B8B14E
:10046000024645210E481CF0DDFA0198FFF79CFF7B
:100470002B680133052B2B6006DDFFF705FF4FF4DA
:10048000A020002118F056F8019820F0B4FEC9E72A
:100490002860F9E7CC4F01209D3904009890012095
:1004A000E139040038B538B945210C481CF0BAFAD6
:1004B0006FF01504204638BD1FF0D5FA054630B957
:1004C000452107481CF0AEFA6FF00B04F2E7FFF786
:1004D0006BFF0446284620F08EFEEBE76C3A0400E2
:1004E000983A0400F0B5492189B050481CF09AFAB6
:1004F00049214F481CF096FA4E481EF0E6FF07F0DF
:100500002DF9024650B145214B481CF08BFA45218C
:100510004A481CF087FA4A4D4A4C40E049214A4873
:100520001CF080FA49481EF008FF02460028F2D06D
:1005300045214748E9E7452146481CF073FA49211F
:10054000454823E045481CF06DFA06238DF8083035
:1005500003238DF80C30002302AA049203AACDE9EC
:1005600005238DF80D3006A804AB07930BF0AAF90C
:10057000024618B145213A481CF054FA4FF0FF31B9
:100580004FF0FF30FFF7CAFE492136481CF04AFA07
:10059000FFF7F8FD4FF42030002117F0CBFF492181
:1005A00028461CF03FFA4FF0FF314FF0FF30FFF7C5
:1005B00025FE492120461CF035FA49212A481CF025
:1005C00031FA00230793294B06A806930AF0A4FFEB
:1005D00002460028AFD1264E264F1E224921304622
:1005E0001CF020FA00200BF01FF8024618B145213C
:1005F00038461CF017FA4FF470200021FFF70EFE6A
:100600000028EAD04FF0967200231421CDE9002390
:100610001948002220F0E3FD04284FF0490191D051
:1006200016481CF0FFF9FFF7ADFD88E7D53A040046
:10063000163B0400E10102002A3B0400653D040072
:10064000B53B0400E33B04005C3B04006103020093
:10065000873B04001E3C0400413D0400D53C0400DF
:10066000F13C0400203D0400013C0400950202001E
:10067000513C04007A3C0400F0500120983C0400F6
:100680000348572108B51CF0CDF9012000F0DCFE2D
:10069000BE3D0400F0B503780446012B87B00FD1AE
:1006A000084B1F6867B16D4600F118060FCE0FC5E5
:1006B00096E8030085E8030004F108000FC8B84776
:1006C00007B0F0BD9C90012008B5C8B90D48FCF7F3
:1006D000B8FD38B10B490C4814F038FC10B10B4888
:1006E0001BF083FF0A48FCF7ACFD48B108490648F7
:1006F00014F02CFC20B1BDE8084006481BF075BF83
:1007000008BD00BFDD3D04002AA20400ED7904000D
:10071000FC3D0400157A040038B504460D460CF083
:10072000B9F90246B0B110F14D0F03D057210A4874
:100730001CF078F9294620460DF028FE024648B103
:1007400020F002034F3305D0BDE83840572103485D
:100750001CF068B938BD00BF143E0400413E0400DF
:1007600030B58BB004460D461EF0ADFE18B95721CA
:1007700016481CF057F9164B16481C6008F060FD2F
:10078000044638B14521024613481CF04BF9204677
:100790000BB030BD114B02211B8801AA02A8ADF895
:1007A000043008F05DFD2823ADF80C30012302A8C9
:1007B000ADF822508DF80E3008F086FD0446002872
:1007C000E5D0024645210648DFE700BF6E3E040043
:1007D0009C90012095060200AF3E04008027040093
:1007E000E83E04000023F0B587B00193ADF808306F
:1007F000FD2304468DF80030324815F0F9FA012542
:1008000002230646CDF80CD004958DF81430836889
:1008100003A99F682A464423B847014628B12A48BD
:1008200019F0A2FE284607B0F0BD00214FF4A470D5
:1008300017F080FE01AB03930623049303238DF886
:100840001430B36803A99F682A4644233046B8474A
:10085000014608B11D48E3E79DF807209DF80830E0
:10086000DFED1B6A03EB022307EE903A9DF80420AC
:100870009DF805309FED176A03EB022307EE103A4F
:10088000B8EEC77A27EE267AC7EE066A9FED127A8F
:1008900036EEC77ABCEEC77AF8EEE77A17EE103A72
:1008A0009FED0E7A67EE877A87EE867AF1EE087A08
:1008B00077EE677AFCEEE77A238017EE903A638052
:1008C000B1E700BF263F04002C3F0400593F04005D
:1008D00000002F4300FF7F47000034420000FA422F
:1008E00030B50A4C0A44914200D130BD11F8013BA9
:1008F00058400309E35C83EA0013DDB2C3F303133A
:10090000E05C80EA0510C0B2EDE700BF853F04005F
:10091000032808B506D91CF0C4FE092303604FF074
:10092000FF3008BD044B03EB40100830D0E8AF3F68
:10093000002BF0D00020F4E7A090012070B5044611
:100940000D461646FFF7E4FF002809DB064B600161
:1009500045B11A185268AA4204D01CF0A2FE0660E3
:10096000002000E0185870BDA090012070B504462A
:100970000E461546FFF7CCFF00280CDB074B610144
:1009800003EB4414626832601DB101F10C021A4499
:100990002A60585870BD0020FCE700BFA0900120DD
:1009A00010B500244FF0FF324FF0FF33144815F01C
:1009B00023FF144A6301D2E8AF1F79B10134042C3C
:1009C00002F12002F6D11CF06CFE17234FF0FF3429
:1009D00003600B4815F0E2FF204610BDD2E8EF0F90
:1009E0000130C2E8EC0FBCF1000FF7D10648C21885
:1009F000C15051600C33184420F064FAE9E700BF9D
:100A0000184F0120A8900120A090012010B40446A6
:100A100010460A4B620103EB44149950606048B1E0
:100A2000C4683CB10C3213445DF8044B40F205122B
:100A30001BF053BD5DF8044B704700BFA090012030
:100A400030B50D49400100F108030B44D3E8AF2F46
:100A500082B1541ED3E8EF5F954204D1C3E8EC4F56
:100A6000BCF1000FF6D1F1D1012A01BF00230A1811
:100A70000B50536030BD00BFA0900120436870B59B
:100A800003F00303022B04460E46816010D0032BB3
:100A900004D0012B0FD10025284601E00568002075
:100AA0000023636010B1314618F018FD284670BD70
:100AB00000250068F4E74522044905481BF078FF4B
:100AC000452102481BF06DFF0025E8E7953F040033
:100AD000B83F04000B6801330B60014B1B681847DB
:100AE000C8450120014B1860704700BFC845012070
:100AF00007B50B46002102460191034801A9FCF706
:100B0000ABFB03B05DF804FBD50A020030B500254D
:100B100085B0CDE90101044601A905480395FCF71C
:100B20009BFBDDE902309842B8BF255405B030BDCB
:100B3000C5C503002DE9F04F2DED028BB0F81C90D8
:100B400083B019F0080F044601921FD001290CBF91
:100B500049F0100949F02009A0F81C9004F1140094
:100B600015F0DEFC40B99B499B48B9221BF020FFE1
:100B7000B92198481BF015FF019B83F31188BFF33F
:100B80006F8F03B0BDEC028BBDE8F08F934FDFF8A1
:100B90004882DFF840A209F00709022906D1204661
:100BA0001BF03DFD0028D9D0012867D1D4F818B03A
:100BB000A38BBBF1000F1CDA0026256823F0070386
:100BC000C4E9006643F00103A3830096A38B03F0FE
:100BD00007024A4508EE102A03D0A268002A40F016
:100BE000FF801DB9009A002A00F03F814FF00009F4
:100BF000F8E003F00702511F012921D8002123F05A
:100C00000703062A25689BB2C4E900110AD13DB149
:100C10002946E28B0968013292B20029FAD1E283B7
:100C200043F002032046A3831BF0F9FC002800F0E8
:100C3000CC80A38B43F02003A38300230093C5E75C
:100C4000042A0FD123F007039AB22046A2831BF097
:100C5000E6FC002800F0BB8042F02002A2830025C1
:100C60000095B3E73946404640F21B121BF0A0FE48
:100C700040F21B1138461BF094FEF0E7032832D1F6
:100C8000B9F1000F0AD0394640464FF4AB721BF061
:100C90008FFE4FF4AB7138461BF083FE236853B9C7
:100CA0003946404640F257121BF082FE40F257117F
:100CB00038461BF076FE23691B68009353B939460A
:100CC00040464FF4AD721BF073FE4FF4AD713846E1
:100CD0001BF067FEA38B23F0070343F006030025F8
:100CE000A383AB4672E704282FD1B9F1020F0AD0D3
:100CF0003946404640F25D121BF05AFE40F25D114B
:100D000038461BF04EFEE38B53B1394640464FF454
:100D1000AF721BF04DFE4FF4AF7138461BF041FE31
:100D200023695B68009353B93946404640F261122B
:100D30001BF03EFE40F2611138461BF032FEA38BE1
:100D400023F0070343F00403C9E705282FD1B9F1C5
:100D5000010F0AD0394640464FF4B2721BF028FE0C
:100D60004FF4B27138461BF01CFE236853B9394664
:100D7000404640F265121BF01BFE40F265113846FA
:100D80001BF00FFE23699B68009353B93946404618
:100D90004FF4B4721BF00CFE4FF4B47138461BF0E4
:100DA00000FEA38B23F0070343F0050397E700251C
:100DB00040F26B12394640461BF0FAFD40F26B11CF
:100DC00038461BF0EEFD00958BE70090FEE60546E9
:100DD00046E700BFF23F0400B83F0400D03F0400E4
:100DE0004FF0010943F00803A38304F114031846EC
:100DF00008EE903A15F094FB40B951464046B922AE
:100E00001BF0D6FDB92150461BF0CBFD019B83F3AF
:100E10001188BFF36F8FB9F1000F35D1002D46D186
:100E2000009B13B120462A4998474FF02003EFF367
:100E3000118B83F31288BFF36F8F18EE900ACDF8F1
:100E400004B015F05FFB40B9514640468E221BF0BE
:100E5000AFFD8E2150461BF0A4FD18EE900A15F050
:100E60006FFBA38B23F00803A383A38BDA0627D59C
:100E7000012123F01003A383B4F81C9009F00709A3
:100E800000297FF48AAE69E6A1680029C6D0D1F8AE
:100E900000904B6818EE102A1E4620465B46B0476D
:100EA000B9F1000FBAD04946D9F80090F1E72946C8
:100EB0005B4618EE102A20462D681BF0CCFBADE7F0
:100EC00013F020011EBF23F020030221A383D3E7E8
:100ED000D50E0200F8B504460D4600F114064FF099
:100EE0002003EFF3118783F31288BFF36F8F30462F
:100EF00015F008FB40B90A490A488E221BF058FD3C
:100F00008E2107481BF04DFD304615F019FB3A467F
:100F10002046A5610121BDE8F840FFF70BBE00BFE8
:100F2000F23F0400B83F04002DE9F04704460F46A5
:100F30001BF0A7FB051E54DB04F114094FF020033E
:100F4000EFF3118A83F31288BFF36F8F484615F0D1
:100F5000D9FA40B9334934488E221BF029FD8E213D
:100F600030481BF01EFD484615F0EAFA4FF6FF71B7
:100F7000E38BA28B8B4202F007064AD0022E1FD1D0
:100F800035464FF001080133E383484615F0C8FAAF
:100F900040B924492448B9221BF00AFDB92121484F
:100FA0001BF0FFFC8AF31188BFF36F8FB8F1000FBD
:100FB00017D000233246394620461BF04CFB10E088
:100FC000930701D0062E0FD100233B606368EBB975
:100FD000C4E900773546F6B9524602212046FFF7AC
:100FE000A9FD2846BDE8F087052E17D0012E0AD0AE
:100FF0000E490D4840F2C9121BF0DAFC40F2C9114B
:101000000A481BF0CEFC6FF0040504E01F60676027
:10101000E0E76FF00A054FF00008B6E76FF08505CE
:10102000F9E700BFF23F0400B83F0400D03F0400DE
:101030002DE9F843C36844695F1E40F26C7305698B
:10104000E1170135E41841F10001022D8CBF0023A6
:101050000123E41A61F100010029804655DA6FF49A
:10106000C7704FF4C8720023201861F10001FBF72C
:10107000EBFE284B024603FB0044D8E900903C23DA
:10108000D8F80880C617C8FB0306B446A0FB0306C1
:10109000022D8CBF6FF0020E4FF0090E03FB0C66A1
:1010A00010EB090C40F26D104FEA940300FB04337F
:1010B0004FF06400B4FBF0F405EB0E004FF099051F
:1010C00005FB00F04FF0050500F10200B0FBF5F064
:1010D0003B44A3EB0403104C0344A2FB040204FBB7
:1010E000012146EBE9761B180C480D4A41F100013D
:1010F0001B18A3FB020361F1000102FB013110EB9D
:101100000C0041EB0601BDE8F8834FF4C8720023E0
:101110002046ACE770FEFFFFB13A02009405F5FFF0
:101120008051010070B579B305680C1F641BE60897
:1011300024F007042C446388DB0708D413491448BF
:10114000AC221BF035FCAC2110481BF02AFC3146C8
:1011500028461BF0C2FA304435F83030C01A8642B7
:1011600008D00A490A48B4221BF022FCB4210748DF
:101170001BF017FC6388314623F001032846638087
:10118000BDE870401BF068BB70BD00BF1F4004008D
:10119000B83F04004B422DE9F04703EA010731EA6A
:1011A0000303144606681BD0042F3D4628BF0425C0
:1011B000B946CF1B07F1FF3A1AEA070F0AD03249A6
:1011C00032484FF4A0721BF0F3FB4FF4A0712E488D
:1011D0001BF0E7FB7CB94FF000094846BDE8F087FB
:1011E000042904D8BDE8F04711461BF067BB4FF057
:1011F00000090425DEE7B368B3EBD40FEBD904F1A3
:101200000B013944491B3046C9081BF0BEFA804621
:101210000028E0D009F1040505EBC005354455442C
:101220007F422F40A7EB09094C44A9F1040307347E
:101230009B1B24F00704A41BB0EBD30F4FEAD3078A
:101240004FEAE40408D201463A4630461BF0EAFA77
:10125000414630461BF046FA394630461BF03DFA0F
:101260003844844208D23946304622461BF0DAFA26
:10127000214630461BF036FA06EBC706738843F06A
:1012800001037380A9E700BF1F400400B83F0400BA
:10129000B2F5802F2DE9F04180460C4616465FD30B
:1012A000364940F2E31236481BF082FB40F2E3116C
:1012B00032481BF076FB043EE51D264425F0070569
:1012C00026F00706761B172E4FEAD6070AD82B49B9
:1012D0002B4840F2F3121BF06BFB40F2F31127484E
:1012E0001BF05FFBB7FA87F40023C8F80050C4F185
:1012F0002008C4F12404A4000734E408EB60631C54
:10130000BB42AF600AD91D491D484FF401721BF062
:101310004FFB4FF4017119481BF043FB002205F10C
:10132000100303EB8808984525D1630043F00103BF
:101330006B803B1B05EBC40158002A804880A9192B
:1013400025F834404A80AB5305EBC7035A88214641
:1013500042F001022846BDE8F0415A801BF0C2B9B4
:10136000042AA8D805494FF4F57205481BF020FB64
:101370004FF4F5719CE743F8042BD4E71F400400B9
:10138000B83F0400F0B5024601680A270020074E66
:101390000C46237801319D5D6D0701D41460F0BDCA
:1013A00007FB0033A3F13000F2E700BF5DBC04008F
:1013B0002DE9F84F15469A46D378224A6F2B13F839
:1013C00002B080460F460BF0030B29D024D8582BCF
:1013D00014BF0A261026DDF8289032460023404626
:1013E0003946FBF781FD092AD4B21ED83034B04506
:1013F000E4B277F1000309F8014D01D3D14511D8CA
:101400002B789B0605D5082E15D1AB7843F0080341
:10141000AB704846BDE8F88F03F0F703702BD7E7B1
:101420000826D8E780460F46D7E7BBF1010F0CBF6F
:1014300037345734DBE7102EEBD1AB7843F0100391
:10144000E6E700BF5DBC040008B54FF02002EFF3F3
:10145000118382F31288BFF36F8F01F019FF0348E5
:101460001BF0C3F801F08AFAFCE700BF4640040015
:101470004FF02002EFF3118382F31288BFF36F8FD6
:101480000121044AC2F8401583F31188BFF36F8F1E
:10149000002070470090034020B1034B800143F0CF
:1014A00001031847704700BF902704002DE9F84F4B
:1014B000074688461646144608EB06052D1B0CB950
:1014C000BDE8F88F7B1E032B96BF214A3F21D15CDC
:1014D00020481BF08AF84FF00009DFF888A0DFF8F9
:1014E00088B04C452BD9584615F809101BF07DF8EB
:1014F00009F10109B9F1080FF3D117481BF075F88C
:101500004FF00009DFF864A0DFF864B04C451AD949
:1015100015F80910114B5846CA5C12F0970F08BF16
:101520002E211BF062F809F10109B9F1080FEDD184
:101530000B481BF05AF8072CC2D9083CBCE75046B0
:101540001BF053F8D4E750461BF04FF8EBE700BF11
:101550008440040073400400824004005DBC040029
:10156000415104007E4004007840040080400400A3
:10157000BE5604002DE9F04F85B00E4691460A464E
:1015800002A904461BF0FBFA051E73DB94F8362013
:10159000A9B210461BF053FA3146074610461BF01D
:1015A0004EFA0121064610461BF049FA082F304436
:1015B00086B208D9374938484B221BF0F9F94B213C
:1015C00034481BF0EEF904F10C0A4FF0FF324FF0F3
:1015D000FF33504615F010F90546002856D1D4E9DE
:1015E00009134A683B44334493422BD9804694F80C
:1015F00006B020461BF076FC236AB8F1000F08BF46
:101600008046984201463BD0AB4505F1010335DCED
:10161000B8F1000F34D0D8F8042007F108033344A0
:101620009A422DD3A28E41460132204692B21BF03F
:10163000E8FA0546D8B90823A362A38EC4F824802B
:101640000133A3862046D4E90912009702AB1BF0B0
:1016500064FA0546B8B9636AC9F80030A36AC9F8E4
:101660000430A06A0744C9F808703744A76250469E
:1016700015F094F9284605B0BDE8F08F1D46B8E78F
:101680006FF01B05F3E76FF00405F0E76FF0150549
:10169000F0E700BF88400400B83F0400F0B50546FD
:1016A0009BB00F4614460021302202A81FF054FEC2
:1016B000002D00F08580002C00F082801B238DF827
:1016C00008301FF0B9FC4FF47A720026A0FB020329
:1016D00002FB0131C00B4FF47A72002340EA414013
:1016E0003146FBF701FC384A0244130A110201F4A7
:1016F0007F0103F47F430B4343EA026343F0830318
:10170000E8682A610C9330223346CDE9006602A9CD
:101710001BF01CFD00280FDB314630220EA81FF005
:101720001BFEA9683A4628461BF097FDB04205DA31
:101730001BF0B7FF006840421BB0F0BD37D0E8682F
:1017400030223346CDE900660EA91BF056FD002875
:10175000EEDB30282ED1149B2A691BBA9A4202D0A4
:101760006FF01500E8E79DF8383003F00703042B0D
:10177000F6D19DF8393003B3189B199A1BBA12BAE7
:1017800053EA0201ECD0002BA2600ADA0F4A93421E
:10179000E6D900200E4A9B1840F1FF32C4E900321E
:1017A000CAE700200A4A1A44C4E90020C4E76FF0DF
:1017B0007300C1E76FF07900BEE76FF00F00BBE781
:1017C0006FF00D00B8E700BF807EAA837F7EAA83FA
:1017D0008081557C2DE9F04705460E4617461C4C86
:1017E000DFF87490DFF874804C4508D941461948F9
:1017F000D6221BF0DDF8D62140461BF0D2F84C452E
:1018000007D31BF04EFF6A2303604FF0FF30BDE8A3
:10181000F0872368AB4200D0BBB9636843B9414647
:101820000C48DC221BF0C4F8DC2140461BF0B9F860
:101830003A46314628466368984730B13A463146C1
:101840002846A368BDE8F04718470C34CCE700BF32
:1018500018250400B83F040024250400EA400400D1
:101860002DE9F04F06464FF000089BB0049110465A
:1018700019461D4614461FF0E5FBB146C2464746D1
:101880000BAB0893CDE90501049B0393039B03BBBA
:10189000002F60D0B5F1FF3F08BFB4F1FF3F16BF86
:1018A0004FF47A704FF0FF34A4FB0040049B1CBF40
:1018B000E40B44EA404400934FF4827233464146BD
:1018C000504601941BF0E4FB074638461BB0BDE8C8
:1018D000F08FD9F80000002837DB0AAA09A9FFF722
:1018E00045F8079088B34FF0FF324FF0FF330A9866
:1018F0001BF0DDFB1AAB019308AB00934FF4817230
:101900004B46079909981BF0C3FB10F1780F8346EB
:101910000DD010F1120F07990CD1BAF1000F02D1BE
:101920008846DDF824A04FF0000B012702E00024D8
:101930002546A3460A981BF0BCFBBBF1000F04DA56
:101940001BF0AFFECBF1000336E0039B09F1080961
:10195000013B03939AE754EA050310D0B5F1FF3F2A
:1019600008BFB4F1FF3F0AD017F0C8F9059B1C1A55
:10197000069B63EB0105002DBCBF3C46254608993C
:101980000BAF3F4BC91B891059432B4622463846A3
:1019900017F0CEFC00F10B030B2B814608D840F664
:1019A000810828FA03F86FEA080818F0010807D040
:1019B0001BF077FEC9F100034FF0FF37036084E7A7
:1019C0000897B1464746DDF810A0BAF1000F1CD1C8
:1019D000B8F1000F3FF479AF002F7FF476AF54EAEF
:1019E00005033FF472AFB5F1FF3F08BFB4F1FF3F0D
:1019F000C5D017F083F9059B1C1A069B63EB010504
:101A0000012C75F10003BADA5FE74FF00003D9F853
:101A10000000A9F80630002829DB0AAA09A9FEF768
:101A2000A5FF834620B92023A9F8063001371EE020
:101A30004FF0FF324FF0FF330A981BF038FB08AB32
:101A4000594640F20312009309984B461BF020FBC5
:101A500083460A981BF02DFB1BF10B0F0CD0BBF13A
:101A6000000F7FF46DAFB9F90630002BDED109F11C
:101A700008090AF1FF3AA8E74FF00108F7E700BFAD
:101A8000CDCCCCCC38B5044640B90B490B48132219
:101A90001AF08EFF132108481AF083FF084D2B68B7
:101AA00043B10549054814221AF082FF1421024867
:101AB0001AF077FF2C6038BD1E410400B83F0400C7
:101AC000209101202DE9F041DFF85C801F46D8F815
:101AD000003004460D46164643B9114911481D22EF
:101AE0001AF066FF1D210E481AF05BFFD8F800308F
:101AF0001B6843B90A490B481E221AF059FF1E21E0
:101B000007481AF04EFFD8F800303246D3F800E00C
:101B100029463B462046F446BDE8F041604700BFF9
:101B20001E410400B83F04002091012070B50F4D04
:101B300004462B6843B90E490E4825221AF038FF97
:101B400025210B481AF02DFF2B685B6843B9084923
:101B5000084826221AF02CFF262105481AF021FFFA
:101B60002B682046BDE870405B6818472091012033
:101B70001E410400B83F04000C4B70B51B6873B1E4
:101B80000B4A15680022AA4202DB6FF0010070BD0B
:101B90001C4613F8106B864204D00132F3E76FF055
:101BA0000C00F4E700200C60F1E700BF18460120AC
:101BB000B029040070B588B005460C46C0B269462D
:101BC0001646FFF7D9FF00281FDB009BEBB15A68D0
:101BD000216802929A68D868CDE90326002201950F
:101BE000CDE90612059214F003F9054600981BF0A2
:101BF00087FB6DB12846084901AA1CF0A3FD079890
:101C000008B9059B236008B070BD6FF01500FAE7B6
:101C10006FF01200F7E700BFC5D3030042680B68FE
:101C200010B593420C4606D9054845211AF0FAFE34
:101C30000020606010BD4B68012013444B60F9E741
:101C40005941040030B5054685B0C06801AA1CF0B2
:101C500075FD044638B1452102460C481AF0E2FEF3
:101C6000204605B030BD01992B6A8B42F8D0E86858
:101C7000029A83689B689847044618B1024645213A
:101C80000348EBE7019B2B62EAE700BF7E410400BB
:101C9000A4410400F8B58568044675B1D0E904365E
:101CA000013D1E44A919FFF7CDFF051E07DA334693
:101CB0002A4645212C481AF0B5FE2846F8BDE068B2
:101CC0001BF09EFBA568B5FBF0F300FB13555DB15F
