:020000021000EC
:10C200004025012031C401006FC4010073C4010046
:10C2100077C401007BC401007FC40100000000005E
:10C220000000000000000000000000003DC7010009
:10C2300087C4010000000000D9C70100E7C7010062
:10C2400000000000000000000000000000000000EE
:10C250000000000093C40100000000000000000086
:10C2600097C401009BC401009FC40100A3C4010046
:10C270000000000000000000A7C40100ABC40100E2
:10C28000AFC40100B3C401000000000000000000C2
:10C29000B7C40100BBC401000000000000000000A2
:10C2A000BFC401000000000000000000C3C4010082
:10C2B000C7C40100CBC40100CFC40100D3C4010036
:10C2C000D7C40100DBC40100DFC40100E3C40100E6
:10C2D000E7C4010000000000EBC401000000000002
:10C2E000EFC4010000000000F3C4010000000000E2
:10C2F000F7C4010000000000000000000000000082
:10C3000000000000FBC4010000000000000000006D
:10C31000000000000000000000000000000000001D
:10C3200000000000FFC40100000000000000000049
:10C3300000000000000000000000000000000000FD
:10C340000000000010B5054C237833B9044B13B13D
:10C35000044800E000BF0123237010BD100101203C
:10C3600000000000B0E2010008B5034B1BB1034917
:10C37000034800E000BF08BD0000000014010120D8
:10C38000B0E20100A3F5803A704700BF174B002BC5
:10C3900008BF134B9D46FFF7F5FF00218B460F4664
:10C3A0001348144A121A01F0B6FE0E4B002B00D0AF
:10C3B00098470D4B002B00D0984700200021040027
:10C3C0000D000D48002802D00C4800E000BF01F02D
:10C3D00071FE2000290000F019F801F057FE00BF9F
:10C3E00000000800000000001DC50100802601209B
:10C3F000100101208824012000000000000000003E
:10C4000008B500F09CF8002008BD000008B5FFF753
:10C41000F7FF00B1FEE701F04BFD00F091F8034893
:10C4200000F004F901F05AFDFEE700BF44E101000D
:10C430000A490B4A0B4B9A42BEBF51F8040B42F813
:10C44000040BF8E7EFF3148040F0020080F3148847
:10C45000054880F30988FFF799FF0000E4E2010036
:10C46000000001201001012080260120FEE7FFF7D7
:10C47000FEBFFFF7FEBFFFF7FEBFFFF7FEBFFFF7F0
:10C48000FEBF00F05BB9FFF7FEBF00F0A5B900F0FA
:10C49000AAB9FFF7FEBFFFF7FEBFFFF7FEBFFFF72A
:10C4A000FEBFFFF7FEBFFFF7FEBFFFF7FEBFFFF7C0
:10C4B000FEBFFFF7FEBFFFF7FEBFFFF7FEBFFFF7B0
:10C4C000FEBFFFF7FEBFFFF7FEBFFFF7FEBFFFF7A0
:10C4D000FEBFFFF7FEBFFFF7FEBFFFF7FEBFFFF790
:10C4E000FEBFFFF7FEBFFFF7FEBFFFF7FEBFFFF780
:10C4F000FEBFFFF7FEBFFFF7FEBFFFF7FEBFFFF770
:10C50000FEBF00BF01207047012070470120704727
:10C510000120704701207047FEE7FEE701F0C8BC2C
:10C520001FB5002302226846CDE90032CDE902336F
:10C5300000F00AFF05B05DF804FB0020704770476B
:10C5400008B5FFF7EDFF18B1034B1860002008BDD8
:10C550004FF0FF30FBE700BF8024012003685A1C26
:10C560001F2A03440260197105D90023202140F8D5
:10C57000043BFFF7E2BF70472DE9FF410024642A26
:10C5800007460D46CDE90144039406D1A14204DAE1
:10C590002D21FFF7E3FF01246D4201AB00269846F1
:10C5A0000A20B5FBF0F100FB1152303203F8012BE9
:10C5B0002A46092A0D4606F10106F2D83546013D04
:10C5C000384618F80510FFF7C9FF002DF7D1A0195C
:10C5D00004B0BDE8F081F0B5002485B001AB06469B
:10C5E0001F46CDE90144039401F00F00105C0909D6
:10C5F00004F1010403F8010BF6D12546013D304654
:10C60000795DFFF7ABFF002DF8D1204605B0F0BDF6
:10C6100070B506460D460024295D09B9204670BD57
:10C620003046FFF79BFF0134F6E700000FB400200F
:10C630002DE9F04782468AB012AC54F8045BDFF86B
:10C64000EC80DFF8EC903B4E00940190297859B9CA
:10C65000019919B102A8FFF770FF824450460AB051
:10C66000BDE8F04704B07047252905F1010756D110
:10C670006978692910D018D8582933D008D82529C5
:10C6800047D0414601A8FFF7C3FF82443D46DDE79E
:10C6900063293BD06429F4D1642254F8041B01A817
:10C6A000FFF76AFF8244AF1CF0E77039CBB2082B6A
:10C6B000E7D80829E5D801A353F821F0F3C6010013
:10C6C00083C6010083C6010001C7010083C60100C3
:10C6D000E1C6010083C6010083C60100FDC601005A
:10C6E0007522DAE7144A54F8041B01A8FFF773FF18
:10C6F000D8E7494601A8FFF78BFF82443246F2E7AC
:10C7000054F8041B01A8FFF783FFCBE754F8041B80
:10C71000C9B201A8FFF722FF0AF1010AC3E701A885
:10C72000FFF71CFF0AF1010AB0E700BF6BE201004E
:10C7300068E201007DE201008DE201001EF0040FBD
:10C740000CBFEFF30880EFF30980816911F8021C38
:10C75000002933D101B590E80F10E047BDE8005043
:10C760008CE803003C4B93E80600914208BF7047F9
:10C7700069B1086C20B10EB5FFF7CCFEBDE80E40E4
:10C78000EFF3098020E9F00F886381F822E01A6056
:10C79000106C18B10CB4FFF7BBFE0CBC106B92F818
:10C7A000221080F30B88906B61F0FF0E1EF0400F9B
:10C7B00001D1B0E8F00F80F309887047274A136869
:10C7C0009942FAD801B552F821C00FC8E047BDE838
:10C7D0000050CCF80000704701B500F07BF8BDE8D0
:10C7E000014000F007B801B500F03AF8BDE801409B
:10C7F00000F000B8184B93E80600914208BF70475C
:10C80000086C50B10EB5FFF785FEBDE80E401EF076
:10C81000400F18BFEFF3098003D1EFF3098020E93F
:10C82000F00F886381F822E01A60106C18B10CB424
:10C83000FFF76EFE0CBC106B92F8221080F30B8891
:10C84000906B61F0FF0E1EF0400F01D1B0E8F00FC9
:10C8500080F30988704700001400012004E2010001
:10C8600038B51B4C01F086FBE368226D0133E360B1
:10C8700002B1904700F090FE002000F0EBFE236C28
:10C880002BB1A16BA269914202D0C4E90E2338BD3D
:10C89000E36BC3B9237A022BF9D1656A002DF6D078
:10C8A00091F9203095F920209A42F0D1284600F0E5
:10C8B0003FFEA06B00F046FE284600F0C1FE236C50
:10C8C000C4E90E5338BD013BE363002BE2D038BD11
:10C8D0000000012070B5284E06F1560406F15A05F5
:10C8E000B6F85420D4E85F3F13B9BFF32F8F04E0AC
:10C8F000591EC4E8501F00B1F4E79BB2002B36D09C
:10C90000D5E85F3F591C8A4200D80021C5E8501F76
:10C9100000B1F5E79BB2F26D52F8230038B303780B
:10C92000F13B082BDCD801A252F823F069C90100C1
:10C93000E1C8010063C90100E1C80100E1C80100CC
:10C940005DC9010057C90100E1C8010051C90100DA
:10C95000336F9847C4E7F36E9847C1E7B36E9847C3
:10C96000BEE7736E9847BBE7336E9847B8E7002081
:10C97000BDE8704000F06EBE000001201A4A70B49D
:10C98000B2F8543002F15605D5E85F4FA34202D801
:10C99000BFF32F8F04E0611CC5E8561F06B1F3E713
:10C9A000A4B2A34204D80146022070BCFFF7B5BD73
:10C9B00002F15805D5E85F4F611C8B4200D8002179
:10C9C000C5E8561F06B1F5E7A3B2D16D41F82300C3
:10C9D000537A1BB10123937270BC7047034B4FF025
:10C9E000805270BC5A6070470000012000ED00E0EA
:10C9F0002DE9F04F0F4683B0064600284CD00029A1
:10CA00004AD0CB1CB0FA80F123F0030313F10C05DC
:10CA100004D0B5FA85F30B441F2B3DDD05FB06F969
:10CA2000002A3ED09468002C57D0A30734D1D36895
:10CA3000332B31D9D2F81080D2F800A05269B8F166
:10CA4000000F55D018F0030318BF0123914588BF8C
:10CA500043F0010303BB3CB3DFF8FCB04FF0000C24
:10CA6000FA20A3702A4643462070C4F804A0314639
:10CA7000676204F10C00C4F808C0C4F830C0C4E90F
:10CA80000ACC00F00BFB334B2046CBF8703003B0E0
:10CA9000BDE8F08F002C53D10024204603B0BDE840
:10CAA000F08F924601239046DFF8ACB00193DBF89B
:10CAB000A000002833D000F015FB019B0446002C99
:10CAC000E8D0002BE6D000224946DBF87C0000F0DD
:10CAD00069FB804660B3032319E0D368002BDBD1E8
:10CAE000D2F81080D2F800A05269B8F1000FA9D195
:10CAF000002AD1D164B3DFF860B042464946DBF882
:10CB00007C0000F04FFB80460028C5D002234A4637
:10CB100000214046019301F0FEFA019B9EE70122AD
:10CB20003421DBF8800000F03DFB019B0446C6E7A2
:10CB3000DBF8A000214628B100F0F0FA4446ACE74B
:10CB400001238BE7DBF88000444600F069FBA4E793
:10CB50000123A9E7EDCD0100000001202DE9F041FE
:10CB60009C460F4690460546002800F0B2800278A9
:10CB7000FA2A40F0AE80002900F0AB8000F12806D0
:10CB800056E8002F12B9BFF32F8F04E0511E46E87C
:10CB9000001000B1F4E7D2B1EC6AC4B1A01C0122CC
:10CBA000D0E84F1FC0E8432F03B1F9E711F0FF0FA2
:10CBB00009D11AE0D0E84F1FC0E8432F03B1F9E7CD
:10CBC00011F0FF0F11D0A468A01C002CF2D1BCF111
:10CBD000000F00F081806146832000F0E7FF00280D
:10CBE00066D16FF00100BDE8F081D4E90132002B7D
:10CBF00049D09A60A268002A49D0536038466A6AD0
:10CC000004F10C0101F07AFAB8F1000F02D0E378D8
:10CC100088F80030002705F10C08214627704046AF
:10CC200000F07CFAAB68002B3FD0404600F05AFA87
:10CC30000446002839D0284600F070FC80460122C6
:10CC4000394600F097FD404600F0E2FC80466A6AF3
:10CC500004F10C00D8F8081001F050FAF923A7707D
:10CC6000237098F80C10E1702B6B0BB92CE0134675
:10CC7000DA788A420DD25A681F46002AF7D1C4E9F1
:10CC80000123EC6209E0EA62A268002AB5D12B63B5
:10CC9000B4E7C4E901379C60CFB17C6056E8003F3F
:10CCA0005A1C46E8002101B1F8E70020BDE8F081F8
:10CCB0000B4B2846596900F00FFCEFF309836FF026
:10CCC0000100C3E90278F1E7C4E90133EC622C63A7
:10CCD000E4E76FF00300E9E76FF00200E6E700BF6A
:10CCE000000001202DE9F0410F4616469846044603
:10CCF000002872D00278FA2A6FD1B1FA81F56D0955
:10CD0000002D6AD1826812B15378832B3CD004F194
:10CD10000C0000F0E7F9054618B3626A39460C309A
:10CD200001F0ECF9F9230022EE702B70AA70236B4E
:10CD30000BB940E00B46D978B1421ED259681A4669
:10CD40000029F7D1C5E90113E5625560283454E89C
:10CD5000003F5A1C44E8002101B1F8E70020BDE87B
:10CD6000F081B8F1000F3BD04146932000F01EFF48
:10CD700030BB6FF00100BDE8F081C5E901329D6074
:10CD8000002AE2D12563E1E700F0C8FB80460122DA
:10CD9000294600F0EFFC404600F03AFC8046626A0B
:10CDA0003946806801F0AAF9D8F80C000028E2D0D2
:10CDB00006702846DFE7C5E90133E5622563C5E76C
:10CDC000094B2046596900F087FBEFF309836FF0A8
:10CDD0000100C3E90276BDE8F0816FF00300CAE705
:10CDE0006FF00200C7E700BF00000120F8B58678A9
:10CDF00004468568002E48D04368C668002B69D079
:10CE00009D60A268002A69D05360002506F10C07D6
:10CE100021462570384600F081F9B368002B33D0E5
:10CE2000384600F05FF9044600282DD0304600F067
:10CE300075FB07462A46294600F09CFC384600F060
:10CE4000E7FB0746726A04F10C00B96801F056F975
:10CE5000F923A5702370397BE170336B0BB96AE05D
:10CE60001346DA788A425FD25A681D46002AF7D103
:10CE7000C4E90123F4626C60283656E8003F5A1C6E
:10CE800046E8002101B1F8E7F8BDAB6813B15B7863
:10CE9000832B2AD02B6B1BB3E0780021DA788242F7
:10CEA00011D25A6819461346002AF7D1C4E9012164
:10CEB000EC624C60283555E8003F5A1C45E80021DB
:10CEC00001B1F8E7F8BDC4E901319C600029F0D157
:10CED0002C63EFE7F562A268002A95D1336394E7EB
:10CEE000C4E90133EC622C63E4E7284600F016FB4A
:10CEF00007463246314600F03DFC384600F088FBDC
:10CF000006466A6A04F10C01806801F0F7F8F368DC
:10CF10000BB1E2781A70002305F10C002146237052
:10CF2000BDE8F84000F0FAB8C4E901359C60002D76
:10CF3000A1D13463A0E7C4E90133F462F9E700BF8B
:10CF4000EFF3058313B9EFF310830BB100207047A3
:10CF5000EFF31183002BF9D1DFF804C000DF704735
:10CF6000F1C901002DE9F04106460F4690461C46E6
:10CF7000EFF3058515B9EFF3108505B346B33378A4
:10CF8000FA2B25D127B3003418BF012404BB06F1C6
:10CF90000C0000F0A7F80546E8B1726A39460C307B
:10CFA00001F0ACF8F9232846AC7085F803802B70AB
:10CFB000C5E90176FFF7E2FC2046BDE8F081EFF31A
:10CFC0001185002DDAD1DFF814C000DFBDE8F08153
:10CFD0006FF00300F1E76FF00200EEE7E5CC01002F
:10CFE000F8B59C4605460E461746EFF305841CB976
:10CFF000EFF31084002C35D0002D4AD02B78FA2B7B
:10D0000047D1002E45D0BCF1000F42D105F12803D5
:10D0100053E8002F12B9BFF32F8F04E0511E43E8ED
:10D02000001000B1F4E7D2B1EC6AC4B1A21C012334
:10D03000D2E84F1FC2E8403F00B1F9E711F0FF0FFF
:10D0400009D117E0D2E84F1FC2E8403F00B1F9E72D
:10D0500011F0FF0F0ED0A468A21C002CF2D16FF0CB
:10D060000200F8BDEFF31184002CC5D1DFF828C011
:10D0700000DFF8BD30466A6A04F10C0101F03EF8A9
:10D080000FB1E3783B702046E560FFF777FC0020A6
:10D09000F8BD6FF00300F8BD5DCB010070B4F0B1D6
:10D0A000E9B1E2B1B3FA83F46409C4B902FB01F552
:10D0B0000160013903EB0506C360C0E90142C0E924
:10D0C000046307D018468418013904602046FAD159
:10D0D000AA1A1344002201201A6070BC7047002075
:10D0E00070BC704710B40346A8B100F1140252E8B6
:10D0F000000F10B9BFF32F8F04E0016842E800145D
:10D1000004B1F4E738B1043353E8002F511C43E86D
:10D11000001404B1F8E710BC704700BF30B4F8B198
:10D12000C3688B421CD803698B4219D900F11403E0
:10D130001A680A60BFF35F8F53E8002F0C689442AF
:10D14000F6D143E8001505B1F2E7043050E8003F9E
:10D150005A1E40E8002101B1F8E7002030BC7047BA
:10D160006FF00300FAE700BF30B4034640B140EA75
:10D170000102500704D117298CBF0022012212B1ED
:10D18000002030BC7047A1F108051024196001206F
:10D19000E918C3E90141EA5099684C60DA6030BC93
:10D1A000704700BFF0B468B3B1FA81F35B094BBBC1
:10D1B00032F0030426D10F3100F10805846821F014
:10D1C000070703E023682546CBB11C466968631B4B
:10D1D00021F003069B1B9F42F4D8D0E9003603449C
:10D1E0003E444660083B5868864201D95E606968E3
:10D1F0003A4351B905F108006A60F0BC704718461F
:10D20000F0BC70470020F0BC704721F003016B18A0
:10D210006C5003F108005A602B60F0BC704700BFEF
:10D2200030B4F8B1F1B1A1F1080400F10802A24252
:10D230001BD08168B1B18C4224D00B6823B911E0B6
:10D240001A68194613466AB19C42F9D15C68426873
:10D2500024F00304121B426079B11B6801200B60AB
:10D2600030BC7047002030BC704751F8041C134696
:10D27000426821F00301521A4260002201205A60E4
:10D2800030BC70474D680B464468114625F00302D8
:10D29000A41A4460E1E700BF38B5034610B38068C4
:10D2A000D3E9004588B110F0030219D1DB681B2BCC
:10D2B00016D90023F5218270C57044600170037691
:10D2C000C0E90233C0E9043338BDDB6843B90C4B15
:10D2D000D3F8940068B1FFF705FF08B10122E8E731
:10D2E000002038BD064B04460546D3F894000028BC
:10D2F000F1D1D3F8800001221C21FFF753FFECE7A6
:10D30000000001202DE9F0410446D8B100274FF07C
:10D310000108E37865691B0711D5A36820462776C5
:10D320006BB100F0FBF800220646114600F022FA2D
:10D33000F36AE660C4E90473F46284F818802C464A
:10D34000002DE6D1BDE8F081EFF3058313B9EFF3CB
:10D3500010830BB100207047EFF31183002BF9D13C
:10D36000DFF804C000DF704799D20100DFF804C085
:10D3700000DFFEE7BDDA010010B500230446006CB3
:10D380002380E8B9A3789A0709D513F0100F216B11
:10D39000104B10D0D3F88400FFF7C0FEA378DB0752
:10D3A00008D50C4B2146D3F8880060B1BDE8104089
:10D3B000FFF7B4BE10BD586FFFF732FFA378EEE75A
:10D3C000FFF7A4F8DEE7D3F88000BDE81040FFF7D0
:10D3D00027BF00BF000001204378332B30B401D0B9
:10D3E00030BC704790F82330426A9D0703F001017A
:10D3F00041D400F12804002944D054E8003F03EA56
:10D400000201914203D0BFF32F8F002305E023EAEE
:10D41000020144E8001505B1EFE7002BE0D0816B75
:10D4200002690B62C16943694C1C3DD022B1D469C9
:10D43000536121444369D161002B44D01A6100211A
:10D44000234B4161012290F9204042705A6A002A20
:10D450003CD092F92030A34205DA2DE093F9201058
:10D460008C422BDC1A469368002BF7D10023C0E9CD
:10D4700002329060B4E7836A02EA030489B9002C9F
:10D48000AED0CCE754E8003F134203D1BFF32F8F57
:10D49000002305E023EA020144E8001505B1F1E7A5
:10D4A000BBE7A2429CD1B8E70AB153614369002BA4
:10D4B000C4D1074B1A63C5E71346064AC0E90232D6
:10D4C0009060D8608CE7024BDA62BBE7014ACDE797
:10D4D000000001201C000120826810B491F9204056
:10D4E000D2B192F92030A34205DA0DE093F9200081
:10D4F00084420BDC1A469368002BF7D1002310BC42
:10D50000C1E90232916070471346024610BCC1E97E
:10D5100002329160D96070470246EFE783689A68EB
:10D52000826002B1D06000221846DA60704700BF06
:10D53000C3682BB182689A6002B1D3600023C360D4
:10D54000704700BF0123134943704A6A10B490F931
:10D550002040DAB192F92030A34205DA0DE093F9C8
:10D5600020108C420CDC1A469368002BF7D1002364
:10D5700010BCC0E9023290607047134601F11C02F2
:10D5800010BCC0E902329060D860704701F11C0203
:10D59000EDE700BF00000120F0B41C4EF06A50B36C
:10D5A000C569013DC56135BB012706F11C0CC36887
:10D5B00023B182689A6002B1D360C5604770726A15
:10D5C00090F9204002B392F92030A34205DA14E02A
:10D5D00093F920108C4212DC1A469368002BF7D185
:10D5E000C0E902529060006920B1C369002BDED00F
:10D5F00000234361F062F0BC704713466246C0E905
:10D6000002329060D860EEE76246E9E70000012050
:10D61000806B2030704700BF074B596951B10B6BCD
:10D620008A6B934203D21A68044B9A4202D00120BB
:10D63000FEF773BF704700BF00000120A52E5AE21D
:10D64000022208B5024B42709861FFF7E5FF08BD62
:10D6500000000120454B70B55D691A7A00283CD066
:10D66000022A90F920404FF0010215D042705A6A08
:10D67000002A74D092F92030A34205DA26E093F90B
:10D6800020108C4224DC1A469368002BF7D100232B
:10D69000C0E90232906070BD95F92060A642E5DADB
:10D6A0006A70596A00295CD091F92020B24205DCE9
:10D6B0003CE092F92040A6423BDA11468A68002AF3
:10D6C000F7D10022C5E902218D6036E01346284AD1
:10D6D000C0E902329060D86070BD022A5C6ADAD17B
:10D6E000002CD8D095F9206094F92020B242D2DDE8
:10D6F000E2682AB1A168916001B1CA600022E260CB
:10D7000001226A70596A79B391F92020B24205DC8E
:10D7100019E092F92000864217DA11468A68002A39
:10D72000F7D10022C5E902218D6012E00A4603F11B
:10D730001C01C5E902218D60D5600222427098610A
:10D74000FFF76AFF70BD0A460949C5E902218D60ED
:10D75000D560022262709C61FFF75EFF70BD044AD3
:10D7600095E703F11C01ACE70149DAE7000001206D
:10D770001C00012030B4846B03692162C4694169D3
:10D78000651C2ED023B1DD6959612C444169DC61EF
:10D79000002932D000240B6144615ABB01231A498D
:10D7A00090F9204043704A6A52B392F92030A34264
:10D7B00005DA0DE093F920108C420CDC1A469368D0
:10D7C000002BF7D1002330BCC0E9023290607047D3
:10D7D000134601F11C02C0E9023230BC9060D860EF
:10D7E00070470BB1596141690029D3D106490B63D8
:10D7F000002AD3D030BCFFF72DBF0349CB62CCE762
:10D8000001F11C02DEE700BF000001202DE9F04F0E
:10D8100087B081460091002800F0C680002A00F001
:10D82000C8809468002C00F0E580A50740F0BC801B
:10D83000D368432B40F2B880D2F81880D2E904654F
:10D84000002E00F0E180700740F0AE80002D00F067
:10D85000AB80B8F1000F00F0E28008F1FF33372B06
:10D8600000F2A280690740F09F80472D40F29C8023
:10D87000D169B6FA86F310680F1C526803914FEA1B
:10D880005313019018BF01270292002C00F09A80D8
:10D8900012224FF0000B0492002C00F0A580002B08
:10D8A00000F0CD80DFF810A2002D40F0BB807D4B52
:10D8B000DAF884005D6D002800F0B480FFF712FCF8
:10D8C0000646002800F0C380DDF810B0002F51D1CB
:10D8D0003846A5F14002734B4FFA88F840F2F11731
:10D8E00002EB060E1968029A00234FF0BC0C84F874
:10D8F00002B0E270E362019A84F8208084F821800B
:10D900006260C4F838E02780A4F822C0C4E90F9010
:10D91000C4E90233C4E90433C4E90633C4E9093372
:10D9200061484B07C4E90C65306009D5AD08112D7D
:10D9300006D05E4A301DCC212A44920000F0EBFB59
:10D94000A36B342200215A4D184600F0E4FB4FF03F
:10D9500080710346009E574AC0F8389020461E62E8
:10D960005D63D963CAF86020FFF774FE204607B0F4
:10D97000BDE8F08F0398FEF7C7FD0028A9D11BF082
:10D98000100F216B00F08380DAF88400FFF7C6FBEC
:10D990001BF0010F08D0484B2146D3F88850002DCA
:10D9A0007AD02846FFF7BAFB0024204607B0BDE82E
:10D9B000F08F174601234FF01808154616460392BC
:10D9C00001920292DFF8F0A00593DAF888000028AF
:10D9D00050D013234FF0010B0493FFF783FB044651
:10D9E000059B002C7FF45BAF002CDDD00020DFF81E
:10D9F000C8A06EE7D368002BD6D1D2F81880D2E940
:10DA00000465002E7FF41FAFB8F1000F2CD008F191
:10DA1000FF33372BC8D8002D3FF42AAF22E74FF051
:10DA200018081FE700222946DAF87400FFF7BAFB4E
:10DA3000064660B14BF002035FFA83FB46E7002F16
:10DA4000D2D00398FEF760FD0028D0D1A0E7BBF14B
:10DA5000000FA9D0DAF8880021460028A2D1DAF810
:10DA60008000FFF7DDFB9FE74FF01808002D3FF423
:10DA7000FFAEF7E61323DAF8800001224421049375
:10DA80004FF0010BFFF78EFB059B044604E7DAF825
:10DA90007400FFF7C5FB7BE7D3F880002C46FFF747
:10DAA000BFFB82E79CE10100A52E5AE2EFFFFF3F9A
:10DAB0006DD30100D9D3010000000120F8B5394C25
:10DAC000237A022B3ED1636A002B3BD06569E86A5A
:10DAD000FFF718FCAA69002A35D0916B0020136962
:10DAE0000862D0695169461C50D023B1DE69596182
:10DAF00030445169D86100294FD000200B6150613A
:10DB0000012392F920705370606A002847D090F981
:10DB10002030BB4233DB014604E093F92060B7427A
:10DB20002FDC19468B68002BF7D10023C2E90231A4
:10DB30008A6009E00422EB606A70636BAB6003B13A
:10DB4000DD606563F8BD606AEFF309828368AA63EC
:10DB500063620BB1144ADA60022300264370C66088
:10DB6000A061FFF759FD6661EB78DB0702D5AB6971
:10DB7000002BDFD02846BDE8F840FFF7FDBB034689
:10DB80000949C2E902318A60DA60DDE70BB1596107
:10DB900051690029B1D12363B2E7E362B0E70249DA
:10DBA000C3E700BF000001201C00012070B52A4C13
:10DBB000237A022B26D1626A22B366694B1C7070ED
:10DBC00022D0E56A002D42D0E869814204D232E0D9
:10DBD000D869884226D81D462B69091A002BF7D12F
:10DBE000F161C6E904352E61936863620BB11B498C
:10DBF000D96000210223D1605370A261FFF70CFDB0
:10DC0000012070BD002070BD206B08B91AE01846D5
:10DC10000369002BFBD14FF0FF31C6E90430F161FD
:10DC20000661E1E7F161C6E904352E61D8695E61FC
:10DC3000411AD961D8E70020F16135612B46706146
:10DC4000E662F3E7F161C6E904002663CCE7F1611F
:10DC5000C6E90455E662C7E7000001201C00012068
:10DC600038B50B4C00210B48A26DFFF7CFFD0A4DD4
:10DC7000636EA8620BB9012038BDE26D0021074830
:10DC8000FFF7C4FDA864003018BF012038BD00BFF5
:10DC90009CE1010019C501000000012051E00100D4
:10DCA000F8B5584D2E7A012E00F0A780002E40F0D6
:10DCB000A680FEF727FC002800F0A180524C3146D8
:10DCC0009C2205F1080000F026FAE368E66A228A41
:10DCD000EB653046A368216BA5F854202B64FFF751
:10DCE00043FA08B1C5F88060D4E905713846FFF7FA
:10DCF0003BFA002876D06F67D4E907613046FFF71A
:10DD000033FA002863D0AE67D4E909713846FFF7CB
:10DD10002BFA002854D0666BEF673EB1F3683046AB
:10DD2000B2683168FFF7BAF9C5F88460A66B3EB1F6
:10DD3000F3683046B2683168FFF7B0F9C5F888601B
:10DD4000E66B3EB1F3683046B2683168FFF7A6F97A
:10DD5000C5F88C60266C3EB1F3683046B268316815
:10DD6000FFF79CF9C5F89060666C3EB1F3683046E9
:10DD7000B2683168FFF792F9C5F89460A66C3EB1BD
:10DD8000F3683046B2683168FFF788F9C5F89860E3
:10DD9000E66C3EB1F3683046B2683168FFF77EF951
:10DDA000C5F89C60246D3CB1E3682046A2682168F8
:10DDB000FFF774F9C5F8A040012300202B72F8BDCD
:10DDC000D5F88070666BEF67002EA7D1AEE7D4E977
:10DDD0000971D5F880603846AE67FFF7C5F90028AD
:10DDE00099D1EDE7D4E90761D5F8807030466F67C7
:10DDF000FFF7BAF9002886D1E9E70020F8BD4FF017
:10DE0000FF30F8BD000001209CE1010070B5224CFC
:10DE1000237A012B3CD1FFF723FF002838D01F4A7B
:10DE2000FF2382F8223092F8223063F0FF03DB43B5
:10DE300029D0B3FA83F3D268C3F12003C2F30222DC
:10DE4000934223D9FE22154E154D02FA03F31549CC
:10DE50006868DBB2F37700F053F8C8B900F090F8C7
:10DE6000206100F071F81048FFF758FBFFF7E8FB5E
:10DE70002B68DB074CBF0223032383F314880223A0
:10DE80000020237270BDD268C2F30222531CD9E76E
:10DE90004FF0FF3070BD00BF0000012000ED00E03A
:10DEA0009CE10100E7C701001C000120704700BF92
:10DEB00008B5FFF7FBFFEFF305834BB9EFF31083D2
:10DEC00033B9EFF311831BB9DFF80CC000DF08BDD5
:10DED0006FF0050008BD00BFA1DC0100EFF3058372
:10DEE0004BB9EFF3108333B9EFF311831BB9DFF8AC
:10DEF0000CC000DF70476FF0050070470DDE0100B9
:10DF000030B4B0B10C4B1B68B3FBF0F3013BB3F181
:10DF1000807F0ED209490022094C0620FF2584F893
:10DF2000235008601046074C4B608A60227030BC5A
:10DF300070474FF0FF30FAE7A400012010E000E046
:10DF400000ED00E084240120074B1A782AB100205C
:10DF5000064A4FF0806118705160054A136843F01B
:10DF600001031360704700BF8424012000ED00E02E
:10DF700010E000E0014B1B68704700BF10E000E0BC
:10DF80004FF0FF30704700BF2DE9F0412F4E746C09
:10DF9000E4B12369013B2361C3B998460127E568D1
:10DFA0000DB1A368AB60002304F11801F06C1A46B0
:10DFB0007564FEF7D7FF58B9E378716C012B0FD069
:10DFC000677019B10A690C46002AE8D0BDE8F081F3
:10DFD00021460320FEF7A1FAE378716C012BEFD103
:10DFE000626909B3D1F810E0724524D38C4605E08C
:10DFF0001D6985420CD89C46AE460246DCF80C30C2
:10E00000A2EB0E00002BF3D12061C4E902C308E0AB
:10E0100020611869C4F808C0821AE3609C607244E9
:10E020001A61CCF80C40CDE72261C4E90211746496
:10E03000002AB4D0CAE722610B69C4F808809A1A92
:10E04000E1608C600A612269F1E700BF00000120F5
:10E050000B4B08210B4C00B5D3E9182083B0FEF719
:10E060006FFF094BC4E913034FF0FF3300226946E9
:10E07000FEF7B6FF10B9DDE900309847E06CF3E732
:10E080009CE101000000012089DF010008B5074B79
:10E09000044613B1002100E000BF054B1868836AF5
:10E0A00003B19847204600F03FF800BF0000000091
:10E0B000ACE2010070B50D4D00260D4C641BA410A0
:10E0C000A64209D10B4D00260B4C00F02FF8641B23
:10E0D000A410A64205D170BD55F8043B01369847FF
:10E0E000EEE755F8043B01369847F2E708010120B6
:10E0F00008010120080101200C0101200A44431EEF
:10E10000914200D1704710B511F8014B914203F8CC
:10E11000014FF9D110BD02440346934200D170472C
:10E1200003F8011BF9E70000FEE700BFF8B500BFE8
:10E13000F8BC08BC9E467047F8B500BFF8BC08BCE8
:10E140009E4670474E6F6E2D5365637572652073E2
:10E15000797374656D207374617274696E672E2EA5
:10E160002E0D0A000000000000000000000000006A
:10E17000000000000000000000000000000000009F
:10E18000000000000000000000000000000000008F
:10E19000000000000000000000000000030000007C
:10E1A000E80300000500000030010120100000001D
:10E1B000000000000000000000000000000000005F
:10E1C000000000000000000070010120002000009D
:10E1D000000000000000000000000000000000003F
:10E1E000000000000000000000000000000000002F
:10E1F0000001000008E2010044E201002CE20100FD
:10E20000040000000000000000000000000000000A
:10E21000382201204400000080230120000100007A
:10E2200001000000000000000000000000000000ED
:10E23000000000007021012034000000A421012012
:10E24000500000000000000000000000F421012048
:10E25000440000008022012000010000280000008E
:10E2600000000000000000003078005B556E737500
:10E2700070706F72746564205461675D0030313274
:10E28000333435363738396162636465663031322C
:10E29000333435363738394142434445460000006F
:10E2A0005254582056352E352E300000A80001203B
:04E2B000000000006A
:08E2B400D0E0FF7F0100000033
:10E2BC00E4E2010000000120100100000000000059
:08E2CC0000000000000000004A
:10E2D400100101207823000000000000000000006D
:10E2E400A0E20100D0B3FB02000000000000000027
:10E2F400000000000000000000000000000000001A
:10E304000000000000000000000000000000000009
:10E3140000000000000000000000000000000000F9
:10E3240000000000000000000000000000000000E9
:10E3340000000000000000000000000000000000D9
:10E3440000000000000000000000000000000000C9
:10E3540000000000000000000000000000000000B9
:10E3640000000000000000000000000000000000A9
:10E374000000000000000000000000000000000099
:10E38400000000000090D003000000000000000026
:10E394000000000000000000000000000000000079
:10E3A4000000000000000000000000000000000069
:10E3B4000000000000000000000000000000000059
:10E3C4000000000000000000000000000000000049
:10E3D4000000000000000000000000000000000039
:10E3E400000000000000000069C3010045C30100F3
:040000031000C431F4
:00000001FF
